:020000040800F2
:10000000E01E00206D020008750900086D09000857
:100010007109000887060008DB18000800000000CE
:100020000000000000000000000000008D0B000830
:10003000F906000800000000050A0008910B0008FE
:10004000870200088702000887020008870200086C
:10005000870200088702000887020008870200085C
:10006000870200088702000887020008870200084C
:10007000870200088702000887020008870200083C
:10008000870200088702000887020008870200082C
:10009000870200088702000887020008870200081C
:1000A000870200088702000887020008870200080C
:1000B0008702000887020008110C00088702000868
:1000C00087020008870200088702000887020008EC
:1000D00087020008CD1500084116000887020008B5
:1000E00087020008870200088702000887020008CC
:1000F00087020008870200088702000887020008BC
:100100008702000887020008290E000887020008FD
:10011000E11400088702000887020008870200082F
:10012000870200088702000887020008870200088B
:10013000870200088702000887020008870200087B
:10014000870200088702000887020008870200086B
:10015000870200088702000887020008870200085B
:10016000870200088702000887020008870200084B
:10017000870200088702000887020008870200083B
:10018000870200088702000800F002F800F05EF81D
:100190000AA090E8000C82448344AAF10107DA45E2
:1001A00001D100F053F8AFF2090EBAE80F0013F0D6
:1001B000010F18BFFB1A43F001031847C4C8000021
:1001C000E4C800000A444FF0000C10F8013B13F0A3
:1001D000070408BF10F8014B1D1108BF10F8015BA0
:1001E000641E05D010F8016B641E01F8016BF9D193
:1001F00013F0080F1EBF10F8014BAD1C0C1B09D1EA
:100200006D1E58BF01F801CBFAD505E014F8016B5B
:1002100001F8016B6D1EF9D59142D6D370470000ED
:100220000023002400250026103A28BF78C1FBD8FF
:10023000520728BF30C148BF0B6070471FB50BF095
:100240007EFD00F08DF81FBD10B510BD00F024F943
:100250001146FFF7F3FF0AF04BFD00F042F903B43B
:10026000FFF7F2FF03BC00F043F9000009488047A4
:1002700009480047FEE7FEE7FEE7FEE7FEE7FEE788
:10028000FEE7FEE7FEE7FEE704480549054A064BA0
:1002900070470000A90B000889010008E018002041
:1002A000E01E0020E01A0020E01A002010B54C10DB
:1002B00084EA530404D54042C1F1000138BF491E0D
:1002C0001B4204D55242C3F1000338BF5B1E00F04D
:1002D00059F814F0804F04D04042C1F1000138BFFA
:1002E000491E14F0004F04D05242C3F1000338BF3E
:1002F0005B1E10BD10B5203AC0F00B80B1E818505D
:10030000203AA0E81850B1E81850A0E81850BFF4FF
:10031000F5AF5FEA027C24BFB1E81850A0E818509E
:1003200044BF18C918C0BDE810405FEA827C24BFF2
:1003300051F8043B40F8043B08BF7047D20728BF80
:1003400031F8023B48BF11F8012B28BF20F8023BCF
:1003500048BF00F8012B7047704770477047000096
:1003600070B5064C7C44064D7D4403E02068204473
:100370008047241DAC42F9D170BD000038C7000091
:100380005CC7000053EA020C00F069802DE9F04BD5
:100390004FF00006002B1FBFB3FA83F503FA05F4F4
:1003A00024FA05F65E4012BF1643B2FA82F502FA4D
:1003B00005F4C5F120051EBF22FA05FC44EA0C0431
:1003C000203556EA044C4FEA144418BF641C4FF021
:1003D00000084FF00009904271EB030C39D300295B
:1003E00019BFB1FA81F701FA07F6B0FA80F700FAFF
:1003F00007F6C7F120071EBF20FA07FC46EA0C06E5
:100400002037B6FBF4FCA7EB0507103F07F01F0BE6
:10041000CBF120060CFA0BFB2CFA06F644BFB346D0
:100420000026202FA4BF5E464FF0000B5BEA060CAF
:1004300008BF4FF0010B19EB0B09ABFB027C48EB3B
:100440000608C01B06FB02CC0BFB03CC71EB0C01B6
:10045000C1E70B46024641464846BDE8F08B13B55E
:100460004FF000004FF00001AFF30080BDE81C40EA
:10047000704710B500F008F8006810BD10B50446CC
:1004800000F002F8046010BD004870477C1800209E
:10049000004870477C1800207546FFF7F9FFAE460C
:1004A00005006946534620F00700854618B020B580
:1004B000FFF7EAFEBDE820404FF000064FF00007CE
:1004C0004FF000084FF0000B21F00701AC46ACE8FC
:1004D000C009ACE8C009ACE8C009ACE8C0098D4669
:1004E00070470446AFF300802046FFF7B8FE0000D7
:1004F00001491820ABBEFEE726000200704721B17B
:10050000826842F00102826003E0826822F0010208
:10051000826070470021084A1168084A1140D0E9FA
:1005200000231A4383681A43C3681A431143044AD9
:10053000C2F804137047000004230140E030FCFFC0
:100540000020014021B1826842F48072826003E0A1
:10055000826822F480728260704721B1826842F41E
:100560000072826003E0826822F400728260704749
:1005700030B50246002000235068104C20400D7911
:100580000C6844EA05242043506090680C4C2040DD
:10059000D1E903542C438D682C434D7944EA45043A
:1005A00020439060D06A20F470000C7D641EE4B299
:1005B000234340EA0350D06230BD0000FFFEFFFC41
:1005C000FDF7FFC0F0B504460D4600200021092DBF
:1005D00011DDE068A5F10A0606EB4607072606FAD4
:1005E00007F18843A5F10A0606EB460603FA06F171
:1005F0000843E0600CE0206905EB4507072606FA92
:1006000007F1884305EB450603FA06F1084320612C
:10061000072A0FDA606B561E06EB86071F2606FABE
:1006200007F18843561E06EB860605FA06F10843D5
:10063000606322E00D2A0FDA206BD61F06EB8607D7
:100640001F2606FA07F18843D61F06EB860605FA31
:1006500006F10843206310E0E06AA2F10D0606EB04
:1006600086071F2606FA07F18843A2F10D0606EB5E
:10067000860605FA06F10843E062F0BD816841F0A4
:1006800080418160704700BFFEE721B1026842F0FF
:100690000102026003E0026822F00102026070477A
:1006A00010B500220268134B1A40CC680B68234334
:1006B0004C6923438C692343CC6923430C6A23434D
:1006C0004C6A23438C6A23434C6B23438C6B234338
:1006D0001A430260426922F00702D1E90B34234336
:1006E0001A4342610B6943604B6883608B68C36047
:1006F00010BD00003F801CF07047000001490860F9
:10070000704700000C3C024070B504460A460026C3
:10071000092502B909E0012A01D1160205E0022AE1
:1007200001D1160201E04FF4407600F09FF8054633
:10073000092D28D11548006820F44070134908603D
:1007400008460068304308600846006820F0F8005A
:1007500008600846006844F0020108430B4908603D
:100760000846006840F48030086000F07FF80546D5
:100770000648006820F00200044908600846006846
:1007800020F0F8000860284670BD0000103C0240D0
:1007900009201349096801F48031B1F5803F01D186
:1007A00001201CE00E49096801F0100109B1062082
:1007B00015E00B49096801F4807109B102200EE0CF
:1007C0000749096801F0E00109B1072007E0044981
:1007D000096801F0020109B1082000E00920704712
:1007E0000C3C02400348006840F0004001490860AA
:1007F00070470000103C024030B502460C46092507
:1008000000F034F80546092D19D10E48006820F48F
:1008100040700C4908600846006840F400700860A9
:100820000846006840F001000860146000F01EF8FF
:1008300005460448006820F0010002490860284687
:1008400030BD0000103C02400548006800F0004048
:1008500028B1044802490C39086003480860704711
:10086000103C024023016745AB89EFCD08B5092054
:100870000090FFF78DFF009002E0FFF789FF0090E6
:100880009DF800000128F8D09DF8000008BDF0B5E3
:100890000A4600210023002400BF3DE0012505FA9F
:1008A00001F3156805EA03049C4234D105684F0042
:1008B0000326BE40B543056015794E00B540066875
:1008C000354305601579012D02D01579022D16D119
:1008D00085684F000326BE40B543856055794E00BC
:1008E000B540866835438560456801268E40B5432E
:1008F0004560456896798E40B6B235434560C56817
:100900004F000326BE40B543C560D5794E00B540C3
:10091000C6683543C560491C1029BFD3F0BDF0B58A
:10092000002300244D07ED0E02FA05F3CE1000F16E
:10093000200555F826504E07F70E0F26BE40B5434A
:10094000CF1000F1200646F82750CE1000F1200508
:1009500055F8265045EA0304CE1000F1200545F86D
:100960002640F0BD418370470183704700BFFEE71A
:1009700000BFFEE77047000070B5002100230F2282
:10098000C4781CB3174C246804F4E064C4F5E06434
:10099000C4F30721C1F10404E3B20A4144789C4046
:1009A000E1B28478144021430C07210E0E4C0578E7
:1009B0006155047804F01F050124AC4005786D11E1
:1009C000AD0005F1E025C5F8004109E0047804F028
:1009D0001F050124AC40054D0678761145F82640E8
:1009E00070BD00000CED00E000E400E080E100E0FC
:1009F00002490143024A1160704700000000FA05F5
:100A00000CED00E07047000029B1064A126802436D
:100A1000044B1A6004E0034A12688243014B1A60D7
:100A2000704700003038024029B1064A126802437C
:100A3000044B1A6004E0034A12688243014B1A60B7
:100A4000704700004038024029B1064A126802434C
:100A5000044B1A6004E0034A12688243014B1A6097
:100A6000704700002038024029B1064A126802434C
:100A7000044B1A6004E0034A12688243014B1A6077
:100A8000704700004438024029B1064A1268024308
:100A9000044B1A6004E0034A12688243014B1A6057
:100AA0007047000024380240F0B5002100220024E5
:100AB000022500260223324F3F6807F00C0121B1C6
:100AC000042905D0082937D105E02E4F076036E00C
:100AD0002C4F076033E02A4F3F1F3F68C7F3805613
:100AE000274F3F1F3F6807F03F036EB1254FB7FB0D
:100AF000F3F7DFF88CC0ACF1040CDCF800C0CCF3E9
:100B0000881C07FB0CF40CE01E4FB7FBF3F7DFF873
:100B100070C0ACF1040CDCF800C0CCF3881C07FBFF
:100B20000CF4174F3F1F3F68C7F301477F1C7D0040
:100B3000B4FBF5F7076002E0124F076000BF00BF8B
:100B40000F4F3F6807F0F00109090F4F7A5C076803
:100B5000D74047600A4F3F6807F4E051890A0A4FBF
:100B60007A5C4768D7408760054F3F6807F460416B
:100B7000490B054F7A5C4768D740C760F0BD00005D
:100B8000083802400024F400A40B00207047000045
:100B90000448036840685A1C40F1000001490A609B
:100BA00048607047A00A002010B51548006840F45E
:100BB0007000134908601348006840F001001149B3
:100BC000086000200F49083108600E4800680E498F
:100BD00008400C4908600D48091D0860081F00689E
:100BE00020F48020091F0860002006490C310860AD
:100BF00001F0D6F84FF0006001498039086010BD5F
:100C000088ED00E000380240FFFFF6FE10300024BF
:100C100010B502217C4800F045FA012839D10221A3
:100C2000794800F038F97948006800F04000402821
:100C300010D1754800F027FA7549088072482030B5
:100C4000008840F00200704920310880002071497E
:100C500008801EE06C4800F016FA84B26C480088E8
:100C6000844205DD6A480088201A6B49088007E045
:100C70004FF6FF70204466490988401A664908808B
:100C800061482030008820F002005F492031088050
:100C900000BF04215C4800F005FA012836D1042188
:100CA000594800F0F8F85948006800F080008028A2
:100CB0000DD1554800F0EAF95849088052482030D3
:100CC000008840F020005049203108801EE04E4846
:100CD00000F0DCF984B251480088844205DD4F48B9
:100CE0000088201A4C49488007E04FF6FF702044E6
:100CF0004A490988401A48494880434820300088BA
:100D000020F0200040492031088000BF08213E48E3
:100D100000F0C8F9012837D108213B4800F0BBF8A2
:100D20003A48006800F48070B0F5807F0DD13648F5
:100D300000F0AFF93A49088033482030008840F489
:100D400000703149203108801EE02F4800F0A1F9E1
:100D500084B233480088844205DD31480088201A77
:100D60002D49888007E04FF6FF7020442C49098800
:100D7000401A2949888024482030008820F40070D7
:100D800021492031088000BF10211F4800F08AF956
:100D9000012837D110211C4800F07DF81B4800685D
:100DA00000F40070B0F5007F0DD1174800F074F921
:100DB0001C49088014482030008840F40050124933
:100DC000203108801EE0104800F066F984B2154812
:100DD0000088844205DD13480088201A0E49C88027
:100DE00007E04FF6FF7020440E490988401A0A496F
:100DF000C88005482030008820F400500249203186
:100E0000088000BF10BD0000000800401004024030
:100E1000F40A0020DC0A002060120020F60A0020FC
:100E2000F80A0020FA0A002010B50121104800F04D
:100E300039F9012816D10F48007810B101280FD1D7
:100E400006E005F01BFF012801D10A49087008E0FF
:100E500005F040FE012802D102200649087000E09A
:100E600000BF00BF0121024800F015F810BD0000CE
:100E7000000C0040740A002021B1028842F0800278
:100E8000028004E002884FF67F731A4002807047A8
:100E9000CA4302827047CA430282704721B1028866
:100EA00042F00102028004E002884FF6FE731A400D
:100EB0000280704710B504465548844208D101218C
:100EC0000846FFF7E1FD00210120FFF7DDFD9DE071
:100ED000B4F1804F08D101210846FFF7B5FD00218C
:100EE0000120FFF7B1FD91E04A48844208D1012179
:100EF0000220FFF7A9FD00210220FFF7A5FD85E0F4
:100F00004548844208D101210420FFF79DFD0021BE
:100F10000420FFF799FD79E04048844208D101217F
:100F20000820FFF791FD00210820FFF78DFD6DE0FF
:100F30003B48844208D101211020FFF785FD0021A4
:100F40001020FFF781FD61E03648844208D101217D
:100F50002020FFF779FD00212020FFF775FD55E0E7
:100F60003148844208D101210220FFF78DFD002184
:100F70000220FFF789FD49E02C48844209D1012174
:100F80000804FFF781FD00214FF48030FFF77CFD5E
:100F90003CE02748844209D101214804FFF774FD51
:100FA00000214FF40030FFF76FFD2FE0214884420D
:100FB00009D101218804FFF767FD00214FF480204B
:100FC000FFF762FD22E01C48844208D10121402045
:100FD000FFF73AFD00214020FFF736FD16E01748E5
:100FE000844208D101218020FFF72EFD00218020BE
:100FF000FFF72AFD0AE01248844207D1012180153B
:10100000FFF722FD0021A015FFF71EFD10BD000017
:10101000000001400004004000080040000C0040B7
:101020000010004000140040000401400040014056
:10103000004401400048014000180040001C0040EE
:1010400000200040F0B50C4615461E460021002247
:1010500000230189028B038C4FF6F8773940214336
:101060004FF6FC473A4040F201173A434FF6DD771E
:101070003B404FF6FF7707EA06172F433B430181BA
:1010800002830384F0BD0146486B70470146886BBC
:1010900070470146C86B70470146086C70470146AF
:1010A000486A704730B50246002000230024158AA4
:1010B00005EA0103958905EA010413B10CB1012089
:1010C00000E0002030BD70B505460C46208850B9C0
:1010D0002389A2886188284600F00CFDE188284613
:1010E00000F08FF925E0208804280AD12389A288FE
:1010F0006188284600F01BFDE188284600F08AF947
:1011000017E0208808280AD12389A2886188284608
:1011100000F035FDE188284600F089F909E02389CF
:10112000A2886188284600F04EFDE188284600F03C
:1011300087F970BD0021018041800121818000215B
:10114000C180018170471AB183890B43838102E01A
:1011500083898B438381704770B50024002200236C
:10116000058C4FF6FE7635400584028C8388048B0F
:101170004FF68F752C40B51E2C400D882C43751EE4
:101180002A408D892A434D882A43104DA84202D017
:101190000F4DA84213D14FF6F7752A40CD892A4347
:1011A0004FF6FB752A408D882A434FF6FF652B408A
:1011B0004FF6FF552B400D8A2B434D8A2B438380DE
:1011C00004838D684563028470BD00000000014007
:1011D000000401400A460021018B4FF6F7731940C5
:1011E000114301837047000070B5002400220023E2
:1011F000058C4FF6EF7635400584028C8388048B8E
:1012000048F6FF752C404FF6FF452C400D884FF6F1
:10121000FF7606EA05252C434FF6DF752A408D89B7
:1012200006EA05152A434D8806EA05152A43154D99
:10123000A84202D0144DA8421DD14FF67F752A4016
:10124000CD894FF6FF7606EA05152A434FF6BF759E
:101250002A408D8806EA05152A434FF6FF352B40B4
:101260004FF2FF752B400D8A06EA85052B434D8A08
:1012700006EA85052B43838004838D688563028499
:1012800070BD000000000140000401400A4600213A
:10129000018B4FF2FF7319404FF6FF7303EA0223ED
:1012A000194301837047000070B500240022002319
:1012B000058C4FF6FF6635400584028C8388848B4D
:1012C0004FF68F752C404FF6FC752C400D882C4343
:1012D0004FF6FF552A408D894FF6FF7606EA052521
:1012E0002A434D8806EA05252A43154DA84202D017
:1012F000144DA8421DD14FF2FF752A40CD894FF6FB
:10130000FF7606EA05252A434FF6FF352A408D88E9
:1013100006EA05252A434EF6FF752B404DF6FF756C
:101320002B400D8A06EA05152B434D8A06EA051562
:101330002B43838084838D68C563028470BD000065
:1013400000000140000401400A460021818B4FF655
:10135000F7731940114381837047000070B5002274
:1013600000230024058C4EF6FF7635400584038C5F
:101370008488828B48F6FF752A404FF6FF452A4045
:101380000D884FF6FF7606EA05252A434DF6FF75D0
:101390002B408D8906EA05352B434D8806EA053535
:1013A0002B430A4DA84202D0094DA84208D14BF662
:1013B000FF752C400D8A4FF6FF7606EA85152C4303
:1013C000848082838D680564038470BD00000140C1
:1013D000000401400A460021818B4FF2FF7319403F
:1013E0004FF6FF7303EA0223194381837047416379
:1013F000704781637047C163704701647047416201
:101400007047028B4FF6F3731A400283028B0A4334
:1014100002837047028B4FF2FF331A400283028B24
:101420004FF6FF7303EA01231A4302837047828B4E
:101430004FF6F3731A408283828B0A43828370478C
:10144000828B4FF2FF331A408283828B4FF6FF73F9
:1014500003EA01231A4382837047000000220288B6
:10146000184B98420ED0184B98420BD0B0F1804FD9
:1014700008D0164B984205D0154B984202D0154B18
:10148000984204D14FF68F731A404B881A43124B7F
:10149000984207D0114B984204D04FF6FF431A40B0
:1014A0000B891A4302804B68C3620B880385054B86
:1014B000984202D0044B984201D18B7A03860123D3
:1014C0008382704700000140000401400004004096
:1014D00000080040000C00400010004000140040D4
:1014E00038B540F22771324800F034F990B13148F4
:1014F0003149826868469047012805D19DF800105F
:101500002B4800F0E6F905E0002240F22771284858
:1015100000F04AF940F22551254800F01BF9002857
:1015200044D0234800F0D0F9C0B200902348D0F84E
:1015300000012249C1F804012149486880471F4938
:10154000C1F800010846D0F80001D1F80411401A92
:10155000322817D9194890F8FF0098B9002405E0FF
:101560001848005D15490855601CC4B2164800783B
:101570008442F5DB14480078104981F8FF00002010
:10158000114908709DF800000E490F4A12788854DE
:101590000D480078FE2804DA0B480078401C0A4900
:1015A000087040F22551024800F0ACF838BD000048
:1015B000004C0040480B0020AC140020B814002060
:1015C000A80A0020AB130020140B002008B540F23D
:1015D0002771174800F0BEF890B116481649826886
:1015E00068469047012805D19DF80010104800F08A
:1015F00070F905E0002240F227710D4800F0D4F8A0
:1016000040F225510A4800F0A5F878B1084800F0EA
:101610005BF9C0B2009040F22551054800F072F825
:101620000448064942689DF80000904708BD000044
:1016300000100140480B0020C0170020CC170020EC
:1016400010B50821274800F078F810B1254800F0BF
:101650003BF92021234800F070F8012840D12148AF
:1016600000F032F9C4B22049486880471F49096830
:10167000401A022810D900201D4908701D48007822
:10168000012803D100201B49087002E001201949FC
:10169000087001201849087016480078012808D100
:1016A000134801780078401C114A107013484454C4
:1016B00007E00F4801780078401C0D4A1070104870
:1016C0004454094948688047084908600848007838
:1016D000192804D106480078401E0549087000BF4B
:1016E00010BD000000440040A80A0020700B00203C
:1016F000740B0020550B0020540B0020D81700203D
:10170000F117002010B50022002340F66A14A14210
:1017100000D100BF0A1201249440A3B2DC4304802C
:1017200010BD21B1828942F40052828104E0828995
:101730004DF6FF731A408281704702460020B1F5D2
:10174000007F00D100BF13880B400BB1012000E0E7
:101750000020704770B502460024002300250020B9
:1017600040F66A16B14200D100BFC1F3421501F044
:101770001F03012606FA03F3012D02D19689334097
:1017800006E0022D02D1168A334001E0968A3340EA
:101790000C12012606FA04F41688344013B10CB179
:1017A000012000E0002070BDF0B5034600240026B3
:1017B0000025002040F66A17B94200D100BF184644
:1017C000C1F3421401F01F06012707FA06F5012CA8
:1017D00001D10C3004E0022C01D1103000E01430B3
:1017E0001AB107682F43076002E00768AF4307603C
:1017F000F0BD00002DE9FF4705460E460024A14636
:1018000000BFA046B08900B100BF2C8A24F4405428
:10181000F08804432C82AC8941F20C608443B08888
:1018200031890843718908430443AC81AC8A24F4AC
:101830004074B0890443AC826846FFF735F920480C
:10184000854202D01F48854202D1DDF80C9001E0AC
:10185000DDF80890A88900F4004040B109EBC90008
:1018600000EB091031684900B0FBF1F707E009EB24
:10187000C90000EB091031688900B0FBF1F7642062
:10188000B7FBF0F004012009642101FB1078A8895E
:1018900000F4004040B1322000EBC800B0FBF1F092
:1018A00000F00700044308E0322000EB0810642138
:1018B000B0FBF1F000F00F0004432C81BDE8FF877E
:1018C000001001400014014001468888C0F3080060
:1018D0007047C1F308028280704700BFFEE7000036
:1018E0000A48008800EE100AB8EE400A9FED081A78
:1018F000C0EE010A9FED070A20EE800AF1EE000A11
:1019000020EE200A044880ED000A7047FC0A0020FF
:1019100000F07F4533335340000B002010B54FF4E7
:1019200080510248FFF71EF810BD00000008024079
:1019300010B5044605484168204688470449886830
:10194000804704490868804710BD0000780B0020DC
:10195000780A00202000002010B504460348816A60
:10196000204688470249C868804710BD8809002082
:101970002C0A002010B504460349C8688047034973
:10198000C868804710BD0000100A002054090020DC
:1019900010B540F666014FF08040FFF72CFD40F691
:1019A00066010C48FFF729FD40F666010948FFF77C
:1019B00022FD40F666010748FFF71BFD40F6660171
:1019C0000448FFF714FD40F666014FF08040FFF732
:1019D00014FD10BD0004004010B503F0C7F902F07B
:1019E00013F900F001F810BD10B540F6B8301449F5
:1019F000086048608860C8600861486108460168FE
:101A00004FF08040FFF7F7FC0D4841680D48FFF7A5
:101A1000F4FC0B4881680B48FFF7EDFC0848C168EF
:101A20000848FFF7E6FC064801690648FFF7DFFCB7
:101A3000034841694FF08040FFF7DFFC10BD000014
:101A4000841100200004004010B52DED048B1948CE
:101A5000C06818490969441A204609F0DCFC41ECC9
:101A6000190B15499FED152B9FED161BB0EE490A7A
:101A7000F0EE690A08688047B0EE408AF0EE608AAE
:101A800051EC180B09F06AFC044640F6B830001B14
:101A90000E49096808600748406900F6B8300B49EC
:101AA000096848600948816800208847BDEC048BBC
:101AB00010BD0000F4090020E00900200000000033
:101AC00000407FC00000000000C06240400A0020CB
:101AD000002100EE901A0549415800EE901AB8EE28
:101AE000E01ADFED031A81EE210A704700000E08AC
:101AF0000000C842F0B50C46154600210022068CB5
:101B00004FF6FE773E400684018B028C4FF60C7632
:101B100031407E1C06EA03162E4331434FF6F5761C
:101B2000324044F00106324301830284F0BDF0B537
:101B30000C461546002100220026078C4FF6EF7C4C
:101B400007EA0C070784018B028C4FF6FF7707EA40
:101B5000041640F6FF4739404FF6FF7707EA033790
:101B600039434FF6FF7707EA052739434FF65F778A
:101B70003A4046F010073A4301830284F0BDF0B5C5
:101B80000C461546002100220026078C4FF6FF6CFC
:101B900007EA0C070784818B028C4FF6FF7707EA70
:101BA00004264FF60C7739404FF6FF7707EA031704
:101BB0002F4339434FF2FF573A4046F480773A4378
:101BC00081830284F0BDF0B50C4615460021002249
:101BD0000026078C4EF6FF7C07EA0C070784818BF2
:101BE000028C4FF6FF7707EA043640F6FF4739408C
:101BF0004FF6FF7707EA052739434FF6FF7707EAE5
:101C00000337394345F6FF773A4046F480573A4365
:101C100081830284F0BD000001490868496870476B
:101C2000A00A00202DE9F0472448046845684FF0D9
:101C3000E0208669002721480168426884EA0100A3
:101C400085EA020108431CD11D4800230268304682
:101C50003946FEF72BFB4FF47A734FF0000CA4FBD0
:101C6000032805FB038304FB0C3C1346181A6CEB9A
:101C700001014FF47A7C10EB0C0041F10001BDE84A
:101C8000F0874FF0E02080690D490968B0FBF1F062
:101C900000220A4B19685B684FF47A78A1FB089A16
:101CA00003FB08A301FB02311346B9EB000261EB11
:101CB000030112EB080041F10001E0E7A00A002057
:101CC000900A00201CB501210420FEF79DFE012092
:101CD0008DF8040000208DF806008DF805008DF8C1
:101CE00007004FF48050009069460448FEF7CFFD8E
:101CF0004FF480510148FEF735FE1CBD000802403C
:101D000010B501F01BFA03F06DFD012010BD0000BD
:101D100030B503460A4600210D4C94F8FF4094422A
:101D200003DA0B4C94F8FF0000E0D0B2002107E08A
:101D3000074C645C5C540024054D6C544C1CE1B2AF
:101D40008142F5DB0024024D85F8FF4030BD0000E4
:101D5000B814002070B504460D460B49486880470A
:101D6000064604F40050B0F5005F0CD10748006847
:101D7000864208D90648006880F40050044908608B
:101D800070190249086070BDA80A0020D40A00201A
:101D900014080240704700B500F04CFD00BD000083
:101DA0000CB50020019000903448006840F4803069
:101DB0003249086000BF3148006800F400300090EC
:101DC0000198401C0190009818B90198B0F5A04FF7
:101DD000F1D12A48006800F4003010B101200090D1
:101DE00001E0002000900098012846D123484030AF
:101DF000006840F080502149403108602048006868
:101E000040F440401E4908601C48083000681B49E7
:101E1000083108600846006840F400400860084641
:101E2000006840F4A05008601648091F0860081FA9
:101E3000006840F08070091F086000BF0F4800680C
:101E400000F000700028F9D040F205700E490860DB
:101E50000A480830006820F003000849083108608B
:101E60000846006840F00200086000BF03480830E0
:101E7000006800F00C000828F8D10CBD00380240C2
:101E80000070004010544007003C024000B502467C
:101E9000FFF7C2FE034600BFFFF7BEFE9918884257
:101EA000FAD300BD70B50446FFF7BCFE054600BF7F
:101EB000FFF7B8FE2A19801A71F10001F8DB70BD36
:101EC00010B50124FEF7C0FCF320FEF717FC022139
:101ED0005820FEF719FC3B4890ED0C0ADFED3A0A5A
:101EE00020EE200ABDEEC00A10EE101A3748FEF7A9
:101EF00083FC092800D00024324890ED0D0ADFED64
:101F0000320A20EE200ABDEEC00A10EE101A2F4849
:101F1000001DFEF771FC092800D00024294890ED2F
:101F20000E0ADFED290A20EE200ABDEEC00A10EEEF
:101F3000101A26480830FEF75FFC092800D000245C
:101F4000204890ED0F0ADFED200A20EE200ABDEEBA
:101F5000C00A10EE101A1D480C30FEF74DFC09287F
:101F600000D00024174890ED100ADFED170A20EE8C
:101F7000200ABDEEC00A10EE101A14481030FEF709
:101F80003BFC092800D000240E4890ED110ADFED3B
:101F90000E0A20EE200ABDEEC00A10EE101A0B4801
:101FA0001430FEF729FC092800D0002464210748DA
:101FB0001830FEF721FC092800D00024FEF712FC9F
:101FC000204610BDAC1000200000C84200000E08E2
:101FD00010B58AB0044601210846FEF715FD01211F
:101FE0001020FEF741FD072209212F48FEF797FC3C
:101FF00007220A212C48FEF792FC02208DF82400CB
:102000008DF8250000208DF8260001208DF827008E
:102010004002089008A92448FEF739FC4FF480607C
:10202000089008A92048FEF732FC25208DF80C0006
:1020300000208DF80D0001208DF80E008DF80F00A6
:1020400003A8FEF799FC04940020ADF81400ADF845
:102050001600ADF81800ADF81C000C20ADF81A0001
:1020600004A91248FFF7C6FB1148124AFF21036872
:102070006846984710489DE80E000EC00C480F4A6D
:10208000FF210368684698470D489DE80E000EC082
:10209000012240F225510548FFF786FB0121034844
:1020A000FFF73FFB0AB010BD0000024000100140E6
:1020B000480B0020C0150020C0170020BF160020CC
:1020C000CC17002070B506460C4600250F48007955
:1020D0000E49C979401AA04201DA002070BD0025DE
:1020E00009E0705D0A494A680849904708B900202C
:1020F000F4E7681C85B2A542F3DB012240F22771A8
:102100000448FFF751FB0120E8E70000C01700205A
:10211000480B00200010014000B58FB00121880558
:10212000FEF772FC012004900020009003900B90B9
:102130001048029000200D904FF400500890C010FD
:102140000690801009900C48019000200E904FF4EA
:1021500000600790002005904FF400300A90694617
:102160000648FEF79DFA01210448FEF78EFA0FB0EB
:1021700000BD0000FC0A00204C2001401064024019
:1021800000200249C860086148617047F4090020D6
:1021900010B50D4806F02EFC7C2300223C210A4895
:1021A00006F0E2FB202301223C21074806F0DCFB7D
:1021B000802302223C21044806F0D6FB0348C16874
:1021C0000A20884710BD00000C110020A80A00203A
:1021D00010B51C4806F00EFC1B48C1683220884729
:1021E00080236B22D021174806F0BEFB1648C16839
:1021F0000520884700231922D021124806F0B4FB9D
:1022000000236B22D0210F4806F0AEFB00233722BB
:10221000D0210C4806F0A8FB06231A22D021094839
:1022200006F0A2FB18231B22D021064806F09CFBD7
:1022300010231C22D021034806F096FB03F076FC05
:1022400010BD000028100020A80A002010B50C487E
:1022500006F033FC08B9002010BDEE21084806F056
:10226000A7FC074806F054FC1E21054806F0A0FC18
:10227000034806F04DFC024806F0E1FB0120EBE7C5
:10228000A011002010B52DED048B86B00446012C62
:102290007BD1B249096801F5FA6009F0BCF841EC5C
:1022A000190BAF499FEDAF2B9FEDB01BB0EE490A64
:1022B000F0EE690A08688047B0EE408AF0EE608A66
:1022C00051EC180B09F04AF80090A449496801F54F
:1022D000FA6009F0A0F841EC190BA1499FEDA12B80
:1022E0009FEDA21BB0EE490AF0EE690A086880472C
:1022F000B0EE408AF0EE608A51EC180B09F02EF82F
:1023000001909649896801F5FA6009F084F841EC7A
:10231000190B93499FED932B9FED941BB0EE490A47
:10232000F0EE690A08688047B0EE408AF0EE608AF5
:1023300051EC180B09F012F802908849C96801F5B0
:10234000FA6009F068F841EC190B85499FED852B7F
:102350009FED861BB0EE490AF0EE690A08688047D7
:10236000B0EE408AF0EE608A51EC180B08F0F6FFF0
:1023700003907A49096901F5FA6009F04CF841ECDB
:10238000190B77499FED772B00E02DE09FED771B30
:10239000B0EE490AF0EE690A08688047B0EE408A5C
:1023A000F0EE608A51EC180B08F0D8FF04906B49EE
:1023B000496901F5FA6009F02EF841EC190B6849FA
:1023C0009FED682B9FED691BB0EE490AF0EE690A9C
:1023D00008688047B0EE408AF0EE608A51EC180B36
:1023E00008F0BCFF05909BE05C49086809F013F811
:1023F00041EC190B5A499FED5F2B9FED5C1BB0EE32
:10240000490AF0EE690A08688047B0EE408AF0EEAB
:10241000608A51EC180B08F0A1FF00904F49486802
:1024200008F0F9FF41EC190B4D499FED522B9FED40
:102430004F1BB0EE490AF0EE690A08688047B0EE1B
:10244000408AF0EE608A51EC180B08F087FF01908B
:102450004249886808F0DFFF41EC190B40499FEDC5
:10246000452B9FED421BB0EE490AF0EE690A086861
:102470008047B0EE408AF0EE608A51EC180B08F00D
:102480006DFF02903549C86808F0C5FF41EC190B93
:1024900033499FED382B9FED351BB0EE490AF0EE26
:1024A000690A08688047B0EE408AF0EE608A51EC15
:1024B000180B08F053FF03902849086908F0ABFF98
:1024C00041EC190B26499FED2B2B9FED281BB0EEFD
:1024D000490AF0EE690A08688047B0EE408AF0EEDB
:1024E000608A51EC180B08F039FF04901B494869C9
:1024F00008F091FF41EC190B19499FED1E2B9FED40
:102500001B1BB0EE490AF0EE690A08688047B0EE7E
:10251000408AF0EE608A51EC180B08F01FFF05901E
:102520004FF080400099FEF766FF14480199FEF7CE
:1025300064FF12480299FEF75EFF10480399FEF708
:1025400058FF0E480499FEF752FF4FF0804005995E
:10255000FEF753FF06B0BDEC048B10BD84110020C4
:10256000E00900200000000000CCA04000000000B6
:102570000040AF400000000000409F4000040040C9
:1025800010B52DED0A8B04468A4890F8FC08012806
:102590000CD1894806F0DCF88748983006F0D8F866
:1025A000864806F0D5F8BDEC0A8B10BD814890F83E
:1025B000000900285AD1804806F0CAF87E489830B1
:1025C00006F0C6F87D4806F0C3F87D49096888889A
:1025D00008F089FF41EC1C0B9FED7A0B53EC102B9C
:1025E00009F022FA41EC1B0B9FED780B53EC102BFA
:1025F00009F00EF841EC190B6E48D0F8E80800EE2F
:10260000100AB8EEC00ADFED730A20EE200A10EEC1
:10261000101A084609F0F2FA41EC1A0B53EC192B88
:1026200008F04CFC41EC180B08F098FE6149C1F829
:10263000E808D1F8E80808F0EEFE41EC190B66490D
:102640009FED662B9FED671BB0EE490AF0EE690A1D
:1026500008688047B0EE408AF0EE608A51EC180BB3
:1026600008F07CFE5349C1F8E8089CE7514890F80F
:102670000009012807D1504806F06AF84E48983002
:1026800006F066F859E04B4890F80009022854D14A
:10269000564890ED060A10EE101A084609F0AEFAF8
:1026A00041EC180B4C499FED522B9FED531BB0EEA4
:1026B000480AF0EE680A086880473E4880EDE60B5D
:1026C00021463D4805F0F4FEB0EE408AF0EE608A07
:1026D00041499FED4B2B9FED4C1B086880473548C7
:1026E00080EDE80B414890ED070A10EE101A0846FD
:1026F00009F084FA41EC180B37499FED3D2B9FED13
:102700003E1BB0EE480AF0EE680A086880472A4887
:10271000983080ED020B214605F0CAFEB0EE408AEB
:10272000F0EE608A2C499FED362B9FED371B086831
:1027300080472148983080ED040B1E4890F800092E
:10274000012804D01B4890F80009022830D12748FE
:1027500090ED080A10EE101A084609F04FFA41EC05
:10276000180B1D499FED222B9FED231BB0EE480A4D
:10277000F0EE680A08688047104880ED020B214699
:1027800005F096FEB0EE409AF0EE609A12499FED89
:10279000132B9FED141B08688047B0EE408AF0EEC3
:1027A000608A51EC180B08F0D9FD0249C1F8E8081D
:1027B00000BFF8E630000020C0030020F004002035
:1027C000E00A00200000000000407F40000000A060
:1027D0009999F93FCCCC4C3EE00900200000000064
:1027E000000000000000800C00C08240880900202A
:1027F00000000000000059C0000000000000594027
:1028000000000000000008C00000000000000840B8
:1028100070B504460D4603F00DFA03F05DFA02F0C0
:1028200015FFB6EE000A024880ED000A70BD0000F8
:10283000D80A002070B587B034480078012862D1EA
:102840003348007801280AD1002005E03149095CAD
:102850000DF80010411CC8B21928F7DB09E0002070
:1028600005E02D49095C0DF80010411CC8B219287B
:10287000F7DB00202549087000BF39E00024002361
:1028800016E000EB4002254D05EB820202EB8301CE
:102890008A785AB10D786D1C1DF805204D78EA40F4
:1028A0008D782A40CD78AA40144300BF591CCBB282
:1028B000032BE6DBB4F5AF7F14D9A4F5AF7100EEBE
:1028C000101AF8EE400A9FED161A9FED160A00EE58
:1028D000810ABCEEC00A10EE101A8AB2124921F821
:1028E000102003E00022104921F81020411CC8B23A
:1028F0000C28C3DB9DF818009DF8171040EA012052
:102900000A49088000BF07B070BD0000540B0020CA
:10291000550B0020F1170020D8170020ECBF00084D
:102920002FA1BD3F0000FA4422180020580B0020C0
:10293000014640F21450814201DA02207047B1F59D
:10294000E16F01DD0020F9E70120F7E710B504464B
:10295000204604F0D5FA204602F06EFC204604F032
:10296000DDFB10BD70B52DED048B00BF1C498868E0
:10297000804704460D461B4903C9221A65EB010135
:10298000104608F0C3FD9FED180B53EC102B08F018
:102990003FFE41EC180B134A30C2154B5868154BDB
:1029A0005B6803F11801134B5B68B0EE485AF0EE18
:1029B000685A90ED024AD0ED013A90ED003AD1ED1F
:1029C000022A91ED012AD1ED001A93ED0B1AD3EDF5
:1029D0000A0A93ED090A03F09FF9BDEC048B70BD60
:1029E000A80A0020800900208DEDB5A0F7C6B03EF2
:1029F0002C0A0020100A00200146B5EEC00AF1EEB4
:102A000010FA05DBF1EEC00AC1ED000A00207047A4
:102A1000DFED030AC1ED000A4FF0FF30F7E70000D9
:102A2000000000001CB501210846FDF7EDFF032062
:102A30008DF804000420009000208DF8070003208A
:102A40008DF8050069460248FDF721FF1CBD000016
:102A50000000024010B50349886880470249886831
:102A6000804710BD100A00202C0A002000B52DED73
:102A7000060B2DED0A8B83B0B0EE61BAF0EE42BAD0
:102A8000B0EE62CA684605F0F9FE9FED4A0A2BEEE9
:102A9000000AB0EE40BA9FED470A2BEE800AF0EE36
:102AA00040BA9FED440A2CEE000AB0EE40CAB0EEE8
:102AB0004B0A08F083F8B0EE408AB0EE6B0A08F0DB
:102AC0007DF8F0EE40AAB0EE4C0A08F077F8F0EE90
:102AD000408AB0EE4B0A08F0B9F8B0EE409AB0EE7A
:102AE0006B0A08F0B3F8F0EE409AB0EE4C0A08F02A
:102AF000ADF8B0EE40AA28EE2A0ADDED0D0A20EE70
:102B0000200AF1EE680A60EE890A2AEE291A41EEDF
:102B1000080A9DED0E1A00EE810A69EE0A0A28EEF7
:102B2000A91A41EE080A9DED0F1A00EE810A8DEDFB
:102B3000000A2AEE890ADDED0D0A60EE200A28EE71
:102B4000880A6AEE291AB0EE401A01EE891ADDED04
:102B50000E1AB0EE600A01EE210AF1EE480A60EEAC
:102B60008A0A28EEA91A41EE090A9DED0F1A00EE15
:102B7000810A8DED010A2AEE8A0ADDED0E0A20EEA9
:102B8000200ADDED0D0AB1EE691A01EE200A6AEEA7
:102B9000A80A9DED0F1A00EE810A8DED020A9DED47
:102BA000000ADDED010A9DED021A03B0BDEC0A8BAF
:102BB00006B000BD34FA8E3C10B58AB0044601213F
:102BC0000846FDF721FF0121C804FDF72DFF08226B
:102BD00000212A48FDF7A3FE082201212748FDF71E
:102BE0009EFE02208DF824008DF8250000208DF82F
:102BF000260001208DF82700089008A91F48FDF73E
:102C000046FE0220089008A91C48FDF740FE34202B
:102C10008DF80C0000208DF80D0002208DF80E00BC
:102C200001208DF80F0003A8FDF7A6FE04940020F4
:102C3000ADF81400ADF81600ADF81800ADF81C00A2
:102C40000C20ADF81A0004A90D48FEF7D3FD0D487D
:102C50000D4AFF210368684698470C489DE80E001E
:102C60000EC0012240F225510548FEF79DFD0121CD
:102C70000348FEF756FD0AB010BD000000000240F8
:102C8000004C0040480B0020AC120020AC14002087
:102C900010B5094805F0AEFEFFF7D8FA0748C1683D
:102CA0003220884702F092FC0448C168C820884757
:102CB00000F006F810BD0000A0110020A80A0020B6
:102CC0002DE9F04F2DED088B85B000208046814620
:102CD00000210C460D460E460F46D448007810B130
:102CE00001280FD106E003F0C9FF012801D1CF4927
:102CF000087008E003F0EEFE012802D10220CB4963
:102D0000087000E000BF00BFC8480078022804D067
:102D100005B0BDEC088BBDE8F08FC54840890102C5
:102D2000C448D0E90020511A60F10000C14AC2E94C
:102D30000010BF4880890021D2E90032A0FB03CAFD
:102D400001FB03A100FB0210410241EADC5000F547
:102D5000FA60C117B84A03C2B5488088010400224E
:102D6000B3480089B34BD3E900C3A0FB0CBE02FB00
:102D70000CEC00FB03C34FEADB1040EA4360081889
:102D800042EBE312AD4905C1A94840884FEAC03182
:102D90004FF00002A648C088DFF898C2DCE9003C8A
:102DA000A0FB03BE02FB03E300FB0C334FEA1B2036
:102DB00040EA0360081842EB2322A14905C19E485E
:102DC000D0E900304FF4FA629A1A70F100007DDA0F
:102DD0009848D0E90010A1FB012300FB013301FB5F
:102DE0000030D10F41EA40084FEAE0799248D0E93B
:102DF00000A04FF4FA61BAEB010260F10001104645
:102E000008F020FB41EC1B0B9FED8E1BB0EE4B0A34
:102E1000F0EE6B0A07F06EFAB0EE40AAF0EE60AA90
:102E20009FED8A0B53EC102B51EC1A0B08F0F0FBC2
:102E300008F090FFCDE90201DDE9021045104FEAEC
:102E40003104DDE902014FEA900040EA81764FEA61
:102E5000A1077948D0E900107E4BC91A70F1FF3004
:102E60003DDA7548D0E900105B42C91840F1000214
:102E70000846CDE90012114608F0E4FA41EC1A0BBD
:102E80009FED701BB0EE4A0AF0EE6A0A07F032FAC4
:102E9000B0EE409AF0EE609A51EC190B08F05AFF30
:102EA00082468B4607210022AAFB01030BFB01315E
:102EB0000AFB0211024614194D410B214FF0000C80
:102EC0005246A2FB010E0BFB01E100E008E00AFB09
:102ED0000C1149104FEA300296194F4100BF00BF54
:102EE0005548D0E90010B1EB080160EB0900524AE7
:102EF000C2E900105148D0E90010091B60EB050041
:102F00004E4AC2E900104E48D0E90010891B60EB20
:102F100007004B4AC2E900104F4800680023D2E97D
:102F2000001CA0FB012A03FB01A100FB0C11500DAA
:102F300040EAC12C4815414A06CABCEB010360EBCC
:102F40000201D80B40EA4140C9133B4AC2E90201E1
:102F50001046D0E902200023D21A984100DAD7E6C1
:102F60003549D1E90221104608F076FE00EE100A3C
:102F7000DFED3A0A80EE201AB0EE419ADFED380A12
:102F8000B0EE490A06F0B0FEF7EE000A30EEC00AD5
:102F9000DFED340A20EE200AB0EE408AB0EE480A97
:102FA000314804F0D9FAB0EE408A30494868804789
:102FB00000EE100AF8EE408A2D4903C908F04CFED5
:102FC00000EE100A38EEC00A1B48D0ED040A78EE75
:102FD000600A80EE801A11EE10AA504608F00EFE2C
:102FE0009FED240B53EC102B08F012FB07F034FF7D
:102FF000114948610846D0ED050AB0EE600A1F4845
:1030000004F0AAFA0C4880ED050A9FED1D0A38EE7F
:10301000400A80ED040A18EE900A08F0FDFE144AFA
:1030200003C200200149087000BF71E6740A002045
:10303000C8110020580A0020B0110020680A0020A2
:10304000600A0020000000000000004000000000B6
:103050000000144024FAFFFF700A002080E6C547F4
:10306000AEDC423E002A2D47D8110020A80A0020DD
:10307000880A00200000000000408F401C12002041
:10308000000082C210B52DED028B0446204608F0E8
:103090002AFA41EC180B9FED1A0B53EC102B08F099
:1030A0007BFA03D20120BDEC028B10BD204608F054
:1030B0001AFA41EC180B9FED140B53EC102B08F08F
:1030C000A5FB01D20320EEE7204608F00CFA41EC04
:1030D000180B9FED0F0B53EC102B08F05DFA0DD27F
:1030E000204608F000FA41EC180B9FED0B0B53EC57
:1030F000102B08F08BFB01D20220D4E70020D2E78E
:103100000000000000406F40000000000070874099
:103110000000000000C08240000000000000794074
:1031200010B5044948688047034801684FF4E1300E
:10313000884710BD780A0020180B002010B501F058
:10314000F3FE10BD10B52DED028B86B0044603A82A
:1031500005F094FB684605F091FB684890F8FC0880
:10316000012810D1654805F0F3FA6448983005F05D
:10317000EFFA634805F0ECFA6249C868804706B088
:10318000BDEC028B10BD6048006890ED000A10EEA7
:10319000101A084608F032FD584AC2E902015A489E
:1031A000006890ED010A10EE101A084608F026FD9E
:1031B000524A9832C2E902015348006890ED020A6F
:1031C00010EE101A084608F019FD4D4AC2E9020136
:1031D00021464A4805F030F8B0EE408AF0EE608AA9
:1031E00051EC180B07F038FE009021464348983008
:1031F00005F022F8B0EE408AF0EE608A51EC180B30
:1032000007F02AFE019021463D4805F015F8B0EE82
:10321000408AF0EE608A51EC180B07F01DFE029018
:103220009DED000AB1EE400ADDED010A30EE600AC4
:10323000DDED020A70EE200A3048D0F8E80800EE12
:10324000100AB8EEC00A30EE800ABDEEC00A2D4862
:10325000006880ED000A9DED000AB1EE400ADDED48
:10326000010A30EE200ADDED020A70EE600A234802
:10327000D0F8E80800EE100AB8EEC00A30EE800A76
:10328000BDEEC00A1F48006880ED010A9DED000AEE
:10329000DDED010A30EE200ADDED020A70EE200AB3
:1032A0001648D0F8E80800EE100AB8EEC00A30EE72
:1032B000800ABDEEC00A1348006880ED020A9DED49
:1032C000000ADDED010A30EE600ADDED020A70EE63
:1032D000600A0A48D0F8E80800EE100AB8EEC00A02
:1032E00030EE800ABDEEC00A0648006880ED030A91
:1032F000044881680120884700BF40E73000002073
:1033000060010020400A002054090020F0B52DED96
:10331000108B8BB005469FEDFE0B8DED080B05A8BD
:1033200005F0ACFA02A805F0A9FAFB4890F8FC08F1
:10333000012823D1F94805F00BFAF848983005F038
:1033400007FAF74805F004FAF648406890ED020ADB
:10335000F54880ED3B0AD0ED3B0AB0EE600A03F081
:103360003DFD10EE106A304608F048FCEA4A02F5CE
:103370003E7203C20BB0BDEC108BF0BDE64890F876
:10338000000920B1E44890F8000901287DD1E749FF
:103390000968488808F0A7F841EC1E0B9FEDE40B84
:1033A00053EC102B08F040FB41EC1D0B07F054FDD3
:1033B00009EE100AE049F2EE040AB0EE490A486844
:1033C000804710EE106A304608F018FC41EC1C0BE8
:1033D0009FEDDA0B53EC102B07F02CFE41EC1B0B8E
:1033E0009FEDD80B53EC102B08F012F941EC1A0B9F
:1033F00007F032FD08EE900AB0EE680A03F0EEFC2A
:103400008DED050AC9490968088808F06CF841EC97
:103410001E0B9FEDC70B53EC102B08F005FB41EC86
:103420001D0B07F019FD09EE100AC349F2EE040A5C
:10343000B0EE490A4868804710EE106A304608F03E
:10344000DDFB41EC1C0B9FEDBD0B53EC102B07F08B
:10345000F1FD41EC1B0B9FEDBB0B53EC102B08F067
:10346000D7F841EC1A0B07F0F7FC08EE900AB0EE23
:10347000680A03F0B3FC8DED060AA74890F8FF0830
:1034800001280BD1A748406800E00EE0D0ED020A09
:10349000A54890ED3B0A30EEC08A27E09E4890F8A0
:1034A000FF0818BB9FEDA98A20E09B4890F800090F
:1034B00002281BD1984890EDE81BB0EE410AF0EECF
:1034C000610A51EC100B07F0C7FC0590A04890ED85
:1034D000041BB0EE410AF0EE610A51EC100B07F04C
:1034E000BBFC06908F48406890ED028A9FED990AD8
:1034F000B4EEC08AF1EE10FA06DD9FED970A38EEC1
:10350000400AB0EE408A18E09FED940AB4EEC08AFB
:10351000F1EE10FA06D29FED900A38EE000AB0EEF6
:10352000408A0AE000BFB0EEC80ADFED8A0AB4EEB6
:10353000E00AF1EE10FA00D200BF9DED061AF0EE9F
:10354000410A9DED051AB0EE410A7B49B0EE481ADA
:10355000C86880478DED050ACDED060A8DED071A86
:103560009DED050ADFED7E0A20EE200A10EE101A0E
:10357000084608F043FB41EC190B674890ED721BBD
:10358000B0EE410AF0EE610A53EC102B9FED751B73
:1035900051EC110B08F03CF841EC1A0B53EC192BD1
:1035A00007F08CFC5C4A02F5E47203C29DED060A4A
:1035B000DFED6B0A20EE200A10EE101A084608F024
:1035C0001DFB41EC190B544890ED981BB0EE410ADD
:1035D000F0EE610A53EC102B9FED621B51EC110BC6
:1035E00008F016F841EC1A0B53EC192B07F066FCA7
:1035F000494A02F5187203C24A484068D0ED000AF1
:10360000B0EE600A03F0EAFB10EE106A304608F0F4
:10361000F5FA424AC2E9020142484068D0ED010A87
:10362000B0EE600A03F0DAFB10EE106A304608F0E4
:10363000E5FA3A4A9832C2E902012946374804F0CD
:10364000FBFDB0EE40AAF0EE60AA3B499FED472B90
:103650009FED481B08688047B0EE409AF0EE609AF4
:1036600051EC190B07F0F8FB029029462B489830D3
:1036700004F0E2FDB0EE40AAF0EE60AA2E499FED04
:103680003B2B9FED3C1B08688047B0EE409AF0EE64
:10369000609A51EC190B07F0DFFB03909DED020AD5
:1036A000DFED2F0A20EE200A10EE101A084608F06F
:1036B000A5FA41EC190B184890ED001BB0EE410A39
:1036C000F0EE610A53EC102B9FED261B51EC110B11
:1036D00007F09EFF41EC1A0B53EC192B07F0EEFBA1
:1036E0000D4A03C29DED030ADFED1D0A20EE200AFC
:1036F00010EE101A084608F081FA41EC190B064842
:1037000090ED261BB0EE410AF0EE610A36E00000B3
:10371000000000000000000030000020F801002040
:10372000280300205409002030080020E00A00206F
:103730000000000000407F40E00900200000000081
:1037400000408F40000000000000344000000000F6
:1037500058040020000034430000B443000034C388
:10376000CDCCCC3D000000C0CCCCEC3F0000002014
:10377000FB21E9BF00000020FB21E93F53EC102BA7
:103780001FED081B51EC110B07F042FF41EC1A0B27
:1037900053EC192B07F092FB934A03C293484068FD
:1037A000D0ED020AB0EE600A03F018FB10EE106ACA
:1037B000304608F023FA8E4AC2E90201A2F53E70B3
:1037C00090EDC00B8DED080B90EDC02BB0EE420AD2
:1037D000F0EE620A90EDBE2BB0EE421AF0EE621AE5
:1037E00053EC102B51EC110B08F01EF941EC190BA6
:1037F0009FED800B53EC102B08F008F813D27A4899
:10380000983890EDC01BB0EE410AF0EE610A9FEDD2
:103810007B1B53EC112B51EC100B07F04FFB744A40
:10382000C2E902012FE07048983890EDC02BB0EE4D
:10383000420AF0EE620A90EDBE2BB0EE421AF0EEB4
:10384000621A53EC102B51EC110B08F0EDF841EC1F
:10385000190B9FED6C0B53EC102B07F09DFE12D251
:103860006148983890EDC01BB0EE410AF0EE610A55
:103870009FED621B53EC112B51EC100B08F0D4F8A8
:103880005B4AC2E902012946594804F0D5FCB0EE72
:1038900040AAF0EE60AA5D491FED4C2B1FED4B1BBB
:1038A00008688047B0EE409AF0EE609A51EC190B30
:1038B00007F0D2FA0490564A1268D088544AD16868
:1038C00088470446022C64D09DED080B4648983882
:1038D00080EDBE0B4E490968C88807F004FE41EC34
:1038E0001F0B1FED6D0B53EC102B07F0C5FF41ECC8
:1038F0001E0B07F0B1FA08EE900A4449F2EE040AF2
:10390000B0EE680A4868804710EE107A384608F032
:1039100075F941EC1D0B1FED770B53EC102B07F0E5
:1039200089FB41EC1C0B1FED790B53EC102B07F0BE
:103930006FFE41EC1B0B07F08FFA01909DED010A21
:1039400003F04CFA5FED7A0A20EE200A10EE106ABE
:10395000304608F053F941EC190B2348983890EDA4
:103960004C1BB0EE410AF0EE610A53EC102B1FED38
:10397000831B51EC110B07F04BFE41EC1A0B53EC7F
:10398000192B07F09BFA184A983A02F5987203C26D
:1039900027E09DED040A5FED8E0A20EE200A10EE6E
:1039A000101A084608F02AF941EC190B0E4898380D
:1039B00090ED4C1BB0EE410AF0EE610A53EC102B77
:1039C0001FED981B51EC110B07F022FE41EC1A0B76
:1039D00053EC192B07F072FA034A983A02F59872E1
:1039E00003C200BFC6E40000C80000205409002044
:1039F0002803002000000060FB2109400000006057
:103A0000FB21194000000060FB2109C0E0090020F3
:103A1000E00A002010B586B0734805F04EF83C214E
:103A2000714805F0C5F8704805F072F803216E483A
:103A300005F0BEF86C4805F06BF86B4805F03DF8F2
:103A40003D21694805F0B4F8674805F061F80024A5
:103A500009E0654805F085F804A90855624804F0B6
:103A6000AEFF601CC4B2052CF3DB5F4805F079F8AB
:103A70008DF815005C4805F005F85B4804F0DFFFA1
:103A80009DF811009DF8101040EA012000B240425C
:103A900000EE100AB8EEC00A5448406880ED030AF0
:103AA0009DF813009DF8121040EA012000B2404238
:103AB00000EE100AB8EEC00A4C48406880ED050AD6
:103AC0009DF815009DF8141040EA012000B200EEA8
:103AD000100AB8EEC00A4548406880ED040A434821
:103AE000406800F10C014148406800F10C0291ED82
:103AF000021AD1ED010A91ED000A3D48144603F087
:103B00008AFE84ED000AC4ED010A84ED021A01A8C0
:103B100004F0B4FE3548406890ED030A334840682D
:103B2000D0ED090A30EE600A30484068D0ED060A50
:103B300080EE201A8DED011A2C48406890ED040AA1
:103B40002A484068D0ED0A0A30EE600A27484068EB
:103B5000D0ED070A80EE201A8DED021A2348406846
:103B600090ED050A21484068D0ED0B0A30EE600A5E
:103B70001E484068D0ED080A80EE201A8DED031A29
:103B80009DED010A20EE000ADDED020A9DED021A0C
:103B900000EE810ADDED030A9DED031A00EE810AB5
:103BA0001248406880ED0C0A10484068D0ED0C0ABD
:103BB000B7EE001A30EEC10AF0EEC00A9FED0D0A12
:103BC000F4EEC00AF1EE10FA08D20020074908709E
:103BD0000846406801A90EC90EC002E00120034951
:103BE000087006B010BD00000C1100202C0A002047
:103BF00018110020CDCC4C3E10B501F0BBFB01F0FC
:103C00004FFC01F08FFE10BD00B589B001210846C0
:103C1000FCF70AFF4FF08040FDF74CF94FF4FA40F3
:103C2000029053480068400800EE100AB8EE400ABF
:103C30009FED501AC0EE010A9FED4F0A80EE801AE8
:103C4000BCEEC10A10EE100A401E80B2ADF80400AE
:103C50000020ADF80C00ADF8060001A94FF080403F
:103C6000FDF7FCFB6020ADF810000120ADF812005C
:103C70004FF4FA6006900020ADF81C0004A94FF044
:103C80008040FDF711FB0821C806FDF75DFB04A984
:103C90004FF08040FDF762FB0821C806FDF79AFB54
:103CA00001218807FDF7E8F801218807FDF7F6F8FC
:103CB00001210220FCF7B8FE3048FDF7FBF84FF475
:103CC000FA4002902A480068400800EE100AF8EE18
:103CD000400A9FED281A80EE810ADFED270A80EE68
:103CE000201ABCEEC10A10EE100A401E80B2ADF8D8
:103CF00004000020ADF80C00ADF8060001A91F4833
:103D0000FDF7ACFB6020ADF810000120ADF812000B
:103D10004FF4FA6006900020ADF81C0004A9174883
:103D2000FDF71AFA08211548FDF754FA04A91348BB
:103D3000FDF75AFA08211148FDF7A8FA04A90F481F
:103D4000FDF7B2FA08210D48FDF7FEFA04A90B4869
:103D5000FDF704FB08210948FDF73CFB012107485A
:103D6000FDF78AF801210548FDF798F809B000BD74
:103D7000900B002000007A420000FA460004004048
:103D800010B52DED048B84B0044601A804F076FD37
:103D9000A14890F8FC0801280DD1A04804F0D8FCF7
:103DA0009E48983004F0D4FC9D4804F0D1FC04B047
:103DB000BDEC048B10BD984890F8000950B99748A5
:103DC00004F0C6FC9548983004F0C2FC944804F016
:103DD000BFFCECE7904890F80009012807D18F4814
:103DE00004F0B6FC8D48983004F0B2FCB0E08A488C
:103DF00090F800090228F9D18A4890ED030A10EEE4
:103E0000101A084607F0FAFE41EC180B86499FEDA0
:103E1000872B9FED881BB0EE480AF0EE680A086811
:103E200080477E4880ED020B214604F005FAB0EE93
:103E3000409AF0EE609A7C499FED7C2B9FED7D1BB4
:103E400008688047B0EE408AF0EE608A51EC180BAB
:103E500007F002F801909DED010ADFED780A20EEEF
:103E6000200A10EE101A084607F0C8FE41EC180BA5
:103E7000694890EDE41BB0EE410AF0EE610A53ECA4
:103E8000102B9FED6F1B51EC110B07F0C1FB41ECA8
:103E9000190B53EC182B07F011F85F4A02F5647206
:103EA00003C2604890ED040A10EE101A084607F0AD
:103EB000A5FE41EC180B5C499FED5C2B9FED5D1B53
:103EC000B0EE480AF0EE680A086880475348983018
:103ED00080ED020B214604F0AFF9B0EE409AF0EE0F
:103EE000609A51499FED512B9FED521B0868804706
:103EF000B0EE408AF0EE608A51EC180B06F0ACFF91
:103F000002909DED020ADFED4D0A20EE200A10EE30
:103F1000101A084607F072FE41EC180B4A4890ED63
:103F20000A1BB0EE410AF0EE610A53EC102B9FED34
:103F3000441B51EC110B07F06BFB41EC190B53ECDC
:103F4000182B06F0BBFF0A4601463F48C0E90A129B
:103F5000314890F80009012804D02F4890F8000952
:103F6000022856D12F4890ED050A10EE101A084687
:103F700007F044FE41EC180B2B499FED342B9FEDCD
:103F8000351BB0EE480AF0EE680A086880472448FE
:103F900080ED020B214604F04FF9B0EE409AF0EEAE
:103FA000609A21499FED2D2B9FED2E1B08688047BD
:103FB000B0EE408AF0EE608A51EC180B06F04CFF30
:103FC00003909DED030ADFED1D0A20EE200A10EE9E
:103FD000101A084607F012FE41EC180B1A4890ED33
:103FE000301BB0EE410AF0EE610A53EC102B9FED4E
:103FF000141B51EC110B07F00BFB41EC190B53ECAC
:10400000182B06F05BFF0A460146034800F598604E
:1040100006C000BFCBE6000030000020880500206D
:10402000B806002088090020E009002000000000F8
:10403000000059C00000000000005940CDCC4C3FAA
:10404000000000809999C93F300400200000000062
:10405000000044C0000000000000444000000000D8
:1040600000004EC00000000000004E4001B598B0B6
:1040700015A804F003FC12A804F000FCFE4890F818
:10408000FC08012835D1FD4804F062FBFB4898305C
:1040900004F05EFBFA4804F05BFBF9483030F94B62
:1040A0000ECB70300EC0F448D0F8F008109007F036
:1040B000A5FD0A460146F04800F5E46006C0EE485A
:1040C000D0F8F408109007F099FD0A460146EA4836
:1040D00000F5F76006C0E848D0F8F808109007F03F
:1040E0008DFD0A460146E6485038C0E9141219B061
:1040F00000BDE14890F8000958BBE2480068109004
:1041000007F07CFD0A460146DB4800F5E46006C086
:10411000DC484068109007F071FD0A460146D64819
:1041200000F5F76006C0D7488068109007F066FD7C
:104130000A460146D2485038C0E91412E03804F06B
:1041400007FBCE48983004F003FBCD4804F000FB99
:10415000CDE7C94890F80009012807D1C74804F005
:10416000F7FAC648983004F0F3FAEAE2C24890F849
:1041700000090228F9D1C04890F8FF0830B9C048BA
:10418000503890ED3B0A8DED110A05E0BE484068BD
:1041900090ED020A8DED110ABC48006800880E906F
:1041A000BA48C0680D90DDE90D1088471090B748F7
:1041B000006840880E90B548C0680D90DDE90D108C
:1041C00088470F90109802283FD0B04800680088B8
:1041D000039007F088F99FEDAE0B53EC102BCDE95F
:1041E00004019DED040B51EC100B07F01DFC9FED3D
:1041F000AA0B53EC102BCDE906019DED060B51ECFB
:10420000100B06F017FF9FEDA60B53EC102BCDE91A
:1042100008019DED080B51EC100B07F0F9F99FED2B
:10422000A20B53EC102BCDE90A019DED0A0B51ECCA
:10423000100B07F0EDF9CDE90C019DED0C0B51ECE5
:10424000100B06F009FE159003E09FED990A8DED25
:10425000150A0F9802283FD08C48006840880390C8
:1042600007F041F99FED8A0B53EC102BCDE90401C7
:104270009DED040B51EC100B07F0D6FB9FED860B68
:1042800053EC102BCDE906019DED060B51EC100B04
:1042900006F0D0FE9FED820B53EC102BCDE9080108
:1042A0009DED080B51EC100B07F0B2F99FED7E0B62
:1042B00053EC102BCDE90A019DED0A0B51EC100BCC
:1042C00007F0A6F9CDE90C019DED0C0B51EC100B9C
:1042D00006F0C2FD169003E09FED750A8DED160AFB
:1042E0009DED160A8DED0E0A9DED150A8DED0D0A58
:1042F0007048C0680C909DED111ADDED0E0A9DED21
:104300000D0A80478DED150ACDED160A8DED171AB1
:104310005B48503890ED3C0ADFED670A30EE600AEA
:104320008DED090A099807F069FCCDE90C015448A4
:10433000503890ED3C0ADFED600A30EE200A8DED3A
:10434000090A099807F05AFCCDE90A015B4890ED8B
:10435000C80B8DED080B5748006807909DED0C2B9E
:104360009DED0A1B9DED080B8047544880EDC80B5E
:104370004148D0F8F008059007F040FC9FED500B45
:1043800053EC102BCDE906019DED060B51EC100B03
:1043900007F04AFBCDE90C013748D0F8F00805904A
:1043A00007F02CFC9FED460B53EC102BCDE90601DA
:1043B0009DED060B51EC100B06F080FDCDE90A01D6
:1043C00030480068079007F019FCCDE9080139482A
:1043D000006807909DED0C2B9DED0A1B9DED080BD1
:1043E0008047264880ED020B189903F025FF8DEDDC
:1043F0000A0B304800689FED342B9FED2B1B099072
:104400009DED0A0B80478DED0C0B9DED0C0B51ECD7
:10441000100B06F021FD12909DED150AB5EEC00AB5
:10442000F1EE10FA6DD0174800680E9007F0E6FB29
:104430000A460146104800F5E46006C09DED150AE5
:10444000DFED230A20EE200A8DED090A099807F016
:10445000D5FBCDE90C01194890ED560B8DED080BFD
:104460009DED080B53EC102B9FED1A0B51EC100B2C
:1044700007F0CEF832E000003000002050070020A6
:10448000800800208809002054090020E00A00204C
:104490000000000000407F400000000000408F400E
:1044A0000000000000000040000000000000594033
:1044B00000000000E009002000007A4430040020E1
:1044C000000000000070974000000000000059C08C
:1044D000CDCCCC3D000000C0CCCCEC3FCDE90A01F6
:1044E0009DED0C0B53EC102B9DED0A0B51EC100BBA
:1044F00006F0E4FC0A460146FE4800F5AB6006C043
:104500002DE09DED120A5FED0E0A20EE200A8DEDE2
:10451000090A099807F072FBCDE90C01F64890ED05
:10452000560B8DED080B9DED080B53EC102B1FED7A
:10453000170B51EC100B07F06BF8CDE90A019DED5C
:104540000C0B53EC102B9DED0A0B51EC100B06F0ED
:10455000B5FC0A460146E74800F5AB6006C0E748EF
:1045600090ED010A5FED2C0A30EE600A8DED090A2C
:10457000099807F043FBCDE90C01E04890ED010AF2
:104580005FED330A30EE200A8DED090A099807F035
:1045900035FBCDE90A01D84890EDEE0B8DED080B07
:1045A000D748006807909DED0C2B9DED0A1B9DEDF3
:1045B000080B8047D04880EDEE0BCE48D0F8F408C9
:1045C000059007F01BFB1FED420B53EC102BCDE9C0
:1045D00006019DED060B51EC100B07F025FACDE915
:1045E0000C01C448D0F8F408059007F007FB1FED54
:1045F0004C0B53EC102BCDE906019DED060B51EC55
:10460000100B06F05BFCCDE90A01BE48406807903C
:1046100007F0F4FACDE90801B948006807909DED6C
:104620000C2B9DED0A1B9DED080B8047B64880EDD5
:10463000020B189903F000FE8DED0A0BB0480068DC
:104640001FED5F2B1FED681B09909DED0A0B804746
:104650008DED0C0B9DED0C0B51EC100B06F0FCFBE3
:1046600013909DED160AB5EEC00AF1EE10FA39D09E
:10467000A44840680E9007F0C1FA0A4601469D48DA
:1046800000F5F76006C09DED160A5FED6F0A20EE9B
:10469000200A8DED090A099807F0B0FACDE90C015E
:1046A000954890ED7C0B8DED080B9DED080B53ECC0
:1046B000102B1FED780B51EC100B06F0A9FFCDE984
:1046C0000A019DED0C0B53EC102B9DED0A0B51ECE8
:1046D000100B06F0F3FB0A460146864800F5BE6063
:1046E00006C02DE09DED130A5FED870A20EE200A3B
:1046F0008DED090A099807F081FACDE90C017E4891
:1047000090ED7C0B8DED080B9DED080B53EC102B01
:104710001FED900B51EC100B06F07AFFCDE90A016A
:104720009DED0C0B53EC102B9DED0A0B51EC100B77
:1047300006F0C4FB0A4601466E4800F5BE6006C09E
:1047400000BF6C4890F80009012804D0694890F82F
:10475000000902287ED16748D0F8F8080B9007F0CE
:104760004DFACDE90E01654890ED020ADFED670ACA
:1047700030EE200A8DED0B0A0B9807F03FFACDE9D9
:104780000C016148483090ED140B8DED0A0B5C482C
:10479000006809909DED0E2B9DED0C1B9DED0A0B05
:1047A00080475948483080ED140B5248D0F8F8083B
:1047B000099007F023FACDE90E014E48D0F8F80829
:1047C000079007F01BFA9FED520B53EC102BCDE92D
:1047D00008019DED080B51EC100B06F06FFBCDE9C5
:1047E0000C0148488068099007F008FACDE90A01F1
:1047F0004348006809909DED0E2B9DED0C1B9DED2F
:104800000A0B80474048983080ED020B189903F05E
:1048100013FD8DED0C0B3A4800689FED3F2B9FED8B
:10482000401B0B909DED0C0B80478DED0E0B9DED0D
:104830000E0B51EC100B06F00FFB14903A48006879
:1048400080880F903848C0680E90DDE90E108847C8
:10485000109000E0CCE01098022873D029488068BE
:104860000F9007F0CBF90A46014627484830C0E9C7
:1048700014122D4800688088019006F034FE1FED68
:10488000FC0B53EC102BCDE902019DED020B51EC1A
:10489000100B07F0C9F89FED250B53EC102BCDE959
:1048A00004019DED040B51EC100B06F0C3FB9FEDD2
:1048B000210B53EC102BCDE906019DED060B51ECBD
:1048C000100B06F0A5FE9FED160B53EC102BCDE957
:1048D00008019DED080B51EC100B06F099FE9FEDC1
:1048E000170B53EC102BCDE90A019DED0A0B51EC8F
:1048F000100B28E0300000203004002020090020A8
:10490000E009002088090020E80700200000FA43A1
:10491000000000000070874000000000000044C05C
:104920000000000000004440E00A002000000000F9
:1049300000408F400000000000000040000000A088
:104940009999B93F25E006F063FECDE90E012A48AA
:1049500090EDA20B8DED0A0B9DED0A0B53EC102B85
:104960009FED260B51EC100B06F052FECDE90C0129
:104970009DED0E0B53EC102B9DED0C0B51EC100B21
:1049800006F09CFA0A4601461E4800F5D16006C0B2
:104990002DE09DED140ADFED1C0A20EE200A8DEDBE
:1049A0000B0A0B9807F02AF9CDE90E01124890ED99
:1049B000A20B8DED0A0B9DED0A0B53EC102B9FED16
:1049C0000F0B51EC100B06F023FECDE90C019DED11
:1049D0000E0B53EC102B9DED0C0B51EC100B06F055
:1049E0006DFA0A460146074800F5D16006C000BFCF
:1049F00000BFFFF77CBB000030040020000000C0B7
:104A0000CCCCEC3F30000020CDCCCC3D0D48008814
:104A10000D4908800B48408848800A488088888073
:104A20000A4800880A2803DD00200949087407E0C5
:104A300006480088401C0549088001200449087484
:104A400070470000601200206C120020DC0A002079
:104A5000E00A002070B504460D4607200F49087093
:104A6000AA2048708870EF20C8700220087108469C
:104A700045718C710026012005E00849095C31442C
:104A8000CEB2411CC8B20728F7DB0448C6710448FF
:104A9000082142680148904770BD0000380C002092
:104AA000380B002070B506460C4600250A48C07930
:104AB000A04201DA002070BD002509E07019074905
:104AC0008A680549904708B90020F4E7681C85B258
:104AD000A542F3DB0120EEE7CC170020480B0020B5
:104AE00031B52DED040B2DED108B86B005469FEDF5
:104AF000890AB0EE40FA9FED870AF0EE408A9FEDFA
:104B0000850A8DED040A002483480088401C8249F0
:104B10000880284606F0E7FC41EC1A0B9FED7F0B5E
:104B200053EC102B06F086FA41EC190B06F094F9C1
:104B300008EE100A7B48006890ED040A10EE101A87
:104B4000084607F05BF841EC1A0B9FED770B53EC2E
:104B5000102B06F05DFD41EC190B06F07DF9049079
:104B60009DED180AF0EE40FA7148D0ED020A9DED75
:104B7000040A30EE600AF0EE408A9FED6E0A68EE9D
:104B8000800A6D4890ED000A00EE880A80ED000A68
:104B90009FED6A0A68EE800A694890ED000A00EE0F
:104BA000880A80ED000A9FED670A68EE800A664871
:104BB00090ED000A00EE880A80ED000A5C4890ED56
:104BC000080A624880ED000A5B4890ED000A3FEE5B
:104BD000800A574880ED080A90ED080A5B48D0ED3E
:104BE000000A30EE200A20EE080A10EE101A0846DD
:104BF00007F004F841EC1A0B9FED550B53EC102B0A
:104C000006F018FA41EC190B06F026F90FEE100A1F
:104C100018EE100A06F0F2FF41EC1C0B1FEE100A12
:104C200006F0ECFF9FED4C0B53EC102BCDE900018F
:104C30009DED000B51EC100B06F0EAFC41EC1D0B56
:104C40003B4890ED050A10EE101A084606F0D6FF14
:104C500041EC1E0B53EC1D2B06F030F953EC1C2BD2
:104C6000CDE902019DED020B51EC100B06F0D0FCDA
:104C700041EC1A0B3A48006806F0C0FF41EC1B0BF0
:104C800053EC1A2B06F01AF941EC190B06F0E4F874
:104C900033490860084690ED000A2B48D0ED000A21
:104CA00030EE200A224880ED020A2E4890ED000ADC
:104CB00030EE0F0A80ED000A90ED000A2048D0ED9A
:104CC000000A30EE200A1A4880ED050A12480088D2
:104CD000012819DB3C240CE0601E234901EB800015
:104CE00090ED000A084600EB840080ED000A601E8B
:104CF00084B2002CF0DC0E4890ED020A1A4880EDD8
:104D0000000A00200449088006B0BDEC108B05B0F5
:104D100030BD000000000000CC09002000000000B1
:104D200000408F40780A0020000000000000594039
:104D3000880900206F12833DB40900208FC2F53E20
:104D4000B8090020CDCC4C3FBC090020C009002090
:104D50000000000000000040000000000000E03FF4
:104D6000C8090020C4090020180E00201CB501212C
:104D70000846FBF749FE01210220FBF745FEC8204B
:104D8000009002208DF8040003208DF8050000201B
:104D90008DF8060001208DF8070069461A48FBF7D8
:104DA00076FD012203211848FBF7B9FD02220621F6
:104DB0001548FBF7B4FD022207211348FBF7AFFDAE
:104DC00040F20340009002208DF8040003208DF88B
:104DD000050000208DF8060001208DF807006946C7
:104DE0000A48FBF754FD022200210848FBF797FD13
:104DF000022201210548FBF792FD01220A21034806
:104E0000FBF78DFD1CBD00000000024000040240C5
:104E10003EB5044668469FED3E0A80ED000A9FEDD0
:104E20003C0A80ED010A9FED3A0A80ED020A00BFBC
:104E3000384A526892ED000AF0EE402A354A52682C
:104E400092ED010AB0EE402A324A526892ED020A0F
:104E5000F0EE401A304A526802F118002F4A916869
:104E600090ED021AD0ED010A90ED000A88478DED11
:104E7000000ACDED010A8DED021A9DED000ADFED6D
:104E8000280A80EE201A8DED001A9DED000ADFED54
:104E9000250A20EE200A8DED000A9DED010ADFEDC6
:104EA000200A80EE201A8DED011A9DED010ADFED3A
:104EB0001D0A20EE200A8DED010A9DED020ADFEDAC
:104EC000180A30EE600A8DED020A9DED020ADFED50
:104ED000140A80EE201A8DED021A9DED020ADFED14
:104EE000110A20EE200A8DED020A9DED021ADDED79
:104EF000010A9DED000A2046FFF7F2FD9DED021A22
:104F0000DDED010A9DED000A204602F015FA3EBDD6
:104F10000000000054090020100A0020E0090020D1
:104F200000F07F45000075443EB5002002900190DE
:104F30000124AA222146641CBA4842542146641C1A
:104F40004254A1222146641C425400222146641C82
:104F50004254B54890ED020A8DED000A9DF80020FC
:104F60002146641CAF4842549DF801202146641C30
:104F700042549DF802202146641C42549DF80320AF
:104F80002046611CCCB2A7490A54A848406890ED5D
:104F9000000A8DED000A9DF800202146601CC4B275
:104FA000A04842549DF801202046611CCCB29D4986
:104FB0000A549DF802202046611CCCB299490A543B
:104FC0009DF803202046611CCCB296490A549748AC
:104FD000406890ED010A8DED000A9DF80020204602
:104FE000611CCCB28F490A549DF801202046611CF7
:104FF000CCB28C490A549DF802202046611CCCB2E8
:1050000088490A549DF803202046611CCCB285498A
:105010000A548648406890ED020A8DED000A9DF81A
:1050200000202046611CCCB27E490A549DF8012024
:105030002046611CCCB27B490A549DF802202046D0
:10504000611CCCB277490A549DF803202046611CAC
:10505000CCB274490A547448D0E90421104606F0D1
:10506000F8FD00909DF800202046611CCCB26D49EF
:105070000A549DF801202046611CCCB269490A54AB
:105080009DF802202046611CCCB266490A549DF866
:1050900003202046611CCCB262490A54644840682F
:1050A00090ED070A8DED000A9DF800202046611C56
:1050B000CCB25C490A549DF801202046611CCCB258
:1050C00058490A549DF802202046611CCCB255492B
:1050D0000A549DF803202046611CCCB251490A5461
:1050E0005348406890ED080A8DED000A9DF80020B5
:1050F0002046611CCCB24B490A549DF80120204641
:10510000611CCCB247490A549DF802202046611C1C
:10511000CCB244490A549DF803202046611CCCB20D
:1051200040490A544248406890ED090A8DED000A52
:105130009DF800202046611CCCB23A490A549DF8E3
:1051400001202046611CCCB236490A549DF8022049
:105150002046611CCCB233490A549DF803202046F6
:10516000611CCCB22F490A543148406890ED0A0ABC
:105170008DED000A9DF800202046611CCCB2294923
:105180000A549DF801202046611CCCB225490A54DE
:105190009DF802202046611CCCB222490A549DF899
:1051A00003202046611CCCB21E490A5420484068A6
:1051B00090ED0B0A8DED000A9DF800202046611C41
:1051C000CCB218490A549DF801202046611CCCB28B
:1051D00014490A549DF802202046611CCCB21149A2
:1051E0000A549DF803202046611CCCB20D490A5494
:1051F000601F08710025012005E00A49095C294467
:10520000CDB2411CC8B2A042F7DB2046611CCCB233
:1052100004490D54601E0870064821464268014842
:1052200090473EBD380C0020780B00205409002028
:10523000100A0020380B002010B52DED028B04461B
:1052400040490968888806F04EF941EC180B9FED3B
:105250003E0B53EC102B06F0D9FA09D201203C4941
:10526000096808703B48C1684FF40050884716E051
:1052700034490968888806F036F941EC180B9FED2F
:10528000320B53EC102B06F087F908D2002030497E
:10529000096808702F4881684FF4005088472C48EF
:1052A00000684078012835D100202B490880254925
:1052B0000968488806F017F941EC180B9FED270B99
:1052C00053EC102B06F0A2FA20D21E490968088878
:1052D00006F009F941EC180B9FED220B53EC102B53
:1052E00006F094FA12D21A480068807870B91F4804
:1052F000008820441D49088008460088B0F5FA6FF0
:1053000018DD002012490968487013E00020174991
:1053100008800FE00E4800688078012806D00C480D
:105320000068007812490978884203D001200849B2
:10533000096848700648006800780D490870BDEC9F
:10534000028B10BDE00A0020000000000038A840D9
:10535000F4090020C00A0020D60900200000000047
:105360000014AE400000000000908A40D8090020E0
:10537000DC0900201FB53C22D021464803F0BFFACB
:10538000C0B28DF808003B22D021424803F0B7FAA2
:10539000C0B28DF809009DF808009DF8091040EA98
:1053A000012000B2ADF800003E22D021394803F0C0
:1053B000A6FAC0B28DF80A003D22D021354803F08C
:1053C0009EFAC0B28DF80B009DF80A009DF80B10F4
:1053D00040EA012000B2ADF802004022D0212D4861
:1053E00003F08DFAC0B28DF80C003F22D02129487D
:1053F00003F085FAC0B28DF80D009DF80C009DF801
:105400000D1040EA012000B2ADF80400BDF9000023
:1054100000EE100AB8EEC00A1F4880ED000ABDF980
:10542000020000EE100AB8EEC00A1B4880ED010A27
:10543000BDF9040000EE100AB8EEC00A164880ED6F
:10544000020A90ED000AD0ED0C0A30EE600A80ED01
:10545000060A90ED010AD0ED0D0A30EE600A80EDEB
:10546000070A90ED020AD0ED0E0A30EE600A80EDD8
:10547000080A90ED081AD0ED070A90ED060A0748D1
:1054800001F0E4FF044880ED060AC0ED070A80ED54
:10549000081A1FBD28100020AC1000203410002076
:1054A0001FB54422D021464803F029FAC0B28DF836
:1054B00008004322D021424803F021FAC0B28DF8FF
:1054C00009009DF808009DF8091040EA012000B28B
:1054D000ADF800004622D021394803F010FAC0B2DE
:1054E0008DF80A004522D021354803F008FAC0B2F1
:1054F0008DF80B009DF80A009DF80B1040EA012082
:1055000000B2ADF802004822D0212D4803F0F7F98F
:10551000C0B28DF80C004722D021294803F0EFF9E2
:10552000C0B28DF80D009DF80C009DF80D1040EAFA
:10553000012000B2ADF80400BDF9000000EE100A31
:10554000B8EEC00A1F4880ED030ABDF9020000EE64
:10555000100AB8EEC00A1B4880ED040ABDF9040029
:1055600000EE100AB8EEC00A164880ED050A90ED6C
:10557000030AD0ED0F0A30EE600A80ED090A90EDC3
:10558000040AD0ED100A30EE600A80ED0A0A90EDB0
:10559000050AD0ED110A30EE600A80ED0B0A90ED9D
:1055A0000B1AD0ED0A0A90ED090A074802F033F908
:1055B000044880ED090AC0ED0A0A80ED0B1A1FBDF0
:1055C00028100020AC1000207810002070B50024B6
:1055D00035E01C4803F071FAEE211A4803F0E8FAAE
:1055E000184803F095FAA02000EB4400C1B215481A
:1055F00003F0DEFA134803F08BFA124803F05DFA69
:10560000EF21104803F0D4FA0E4803F081FA0D4858
:1056100003F0A7FA05460B4803F0D1F9094803F057
:10562000A0FA0646074803F02DFA064803F007FAE9
:1056300046EA0520044921F81400601CC4B2062C77
:10564000C7DD70BDA0110020C811002000B587B0D3
:1056500001210420FBF7E8F92848FBF72BFC4FF663
:10566000FF7002902920ADF804000020ADF80C0076
:10567000ADF8060001A92148FBF7F0FE0020ADF8C7
:1056800012000120ADF814000020ADF81600ADF8AE
:105690001800ADF8100004A91848FBF714FD042009
:1056A000ADF8100004A91548FBF70DFD0820ADF872
:1056B000100004A91148FBF706FD0C20ADF81000FE
:1056C00004A90E48FBF7FFFC01210C48FBF7E6FBA1
:1056D000012202210948FBF736FD01220421074877
:1056E000FBF731FD012208210448FBF72CFD0122C4
:1056F00010210248FBF727FD07B000BD000800405D
:105700002DE9F84306460C469146344847794FF058
:105710000008002560E03248304982680DF1010040
:10572000904720B92D494F710020BDE8F8839DF8BE
:105730000000AA284CD19DF80100AF2848D1284884
:10574000264982684846904728B1254823498268FF
:105750002046904718B921494F710020E5E705F12F
:10576000AA00C5B205F1AF00C5B299F800002844FF
:10577000C5B220782844C5B24FF0000812E006EB0D
:10578000080017498A681549904718B913494F719D
:105790000020CAE716F808002844C5B208F1010045
:1057A00000F0FF0820784045E9DC217888190C4991
:1057B0008A680A49904718B908494F710020B4E730
:1057C0002078305CA84201D10120AEE70020ACE790
:1057D0009DF801008DF800009DE70000CC17002027
:1057E000480B00201CB50020019000900024484880
:1057F0006A4601A9C3684748984701287ED14648B0
:10580000D0E90010491C40F10000434AC2E90010F1
:1058100040489DF80410445C9DF80000302816D0E4
:1058200006DC012809D002280BD010286DD109E030
:1058300031281FD0A12868D13CE0012037490870E9
:1058400064E063E010212046FFF704F95EE0314890
:1058500040783049097840EA012000B2002804DD90
:1058600001202F490968487003E000202C4909688D
:10587000487000BF274840782649097840EA01204F
:1058800000B2002804DD002025490968087010E0F6
:10589000204840781F49097840EA012000B220B929
:1058A00001201F490968087003E002201C490968AB
:1058B000087000BF174840781649097840EA01206F
:1058C00000B21749C8601348C0781249897840EA85
:1058D000012000B2124908610E4840790D4909794A
:1058E00040EA012000B20E4948610A48C0790949DE
:1058F000897940EA012000B2074901E007E004E0AD
:105900000968401A0649886100E000BF00BF1CBD5D
:10591000380B0020A80C002028000020100A0020CE
:10592000F409002010B57748007800F0010048B96C
:10593000744803F0ECF928B1734802F09FFF7148F6
:10594000AFF300807148007800F0010048B96F485B
:1059500003F0DDF928B16E4802F090FF6B48AFF319
:1059600000806C480078012868D16B480068E0B975
:105970009FED6A0A6A4880ED0C0A9FED680A80ED87
:105980000D0A9FED660A80ED0E0A9FED640A80ED18
:105990000F0A9FED620A80ED100A9FED600A80ED0C
:1059A000110A01205C49086010BD5B48006840F6A0
:1059B000B831884243DC58480068401C56490860AA
:1059C000514890ED000A5648D0ED000A30EE200A0A
:1059D0004D4880ED000A90ED010A5148D0ED010AD2
:1059E00030EE200A484880ED010A90ED020A4C484A
:1059F000D0ED020A30EE200A434880ED020A444806
:105A000090ED000A4648D0ED030A30EE200A4048E7
:105A100080ED000A90ED010A4148D0ED040A30EE15
:105A2000200A3B4880ED010A90ED020A3C48D0ED87
:105A3000050A30EE200A364880ED020A60E00020B8
:105A400035490860334908702F4890ED000ADFEDB2
:105A5000350A80EE201A324880ED0C1A2A4890ED63
:105A6000010ADFED300A80EE201A2D4880ED0D1A74
:105A7000254890ED020ADFED2B0A80EE201A9FEDFB
:105A80002A0A31EE400A264880ED0E0A204890EDA1
:105A9000000ADFED240A80EE201A214880ED0F1A5B
:105AA0001B4890ED010ADFED1F0A80EE201A1C480A
:105AB00080ED101A164890ED020ADFED1A0A80EE0A
:105AC000201A174880ED111A9FED140A0E4880ED38
:105AD000000A9FED120A80ED010A9FED100A80ED89
