:020000040800F2
:10000000D81E00206D020008750900086D0900085F
:100010007109000887060008DB18000800000000CE
:100020000000000000000000000000008D0B000830
:10003000F906000800000000050A0008910B0008FE
:10004000870200088702000887020008870200086C
:10005000870200088702000887020008870200085C
:10006000870200088702000887020008870200084C
:10007000870200088702000887020008870200083C
:10008000870200088702000887020008870200082C
:10009000870200088702000887020008870200081C
:1000A000870200088702000887020008870200080C
:1000B0008702000887020008110C00088702000868
:1000C00087020008870200088702000887020008EC
:1000D00087020008CD1500084116000887020008B5
:1000E00087020008870200088702000887020008CC
:1000F00087020008870200088702000887020008BC
:100100008702000887020008290E000887020008FD
:10011000E11400088702000887020008870200082F
:10012000870200088702000887020008870200088B
:10013000870200088702000887020008870200087B
:10014000870200088702000887020008870200086B
:10015000870200088702000887020008870200085B
:10016000870200088702000887020008870200084B
:10017000870200088702000887020008870200083B
:10018000870200088702000800F002F800F05EF81D
:100190000AA090E8000C82448344AAF10107DA45E2
:1001A00001D100F053F8AFF2090EBAE80F0013F0D6
:1001B000010F18BFFB1A43F001031847D4C8000011
:1001C000F4C800000A444FF0000C10F8013B13F093
:1001D000070408BF10F8014B1D1108BF10F8015BA0
:1001E000641E05D010F8016B641E01F8016BF9D193
:1001F00013F0080F1EBF10F8014BAD1C0C1B09D1EA
:100200006D1E58BF01F801CBFAD505E014F8016B5B
:1002100001F8016B6D1EF9D59142D6D370470000ED
:100220000023002400250026103A28BF78C1FBD8FF
:10023000520728BF30C148BF0B6070471FB50BF095
:10024000B4FD00F08DF81FBD10B510BD00F024F90D
:100250001146FFF7F3FF0AF0AFFD00F042F903B4D7
:10026000FFF7F2FF03BC00F043F9000009488047A4
:1002700009480047FEE7FEE7FEE7FEE7FEE7FEE788
:10028000FEE7FEE7FEE7FEE704480549054A064BA0
:1002900070470000A90B000889010008D818002049
:1002A000D81E0020D81A0020D81A002010B54C10F3
:1002B00084EA530404D54042C1F1000138BF491E0D
:1002C0001B4204D55242C3F1000338BF5B1E00F04D
:1002D00059F814F0804F04D04042C1F1000138BFFA
:1002E000491E14F0004F04D05242C3F1000338BF3E
:1002F0005B1E10BD10B5203AC0F00B80B1E818505D
:10030000203AA0E81850B1E81850A0E81850BFF4FF
:10031000F5AF5FEA027C24BFB1E81850A0E818509E
:1003200044BF18C918C0BDE810405FEA827C24BFF2
:1003300051F8043B40F8043B08BF7047D20728BF80
:1003400031F8023B48BF11F8012B28BF20F8023BCF
:1003500048BF00F8012B7047704770477047000096
:1003600070B5064C7C44064D7D4403E02068204473
:100370008047241DAC42F9D170BD000048C7000081
:100380006CC7000053EA020C00F069802DE9F04BC5
:100390004FF00006002B1FBFB3FA83F503FA05F4F4
:1003A00024FA05F65E4012BF1643B2FA82F502FA4D
:1003B00005F4C5F120051EBF22FA05FC44EA0C0431
:1003C000203556EA044C4FEA144418BF641C4FF021
:1003D00000084FF00009904271EB030C39D300295B
:1003E00019BFB1FA81F701FA07F6B0FA80F700FAFF
:1003F00007F6C7F120071EBF20FA07FC46EA0C06E5
:100400002037B6FBF4FCA7EB0507103F07F01F0BE6
:10041000CBF120060CFA0BFB2CFA06F644BFB346D0
:100420000026202FA4BF5E464FF0000B5BEA060CAF
:1004300008BF4FF0010B19EB0B09ABFB027C48EB3B
:100440000608C01B06FB02CC0BFB03CC71EB0C01B6
:10045000C1E70B46024641464846BDE8F08B13B55E
:100460004FF000004FF00001AFF30080BDE81C40EA
:10047000704710B500F008F8006810BD10B50446CC
:1004800000F002F8046010BD0048704774180020A6
:1004900000487047741800207546FFF7F9FFAE4614
:1004A00005006946534620F00700854618B020B580
:1004B000FFF7EAFEBDE820404FF000064FF00007CE
:1004C0004FF000084FF0000B21F00701AC46ACE8FC
:1004D000C009ACE8C009ACE8C009ACE8C0098D4669
:1004E00070470446AFF300802046FFF7B8FE0000D7
:1004F00001491820ABBEFEE726000200704721B17B
:10050000826842F00102826003E0826822F0010208
:10051000826070470021084A1168084A1140D0E9FA
:1005200000231A4383681A43C3681A431143044AD9
:10053000C2F804137047000004230140E030FCFFC0
:100540000020014021B1826842F48072826003E0A1
:10055000826822F480728260704721B1826842F41E
:100560000072826003E0826822F400728260704749
:1005700030B50246002000235068104C20400D7911
:100580000C6844EA05242043506090680C4C2040DD
:10059000D1E903542C438D682C434D7944EA45043A
:1005A00020439060D06A20F470000C7D641EE4B299
:1005B000234340EA0350D06230BD0000FFFEFFFC41
:1005C000FDF7FFC0F0B504460D4600200021092DBF
:1005D00011DDE068A5F10A0606EB4607072606FAD4
:1005E00007F18843A5F10A0606EB460603FA06F171
:1005F0000843E0600CE0206905EB4507072606FA92
:1006000007F1884305EB450603FA06F1084320612C
:10061000072A0FDA606B561E06EB86071F2606FABE
:1006200007F18843561E06EB860605FA06F10843D5
:10063000606322E00D2A0FDA206BD61F06EB8607D7
:100640001F2606FA07F18843D61F06EB860605FA31
:1006500006F10843206310E0E06AA2F10D0606EB04
:1006600086071F2606FA07F18843A2F10D0606EB5E
:10067000860605FA06F10843E062F0BD816841F0A4
:1006800080418160704700BFFEE721B1026842F0FF
:100690000102026003E0026822F00102026070477A
:1006A00010B500220268134B1A40CC680B68234334
:1006B0004C6923438C692343CC6923430C6A23434D
:1006C0004C6A23438C6A23434C6B23438C6B234338
:1006D0001A430260426922F00702D1E90B34234336
:1006E0001A4342610B6943604B6883608B68C36047
:1006F00010BD00003F801CF07047000001490860F9
:10070000704700000C3C024070B504460A460026C3
:10071000092502B909E0012A01D1160205E0022AE1
:1007200001D1160201E04FF4407600F09FF8054633
:10073000092D28D11548006820F44070134908603D
:1007400008460068304308600846006820F0F8005A
:1007500008600846006844F0020108430B4908603D
:100760000846006840F48030086000F07FF80546D5
:100770000648006820F00200044908600846006846
:1007800020F0F8000860284670BD0000103C0240D0
:1007900009201349096801F48031B1F5803F01D186
:1007A00001201CE00E49096801F0100109B1062082
:1007B00015E00B49096801F4807109B102200EE0CF
:1007C0000749096801F0E00109B1072007E0044981
:1007D000096801F0020109B1082000E00920704712
:1007E0000C3C02400348006840F0004001490860AA
:1007F00070470000103C024030B502460C46092507
:1008000000F034F80546092D19D10E48006820F48F
:1008100040700C4908600846006840F400700860A9
:100820000846006840F001000860146000F01EF8FF
:1008300005460448006820F0010002490860284687
:1008400030BD0000103C02400548006800F0004048
:1008500028B1044802490C39086003480860704711
:10086000103C024023016745AB89EFCD08B5092054
:100870000090FFF78DFF009002E0FFF789FF0090E6
:100880009DF800000128F8D09DF8000008BDF0B5E3
:100890000A4600210023002400BF3DE0012505FA9F
:1008A00001F3156805EA03049C4234D105684F0042
:1008B0000326BE40B543056015794E00B540066875
:1008C000354305601579012D02D01579022D16D119
:1008D00085684F000326BE40B543856055794E00BC
:1008E000B540866835438560456801268E40B5432E
:1008F0004560456896798E40B6B235434560C56817
:100900004F000326BE40B543C560D5794E00B540C3
:10091000C6683543C560491C1029BFD3F0BDF0B58A
:10092000002300244D07ED0E02FA05F3CE1000F16E
:10093000200555F826504E07F70E0F26BE40B5434A
:10094000CF1000F1200646F82750CE1000F1200508
:1009500055F8265045EA0304CE1000F1200545F86D
:100960002640F0BD418370470183704700BFFEE71A
:1009700000BFFEE77047000070B5002100230F2282
:10098000C4781CB3174C246804F4E064C4F5E06434
:10099000C4F30721C1F10404E3B20A4144789C4046
:1009A000E1B28478144021430C07210E0E4C0578E7
:1009B0006155047804F01F050124AC4005786D11E1
:1009C000AD0005F1E025C5F8004109E0047804F028
:1009D0001F050124AC40054D0678761145F82640E8
:1009E00070BD00000CED00E000E400E080E100E0FC
:1009F00002490143024A1160704700000000FA05F5
:100A00000CED00E07047000029B1064A126802436D
:100A1000044B1A6004E0034A12688243014B1A60D7
:100A2000704700003038024029B1064A126802437C
:100A3000044B1A6004E0034A12688243014B1A60B7
:100A4000704700004038024029B1064A126802434C
:100A5000044B1A6004E0034A12688243014B1A6097
:100A6000704700002038024029B1064A126802434C
:100A7000044B1A6004E0034A12688243014B1A6077
:100A8000704700004438024029B1064A1268024308
:100A9000044B1A6004E0034A12688243014B1A6057
:100AA0007047000024380240F0B5002100220024E5
:100AB000022500260223324F3F6807F00C0121B1C6
:100AC000042905D0082937D105E02E4F076036E00C
:100AD0002C4F076033E02A4F3F1F3F68C7F3805613
:100AE000274F3F1F3F6807F03F036EB1254FB7FB0D
:100AF000F3F7DFF88CC0ACF1040CDCF800C0CCF3E9
:100B0000881C07FB0CF40CE01E4FB7FBF3F7DFF873
:100B100070C0ACF1040CDCF800C0CCF3881C07FBFF
:100B20000CF4174F3F1F3F68C7F301477F1C7D0040
:100B3000B4FBF5F7076002E0124F076000BF00BF8B
:100B40000F4F3F6807F0F00109090F4F7A5C076803
:100B5000D74047600A4F3F6807F4E051890A0A4FBF
:100B60007A5C4768D7408760054F3F6807F460416B
:100B7000490B054F7A5C4768D740C760F0BD00005D
:100B8000083802400024F4009C0B0020704700004D
:100B90000448036840685A1C40F1000001490A609B
:100BA00048607047A00A002010B51548006840F45E
:100BB0007000134908601348006840F001001149B3
:100BC000086000200F49083108600E4800680E498F
:100BD00008400C4908600D48091D0860081F00689E
:100BE00020F48020091F0860002006490C310860AD
:100BF00001F0D4F84FF0006001498039086010BD61
:100C000088ED00E000380240FFFFF6FE10300024BF
:100C100010B502217C4800F045FA012836D10221A6
:100C2000794800F038F97948006800F04000402821
:100C30000DD1754800F027FA7549088072482030B8
:100C4000008840F002007049203108801EE06E48A4
:100C500000F019FA84B26E480088844205DD6C48C1
:100C60000088201A6B49088007E04FF6FF70204487
:100C700067490988401A674908806348203000881E
:100C800020F0020060492031088000BF04215E4846
:100C900000F008FA012836D104215B4800F0FBF887
:100CA0005A48006800F0800080280DD1564800F0B6
:100CB000EDF95949088054482030008840F0200060
:100CC0005149203108801EE04F4800F0DFF984B21E
:100CD00051480088844205DD4F480088201A4D495C
:100CE000488007E04FF6FF7020444B490988401ABE
:100CF0004849488044482030008820F0200042497C
:100D00002031088000BF08213F4800F0CBF90128BE
:100D10003AD108213C4800F0BEF83C48006800F495
:100D20008070B0F5807F10D1374800F0B2F93B49B0
:100D3000088035482030008840F400703249203166
:100D400008800020364908801EE02F4800F0A1F9F5
:100D500084B232480088844205DD30480088201A79
:100D60002C49888007E04FF6FF7020442B49098802
:100D7000401A2849888024482030008820F40070D8
:100D800021492031088000BF10211F4800F08AF956
:100D9000012837D110211C4800F07DF81B4800685D
:100DA00000F40070B0F5007F0DD1174800F074F921
:100DB0001C49088014482030008840F40050124933
:100DC000203108801EE0104800F066F984B2154812
:100DD0000088844205DD13480088201A0D49C88028
:100DE00007E04FF6FF7020440E490988401A094970
:100DF000C88005482030008820F400500249203186
:100E0000088000BF10BD0000000800401004024030
:100E1000F40A002058120020F60A0020F80A0020E8
:100E2000DC0A0020FA0A002010B50121104800F069
:100E300039F9012816D10F48007810B101280FD1D7
:100E400006E005F08BFF012801D10A49087008E08F
:100E500005F0B0FE012802D102200649087000E02A
:100E600000BF00BF0121024800F015F810BD0000CE
:100E7000000C0040740A002021B1028842F0800278
:100E8000028004E002884FF67F731A4002807047A8
:100E9000CA4302827047CA430282704721B1028866
:100EA00042F00102028004E002884FF6FE731A400D
:100EB0000280704710B504465548844208D101218C
:100EC0000846FFF7E1FD00210120FFF7DDFD9DE071
:100ED000B4F1804F08D101210846FFF7B5FD00218C
:100EE0000120FFF7B1FD91E04A48844208D1012179
:100EF0000220FFF7A9FD00210220FFF7A5FD85E0F4
:100F00004548844208D101210420FFF79DFD0021BE
:100F10000420FFF799FD79E04048844208D101217F
:100F20000820FFF791FD00210820FFF78DFD6DE0FF
:100F30003B48844208D101211020FFF785FD0021A4
:100F40001020FFF781FD61E03648844208D101217D
:100F50002020FFF779FD00212020FFF775FD55E0E7
:100F60003148844208D101210220FFF78DFD002184
:100F70000220FFF789FD49E02C48844209D1012174
:100F80000804FFF781FD00214FF48030FFF77CFD5E
:100F90003CE02748844209D101214804FFF774FD51
:100FA00000214FF40030FFF76FFD2FE0214884420D
:100FB00009D101218804FFF767FD00214FF480204B
:100FC000FFF762FD22E01C48844208D10121402045
:100FD000FFF73AFD00214020FFF736FD16E01748E5
:100FE000844208D101218020FFF72EFD00218020BE
:100FF000FFF72AFD0AE01248844207D1012180153B
:10100000FFF722FD0021A015FFF71EFD10BD000017
:10101000000001400004004000080040000C0040B7
:101020000010004000140040000401400040014056
:10103000004401400048014000180040001C0040EE
:1010400000200040F0B50C4615461E460021002247
:1010500000230189028B038C4FF6F8773940214336
:101060004FF6FC473A4040F201173A434FF6DD771E
:101070003B404FF6FF7707EA06172F433B430181BA
:1010800002830384F0BD0146486B70470146886BBC
:1010900070470146C86B70470146086C70470146AF
:1010A000486A704730B50246002000230024158AA4
:1010B00005EA0103958905EA010413B10CB1012089
:1010C00000E0002030BD70B505460C46208850B9C0
:1010D0002389A2886188284600F00AFDE188284615
:1010E00000F08FF925E0208804280AD12389A288FE
:1010F0006188284600F019FDE188284600F08AF949
:1011000017E0208808280AD12389A2886188284608
:1011100000F033FDE188284600F089F909E02389D1
:10112000A2886188284600F04CFDE188284600F03E
:1011300087F970BD0021018041800121818000215B
:10114000C180018170471AB183890B43838102E01A
:1011500083898B438381704770B50024002200236C
:10116000058C4FF6FE7635400584028C8388048B0F
:101170004FF68F752C40B51E2C400D882C43751EE4
:101180002A408D892A434D882A43104DA84202D017
:101190000F4DA84213D14FF6F7752A40CD892A4347
:1011A0004FF6FB752A408D882A434FF6FF652B408A
:1011B0004FF6FF552B400D8A2B434D8A2B438380DE
:1011C00004838D684563028470BD00000000014007
:1011D000000401400A460021018B4FF6F7731940C5
:1011E000114301837047000070B5002400220023E2
:1011F000058C4FF6EF7635400584028C8388048B8E
:1012000048F6FF752C404FF6FF452C400D884FF6F1
:10121000FF7606EA05252C434FF6DF752A408D89B7
:1012200006EA05152A434D8806EA05152A43154D99
:10123000A84202D0144DA8421DD14FF67F752A4016
:10124000CD894FF6FF7606EA05152A434FF6BF759E
:101250002A408D8806EA05152A434FF6FF352B40B4
:101260004FF2FF752B400D8A06EA85052B434D8A08
:1012700006EA85052B43838004838D688563028499
:1012800070BD000000000140000401400A4600213A
:10129000018B4FF2FF7319404FF6FF7303EA0223ED
:1012A000194301837047000070B500240022002319
:1012B000058C4FF6FF6635400584028C8388848B4D
:1012C0004FF68F752C404FF6FC752C400D882C4343
:1012D0004FF6FF552A408D894FF6FF7606EA052521
:1012E0002A434D8806EA05252A43154DA84202D017
:1012F000144DA8421DD14FF2FF752A40CD894FF6FB
:10130000FF7606EA05252A434FF6FF352A408D88E9
:1013100006EA05252A434EF6FF752B404DF6FF756C
:101320002B400D8A06EA05152B434D8A06EA051562
:101330002B43838084838D68C563028470BD000065
:1013400000000140000401400A460021818B4FF655
:10135000F7731940114381837047000070B5002274
:1013600000230024058C4EF6FF7635400584038C5F
:101370008488828B48F6FF752A404FF6FF452A4045
:101380000D884FF6FF7606EA05252A434DF6FF75D0
:101390002B408D8906EA05352B434D8806EA053535
:1013A0002B430A4DA84202D0094DA84208D14BF662
:1013B000FF752C400D8A4FF6FF7606EA85152C4303
:1013C000848082838D680564038470BD00000140C1
:1013D000000401400A460021818B4FF2FF7319403F
:1013E0004FF6FF7303EA0223194381837047416379
:1013F000704781637047C163704701647047416201
:101400007047028B4FF6F3731A400283028B0A4334
:1014100002837047028B4FF2FF331A400283028B24
:101420004FF6FF7303EA01231A4302837047828B4E
:101430004FF6F3731A408283828B0A43828370478C
:10144000828B4FF2FF331A408283828B4FF6FF73F9
:1014500003EA01231A4382837047000000220288B6
:10146000184B98420ED0184B98420BD0B0F1804FD9
:1014700008D0164B984205D0154B984202D0154B18
:10148000984204D14FF68F731A404B881A43124B7F
:10149000984207D0114B984204D04FF6FF431A40B0
:1014A0000B891A4302804B68C3620B880385054B86
:1014B000984202D0044B984201D18B7A03860123D3
:1014C0008382704700000140000401400004004096
:1014D00000080040000C00400010004000140040D4
:1014E00038B540F22771324800F034F990B13148F4
:1014F0003149826868469047012805D19DF800105F
:101500002B4800F0E6F905E0002240F22771284858
:1015100000F04AF940F22551254800F01BF9002857
:1015200044D0234800F0D0F9C0B200902348D0F84E
:1015300000012249C1F804012149486880471F4938
:10154000C1F800010846D0F80001D1F80411401A92
:10155000322817D9194890F8FF0098B9002405E0FF
:101560001848005D15490855601CC4B2164800783B
:101570008442F5DB14480078104981F8FF00002010
:10158000114908709DF800000E490F4A12788854DE
:101590000D480078FE2804DA0B480078401C0A4900
:1015A000087040F22551024800F0ACF838BD000048
:1015B000004C0040480B0020A4140020B014002070
:1015C000A80A0020A3130020140B002008B540F245
:1015D0002771174800F0BEF890B116481649826886
:1015E00068469047012805D19DF80010104800F08A
:1015F00070F905E0002240F227710D4800F0D4F8A0
:1016000040F225510A4800F0A5F878B1084800F0EA
:101610005BF9C0B2009040F22551054800F072F825
:101620000448064942689DF80000904708BD000044
:1016300000100140480B0020B8170020C4170020FC
:1016400010B50821274800F078F810B1254800F0BF
:101650003BF92021234800F070F8012840D12148AF
:1016600000F032F9C4B22049486880471F49096830
:10167000401A022810D900201D4908701D48007822
:10168000012803D100201B49087002E001201949FC
:10169000087001201849087016480078012808D100
:1016A000134801780078401C114A107013484454C4
:1016B00007E00F4801780078401C0D4A1070104870
:1016C0004454094948688047084908600848007838
:1016D000192804D106480078401E0549087000BF4B
:1016E00010BD000000440040A80A0020700B00203C
:1016F000740B0020550B0020540B0020D017002045
:10170000E917002010B50022002340F66A14A14218
:1017100000D100BF0A1201249440A3B2DC4304802C
:1017200010BD21B1828942F40052828104E0828995
:101730004DF6FF731A408281704702460020B1F5D2
:10174000007F00D100BF13880B400BB1012000E0E7
:101750000020704770B502460024002300250020B9
:1017600040F66A16B14200D100BFC1F3421501F044
:101770001F03012606FA03F3012D02D19689334097
:1017800006E0022D02D1168A334001E0968A3340EA
:101790000C12012606FA04F41688344013B10CB179
:1017A000012000E0002070BDF0B5034600240026B3
:1017B0000025002040F66A17B94200D100BF184644
:1017C000C1F3421401F01F06012707FA06F5012CA8
:1017D00001D10C3004E0022C01D1103000E01430B3
:1017E0001AB107682F43076002E00768AF4307603C
:1017F000F0BD00002DE9FF4705460E460024A14636
:1018000000BFA046B08900B100BF2C8A24F4405428
:10181000F08804432C82AC8941F20C608443B08888
:1018200031890843718908430443AC81AC8A24F4AC
:101830004074B0890443AC826846FFF735F920480C
:10184000854202D01F48854202D1DDF80C9001E0AC
:10185000DDF80890A88900F4004040B109EBC90008
:1018600000EB091031684900B0FBF1F707E009EB24
:10187000C90000EB091031688900B0FBF1F7642062
:10188000B7FBF0F004012009642101FB1078A8895E
:1018900000F4004040B1322000EBC800B0FBF1F092
:1018A00000F00700044308E0322000EB0810642138
:1018B000B0FBF1F000F00F0004432C81BDE8FF877E
:1018C000001001400014014001468888C0F3080060
:1018D0007047C1F308028280704700BFFEE7000036
:1018E0000A48008800EE100AB8EE400A9FED081A78
:1018F000C0EE010A9FED070A20EE800AF1EE000A11
:1019000020EE200A044880ED000A7047FC0A0020FF
:1019100000F07F4533335340000B002010B54FF4E7
:1019200080510248FFF71EF810BD00000008024079
:1019300010B5044605484168204688470449886830
:10194000804704490868804710BD0000780B0020DC
:10195000780A00202000002010B504460348816A60
:10196000204688470249C868804710BD8809002082
:101970002C0A002010B504460349C8688047034973
:10198000C868804710BD0000100A002054090020DC
:1019900010B540F666014FF08040FFF72CFD40F691
:1019A00066010C48FFF729FD40F666010948FFF77C
:1019B00022FD40F666010748FFF71BFD40F6660171
:1019C0000448FFF714FD40F666014FF08040FFF732
:1019D00014FD10BD0004004010B503F0C5F902F07D
:1019E00011F900F001F810BD10B540F6B8301449F7
:1019F000086048608860C8600861486108460168FE
:101A00004FF08040FFF7F7FC0D4841680D48FFF7A5
:101A1000F4FC0B4881680B48FFF7EDFC0848C168EF
:101A20000848FFF7E6FC064801690648FFF7DFFCB7
:101A3000034841694FF08040FFF7DFFC10BD000014
:101A40007C1100200004004010B52DED048B1848D7
:101A5000C06817490969441A204609F012FD41EC93
:101A6000190B14499FED142B9FED151BB0EE490A7D
:101A7000F0EE690A08688047B0EE408AF0EE608AAE
:101A800051EC180B09F0CEFC044604F6B8300E49B0
:101A9000096808600648406900F6B8300A490968D4
:101AA00048600948816800208847BDEC048B10BD60
:101AB000F4090020E00900200000000000408FC071
:101AC0000000000000408F40400A0020002100EE8E
:101AD000901A0549415800EE901AB8EEE01ADFED71
:101AE000031A81EE210A704700000E080000C84268
:101AF000F0B50C46154600210022068C4FF6FE7705
:101B00003E400684018B028C4FF60C7631407E1CE1
:101B100006EA03162E4331434FF6F576324044F081
:101B20000106324301830284F0BDF0B50C46154630
:101B3000002100220026078C4FF6EF7C07EA0C07F5
:101B40000784018B028C4FF6FF7707EA041640F6F4
:101B5000FF4739404FF6FF7707EA033739434FF61F
:101B6000FF7707EA052739434FF65F773A4046F09B
:101B700010073A4301830284F0BDF0B50C461546C8
:101B8000002100220026078C4FF6FF6C07EA0C07A5
:101B90000784818B028C4FF6FF7707EA04264FF605
:101BA0000C7739404FF6FF7707EA03172F43394385
:101BB0004FF2FF573A4046F480773A4381830284DC
:101BC000F0BDF0B50C461546002100220026078C1A
:101BD0004EF6FF7C07EA0C070784818B028C4FF6D8
:101BE000FF7707EA043640F6FF4739404FF6FF77A4
:101BF00007EA052739434FF6FF7707EA03373943EA
:101C000045F6FF773A4046F480573A438183028491
:101C1000F0BD00000149086849687047A00A00202B
:101C20002DE9F0472448046845684FF0E0208669B4
:101C3000002721480168426884EA010085EA020120
:101C400008431CD11D480023026830463946FEF780
:101C50002DFB4FF47A734FF0000CA4FB032805FB17
:101C6000038304FB0C3C1346181A6CEB01014FF480
:101C70007A7C10EB0C0041F10001BDE8F0874FF0D9
:101C8000E02080690D490968B0FBF1F000220A4BA1
:101C900019685B684FF47A78A1FB089A03FB08A3E4
:101CA00001FB02311346B9EB000261EB030112EBB9
:101CB000080041F10001E0E7A00A0020900A00209E
:101CC0001CB501210420FEF79FFE01208DF80400C1
:101CD00000208DF806008DF805008DF807004FF400
:101CE0008050009069460448FEF7D1FD4FF48051C2
:101CF0000148FEF737FE1CBD0008024010B501F098
:101D00001BFA03F0CDFD012010BD000030B50346E5
:101D10000A4600210D4C94F8FF40944203DA0B4C24
:101D200094F8FF0000E0D0B2002107E0074C645CAB
:101D30005C540024054D6C544C1CE1B28142F5DB2F
:101D40000024024D85F8FF4030BD0000B014002093
:101D500070B504460D460B4948688047064604F4B2
:101D60000050B0F5005F0CD107480068864208D9E2
:101D70000648006880F40050044908607019024960
:101D8000086070BDA80A0020D40A00201408024090
:101D9000704700B500F04CFD00BD00000CB5002000
:101DA000019000903448006840F480303249086067
:101DB00000BF3148006800F4003000900198401CDA
:101DC0000190009818B90198B0F5A04FF1D12A48B8
:101DD000006800F4003010B10120009001E0002004
:101DE00000900098012846D123484030006840F018
:101DF00080502149403108602048006840F440404C
:101E00001E4908601C48083000681B4908310860FA
:101E10000846006840F4004008600846006840F446
:101E2000A05008601648091F0860081F006840F0AD
:101E30008070091F086000BF0F48006800F0007044
:101E40000028F9D040F205700E4908600A480830B1
:101E5000006820F00300084908310860084600685F
:101E600040F00200086000BF03480830006800F03E
:101E70000C000828F8D10CBD00380240007000406A
:101E800010544007003C024000B50246FFF7C2FE76
:101E9000034600BFFFF7BEFE99188842FAD300BD83
:101EA00070B50446FFF7BCFE054600BFFFF7B8FE5D
:101EB0002A19801A71F10001F8DB70BD10B50124F8
:101EC000FEF7C2FCF320FEF719FC02215820FEF7B2
:101ED0001BFC3B4890ED0C0ADFED3A0A20EE200A8D
:101EE000BDEEC00A10EE101A3748FEF785FC09282F
:101EF00000D00024324890ED0D0ADFED320A20EECA
:101F0000200ABDEEC00A10EE101A2F48001DFEF781
:101F100073FC092800D00024294890ED0E0ADFED5B
:101F2000290A20EE200ABDEEC00A10EE101A26483B
:101F30000830FEF761FC092800D00024204890ED0D
:101F40000F0ADFED200A20EE200ABDEEC00A10EED7
:101F5000101A1D480C30FEF74FFC092800D0002451
:101F6000174890ED100ADFED170A20EE200ABDEEAB
:101F7000C00A10EE101A14481030FEF73DFC092874
:101F800000D000240E4890ED110ADFED0E0A20EE7D
:101F9000200ABDEEC00A10EE101A0B481430FEF7EE
:101FA0002BFC092800D00024642107481830FEF7D4
:101FB00023FC092800D00024FEF714FC204610BDA5
:101FC000A41000200000C84200000E0810B58AB01E
:101FD000044601210846FEF717FD01211020FEF7F7
:101FE00043FD072209212F48FEF799FC07220A2109
:101FF0002C48FEF794FC02208DF824008DF8250073
:1020000000208DF8260001208DF82700400208905E
:1020100008A92448FEF73BFC4FF48060089008A90B
:102020002048FEF734FC25208DF80C0000208DF8A8
:102030000D0001208DF80E008DF80F0003A8FEF7AB
:102040009BFC04940020ADF81400ADF81600ADF828
:102050001800ADF81C000C20ADF81A0004A91248B5
:10206000FFF7C8FB1148124AFF21036868469847EA
:1020700010489DE80E000EC00C480F4AFF2103686F
:10208000684698470D489DE80E000EC0012240F2B8
:1020900025510548FFF788FB01210348FFF741FB65
:1020A0000AB010BD0000024000100140480B0020A3
:1020B000B8150020B8170020B7160020C41700205C
:1020C00070B506460C4600250F4800790E49C979BF
:1020D000401AA04201DA002070BD002509E0705DC1
:1020E0000A494A680849904708B90020F4E7681C83
:1020F00085B2A542F3DB012240F227710448FFF7C5
:1021000053FB0120E8E70000B8170020480B00202F
:102110000010014000B58FB001218805FEF774FC66
:10212000012004900020009003900B901048029032
:1021300000200D904FF400500890C01006908010C1
:1021400009900C48019000200E904FF40060079019
:10215000002005904FF400300A9069460648FEF7CB
:102160009FFA01210448FEF790FA0FB000BD00006D
:10217000FC0A00204C20014010640240002002496B
:10218000C860086148617047F409002010B50D4827
:1021900006F094FC7C2300223C210A4806F048FC0F
:1021A000202301223C21074806F042FC8023022222
:1021B0003C21044806F03CFC0348C1680A208847DB
:1021C00010BD000004110020A80A002010B51C4812
:1021D00006F074FC1B48C1683220884780236B22BC
:1021E000D021174806F024FC1648C168052088470E
:1021F00000231922D021124806F01AFC00236B227A
:10220000D0210F4806F014FC00233722D0210C48BF
:1022100006F00EFC06231A22D021094806F008FC1D
:1022200018231B22D021064806F002FC10231C2292
:10223000D021034806F0FCFB03F0D6FC10BD0000E3
:1022400020100020A80A002010B50C4806F099FCC8
:1022500008B9002010BDEE21084806F00DFD074822
:1022600006F0BAFC1E21054806F006FD034806F0FC
:10227000B3FC024806F047FC0120EBE79811002070
:1022800010B52DED048B86B00446012C7BD1B249EC
:10229000096801F5FA6009F0F4F841EC190BAF494F
:1022A0009FEDAF2B9FEDB01BB0EE490AF0EE690A2F
:1022B00008688047B0EE408AF0EE608A51EC180B57
:1022C00009F0B0F80090A449496801F5FA6009F0F6
:1022D000D8F841EC190BA1499FEDA12B9FEDA21B52
:1022E000B0EE490AF0EE690A08688047B0EE408A0D
:1022F000F0EE608A51EC180B09F094F801909649C1
:10230000896801F5FA6009F0BCF841EC190B9349B2
:102310009FED932B9FED941BB0EE490AF0EE690AF6
:1023200008688047B0EE408AF0EE608A51EC180BE6
:1023300009F078F802908849C96801F5FA6009F057
:10234000A0F841EC190B85499FED852B9FED861B6D
:10235000B0EE490AF0EE690A08688047B0EE408A9C
:10236000F0EE608A51EC180B09F05CF803907A49A2
:10237000096901F5FA6009F084F841EC190B774915
:102380009FED772B00E02DE09FED771BB0EE490A23
:10239000F0EE690A08688047B0EE408AF0EE608A85
:1023A00051EC180B09F03EF804906B49496901F5AE
:1023B000FA6009F066F841EC190B68499FED682B4B
:1023C0009FED691BB0EE490AF0EE690A0868804784
:1023D000B0EE408AF0EE608A51EC180B09F022F85A
:1023E00005909BE05C49086809F04BF841EC190B3B
:1023F0005A499FED5F2B9FED5C1BB0EE490AF0EE52
:10240000690A08688047B0EE408AF0EE608A51ECB5
:10241000180B09F007F800904F49486809F031F8A7
:1024200041EC190B4D499FED522B9FED4F1BB0EE28
:10243000490AF0EE690A08688047B0EE408AF0EE7B
:10244000608A51EC180B08F0EDFF01904249886852
:1024500009F017F841EC190B40499FED452B9FED12
:10246000421BB0EE490AF0EE690A08688047B0EEF8
:10247000408AF0EE608A51EC180B08F0D3FF02900E
:102480003549C86808F0FDFF41EC190B33499FED51
:10249000382B9FED351BB0EE490AF0EE690A08684B
:1024A0008047B0EE408AF0EE608A51EC180B08F0DD
:1024B000B9FF03902849086908F0E3FF41EC190BC4
:1024C00026499FED2B2B9FED281BB0EE490AF0EE1D
:1024D000690A08688047B0EE408AF0EE608A51ECE5
:1024E000180B08F09FFF04901B49486908F0C9FFCA
:1024F00041EC190B19499FED1E2B9FED1B1BB0EEF4
:10250000490AF0EE690A08688047B0EE408AF0EEAA
:10251000608A51EC180B08F085FF05904FF0804061
:102520000099FEF768FF14480199FEF766FF12480C
:102530000299FEF760FF10480399FEF75AFF0E4814
:102540000499FEF754FF4FF080400599FEF755FFC0
:1025500006B0BDEC048B10BD7C110020E00900200A
:102560000000000000CCA040000000000040AF4090
:102570000000000000409F400004004010B52DED19
:102580000A8B04468A4890F8FC0801280CD1894837
:1025900006F042F98748983006F03EF9864806F082
:1025A0003BF9BDEC0A8B10BD814890F8000900286A
:1025B0005AD1804806F030F97E48983006F02CF960
:1025C0007D4806F029F97D490968888808F0C1FF2F
:1025D00041EC1C0B9FED7A0B53EC102B09F05AFACF
:1025E00041EC1B0B9FED780B53EC102B09F046F8D8
:1025F00041EC190B6E48D0F8E80800EE100AB8EE6E
:10260000C00ADFED730A20EE200A10EE101A084609
:1026100009F02AFB41EC1A0B53EC192B08F0B2FC21
:1026200041EC180B08F0FEFE6149C1F8E808D1F84A
:10263000E80808F026FF41EC190B66499FED662B70
:102640009FED671BB0EE490AF0EE690A0868804703
:10265000B0EE408AF0EE608A51EC180B08F0E2FE12
:102660005349C1F8E8089CE7514890F8000901284F
:1026700007D1504806F0D0F84E48983006F0CCF814
:1026800059E04B4890F80009022854D1564890ED83
:10269000060A10EE101A084609F0E6FA41EC180B8B
:1026A0004C499FED522B9FED531BB0EE480AF0EEC4
:1026B000680A086880473E4880EDE60B21463D48A1
:1026C00005F05AFFB0EE408AF0EE608A41499FED76
:1026D0004B2B9FED4C1B08688047354880EDE80B7D
:1026E000414890ED070A10EE101A084609F0BCFAAE
:1026F00041EC180B37499FED3D2B9FED3E1BB0EE93
:10270000480AF0EE680A086880472A48983080ED49
:10271000020B214605F030FFB0EE408AF0EE608AF1
:102720002C499FED362B9FED371B086880472148C9
:10273000983080ED040B1E4890F80009012804D061
:102740001B4890F80009022830D1274890ED080A6C
:1027500010EE101A084609F087FA41EC180B1D49D3
:102760009FED222B9FED231BB0EE480AF0EE680A86
:1027700008688047104880ED020B214605F0FCFEFA
:10278000B0EE409AF0EE609A12499FED132B9FED48
:10279000141B08688047B0EE408AF0EE608A51EC66
:1027A000180B08F03FFE0249C1F8E80800BFF8E640
:1027B00030000020C0030020F0040020E00A0020C8
:1027C0000000000000407F40000000A09999F93F00
:1027D000CCCC4C3EE00900200000000000000000CE
:1027E0000000800C00C0824088090020000000002A
:1027F000000059C000000000000059400000000027
:10280000000008C0000000000000084070B5044649
:102810000D4603F06DFA03F0BDFA02F075FFB6EE57
:10282000000A024880ED000A70BD0000D80A0020AE
:1028300070B587B034480078012862D133480078F9
:1028400001280AD1002005E03149095C0DF800108B
:10285000411CC8B21928F7DB09E0002005E02D492A
:10286000095C0DF80010411CC8B21928F7DB0020E4
:102870002549087000BF39E00024002316E000EB72
:102880004002254D05EB820202EB83018A785AB1A2
:102890000D786D1C1DF805204D78EA408D782A4092
:1028A000CD78AA40144300BF591CCBB2032BE6DB02
:1028B000B4F5AF7F14D9A4F5AF7100EE101AF8EE9D
:1028C000400A9FED161A9FED160A00EE810ABCEE33
:1028D000C00A10EE101A8AB2124921F8102003E043
:1028E0000022104921F81020411CC8B20C28C3DB7B
:1028F0009DF818009DF8171040EA01200A49088049
:1029000000BF07B070BD0000540B0020550B002025
:10291000E9170020D0170020FABF00082FA1BD3F03
:102920000000FA441A180020580B0020014640F21B
:102930001450814201DA02207047B1F5E16F01DDE8
:102940000020F9E70120F7E710B50446204604F01F
:1029500047FB204602F098FC204604F043FC10BDE3
:1029600070B52DED048B00BF1C4988688047044674
:102970000D461B4903C9221A65EB0101104608F0F8
:10298000FBFD9FED180B53EC102B08F077FE41EC8C
:10299000180B134A30C2154B5868154B5B6803F18E
:1029A0001801134B5B68B0EE485AF0EE685A90ED90
:1029B000024AD0ED013A90ED003AD1ED022A91EDB4
:1029C000012AD1ED001A93ED0B1AD3ED0A0A93ED0B
:1029D000090A03F0FFF9BDEC048B70BDA80A0020C2
:1029E000800900208DEDB5A0F7C6B03E2C0A00206E
:1029F000100A00200146B5EEC00AF1EE10FA05DB20
:102A0000F1EEC00AC1ED000A00207047DFED030AB5
:102A1000C1ED000A4FF0FF30F7E7000000000000B2
:102A20001CB501210846FDF7EFFF03208DF80400D7
:102A30000420009000208DF8070003208DF8050089
:102A400069460248FDF723FF1CBD0000000002405C
:102A500010B503498868804702498868804710BDDF
:102A6000100A00202C0A002000B52DED060B2DEDDC
:102A70000A8B83B0B0EE61BAF0EE42BAB0EE62CA31
:102A8000684605F05FFF9FED4A0A2BEE000AB0EEA4
:102A900040BA9FED470A2BEE800AF0EE40BA9FED58
:102AA000440A2CEE000AB0EE40CAB0EE4B0A08F021
:102AB000E9F8B0EE408AB0EE6B0A08F0E3F8F0EE09
:102AC00040AAB0EE4C0A08F0DDF8F0EE408AB0EE15
:102AD0004B0A08F01FF9B0EE409AB0EE6B0A08F00E
:102AE00019F9F0EE409AB0EE4C0A08F013F9B0EE86
:102AF00040AA28EE2A0ADDED0D0A20EE200AF1EEAA
:102B0000680A60EE890A2AEE291A41EE080A9DED4C
:102B10000E1A00EE810A69EE0A0A28EEA91A41EEA1
:102B2000080A9DED0F1A00EE810A8DED000A2AEECB
:102B3000890ADDED0D0A60EE200A28EE880A6AEEA9
:102B4000291AB0EE401A01EE891ADDED0E1AB0EE28
:102B5000600A01EE210AF1EE480A60EE8A0A28EEC8
:102B6000A91A41EE090A9DED0F1A00EE810A8DEDBA
:102B7000010A2AEE8A0ADDED0E0A20EE200ADDEDBA
:102B80000D0AB1EE691A01EE200A6AEEA80A9DED5F
:102B90000F1A00EE810A8DED020A9DED000ADDEDAF
:102BA000010A9DED021A03B0BDEC0A8B06B000BD10
:102BB00034FA8E3C10B58AB0044601210846FDF770
:102BC00023FF0121C804FDF72FFF082200212A4816
:102BD000FDF7A5FE082201212748FDF7A0FE0220EF
:102BE0008DF824008DF8250000208DF826000120A6
:102BF0008DF82700089008A91F48FDF748FE02201D
:102C0000089008A91C48FDF742FE34208DF80C00FE
:102C100000208DF80D0002208DF80E0001208DF8A7
:102C20000F0003A8FDF7A8FE04940020ADF81400DF
:102C3000ADF81600ADF81800ADF81C000C20ADF88A
:102C40001A0004A90D48FEF7D5FD0D480D4AFF21D5
:102C50000368684698470C489DE80E000EC00122A4
:102C600040F225510548FEF79FFD01210348FEF77C
:102C700058FD0AB010BD000000000240004C0040AA
:102C8000480B0020A4120020A414002010B509480D
:102C900005F014FFFFF7D8FA0748C16832208847CB
:102CA00002F0F2FC0448C168C820884700F006F82A
:102CB00010BD000098110020A80A00202DE9F04F57
:102CC0002DED088B85B000208046814600210C4602
:102CD0000D460E460F46D448007810B101280FD19A
:102CE00006E004F03BF8012801D1CF49087008E064
:102CF00003F060FF012802D10220CB49087000E0F8
:102D000000BF00BFC8480078022804D005B0BDEC61
:102D1000088BBDE8F08FC54840890102C448D0E95E
:102D20000020511A60F10000C14AC2E90010BF48FA
:102D300080890021D2E90032A0FB03CA01FB03A174
:102D400000FB0210410241EADC5000F5FA60C117B5
:102D5000B84A03C2B548808801040022B3480089FC
:102D6000B34BD3E900C3A0FB0CBE02FB0CEC00FB91
:102D700003C34FEADB1040EA4360081842EBE3125A
:102D8000AD4905C1A94840884FEAC0314FF0000263
:102D9000A648C088DFF898C2DCE9003CA0FB03BE6F
:102DA00002FB03E300FB0C334FEA1B2040EA036005
:102DB000081842EB2322A14905C19E48D0E9003002
:102DC0004FF4FA629A1A70F100007DDA9848D0E95F
:102DD0000010A1FB012300FB013301FB0030D10FE8
:102DE00041EA40084FEAE0799248D0E900A04FF468
:102DF000FA61BAEB010260F10001104608F058FBDD
:102E000041EC1B0B9FED8E1BB0EE4B0AF0EE6B0AF4
:102E100007F0D4FAB0EE40AAF0EE60AA9FED8A0B5C
:102E200053EC102B51EC1A0B08F028FC08F0C8FFEB
:102E3000CDE90201DDE9021045104FEA3104DDE978
:102E400002014FEA900040EA81764FEAA1077948F3
:102E5000D0E900107E4BC91A70F1FF303DDA754899
:102E6000D0E900105B42C91840F100020846CDE9E4
:102E70000012114608F01CFB41EC1A0B9FED701B71
:102E8000B0EE4A0AF0EE6A0A07F098FAB0EE409AFD
:102E9000F0EE609A51EC190B08F092FF82468B46D7
:102EA00007210022AAFB01030BFB01310AFB0211DF
:102EB000024614194D410B214FF0000C5246A2FB63
:102EC000010E0BFB01E100E008E00AFB0C114910C8
:102ED0004FEA300296194F4100BF00BF5548D0E974
:102EE0000010B1EB080160EB0900524AC2E9001082
:102EF0005148D0E90010091B60EB05004E4AC2E9B9
:102F000000104E48D0E90010891B60EB07004B4AC7
:102F1000C2E900104F4800680023D2E9001CA0FB62
:102F2000012A03FB01A100FB0C11500D40EAC12C4A
:102F30004815414A06CABCEB010360EB0201D80BFD
:102F400040EA4140C9133B4AC2E902011046D0E9B8
:102F500002200023D21A984100DAD7E63549D1E998
:102F60000221104608F0AEFE00EE100ADFED3A0A2C
:102F700080EE201AB0EE419ADFED380AB0EE490A31
:102F800006F016FFF7EE000A30EEC00ADFED340A55
:102F900020EE200AB0EE408AB0EE480A314804F034
:102FA0003FFBB0EE408A30494868804700EE100A87
:102FB000F8EE408A2D4903C908F084FE00EE100A9D
:102FC00038EEC00A1B48D0ED040A78EE600A80EEA5
:102FD000801A11EE10AA504608F046FE9FED240B11
:102FE00053EC102B08F04AFB07F09AFF1149486197
:102FF0000846D0ED050AB0EE600A1F4804F010FB49
:103000000C4880ED050A9FED1D0A38EE400A80ED60
:10301000040A18EE900A08F035FF144A03C2002093
:103020000149087000BF71E6740A0020C011002039
:10303000580A0020A8110020680A0020600A002019
:1030400000000000000000400000000000001440EC
:1030500024FAFFFF700A002080E6C547AEDC423E3E
:10306000002A2D47D0110020A80A0020880A00203D
:103070000000000000408F4014120020000082C2B7
:1030800010B52DED028B0446204608F062FA41ECA3
:10309000180B9FED1A0B53EC102B08F0B3FA03D268
:1030A0000120BDEC028B10BD204608F052FA41EC25
:1030B000180B9FED140B53EC102B08F0DDFB01D225
:1030C0000320EEE7204608F044FA41EC180B9FED90
:1030D0000F0B53EC102B08F095FA0DD2204608F098
:1030E00038FA41EC180B9FED0B0B53EC102B08F04A
:1030F000C3FB01D20220D4E70020D2E70000000089
:1031000000406F4000000000007087400000000099
:1031100000C08240000000000000794010B5044962
:1031200048688047034801684FF4E130884710BD84
:10313000780A0020180B002010B501F0F3FE10BD36
:1031400010B52DED028B86B0044603A805F0FAFBFE
:10315000684605F0F7FB684890F8FC08012810D194
:10316000654805F059FB6448983005F055FB634805
:1031700005F052FB6249C868804706B0BDEC028B7F
:1031800010BD6048006890ED000A10EE101A084665
:1031900008F06AFD584AC2E902015A48006890EDF9
:1031A000010A10EE101A084608F05EFD524A9832E5
:1031B000C2E902015348006890ED020A10EE101AAD
:1031C000084608F051FD4D4AC2E9020121464A482D
:1031D00005F096F8B0EE408AF0EE608A51EC180BDC
:1031E00007F09EFE009021464348983005F088F88D
:1031F000B0EE408AF0EE608A51EC180B07F090FEBA
:10320000019021463D4805F07BF8B0EE408AF0EE93
:10321000608A51EC180B07F083FE02909DED000AC6
:10322000B1EE400ADDED010A30EE600ADDED020A82
:1032300070EE200A3048D0F8E80800EE100AB8EE28
:10324000C00A30EE800ABDEEC00A2D48006880ED4D
:10325000000A9DED000AB1EE400ADDED010A30EEF4
:10326000200ADDED020A70EE600A2348D0F8E80873
:1032700000EE100AB8EEC00A30EE800ABDEEC00AB9
:103280001F48006880ED010A9DED000ADDED010A8E
:1032900030EE200ADDED020A70EE200A1648D0F862
:1032A000E80800EE100AB8EEC00A30EE800ABDEE63
:1032B000C00A1348006880ED020A9DED000ADDEDAA
:1032C000010A30EE600ADDED020A70EE600A0A487B
:1032D000D0F8E80800EE100AB8EEC00A30EE800A16
:1032E000BDEEC00A0648006880ED030A0448816804
:1032F0000120884700BF40E7300000206001002027
:10330000400A002054090020F0B52DED108B8BB041
:1033100005469FEDFE0B8DED080B05A805F012FB91
:1033200002A805F00FFBFB4890F8FC08012823D108
:10333000F94805F071FAF848983005F06DFAF74849
:1033400005F06AFAF648406890ED020AF54880ED0B
:103350003B0AD0ED3B0AB0EE600A03F0AFFD10EE81
:10336000106A304608F080FCEA4A02F53E7203C259
:103370000BB0BDEC108BF0BDE64890F8000920B111
:10338000E44890F8000901287DD1E7490968488898
:1033900008F0DFF841EC1E0B9FEDE40B53EC102B13
:1033A00008F078FB41EC1D0B07F0BAFD09EE100A9E
:1033B000E049F2EE040AB0EE490A4868804710EE90
:1033C000106A304608F050FC41EC1C0B9FEDDA0B04
:1033D00053EC102B07F092FE41EC1B0B9FEDD80B2A
:1033E00053EC102B08F04AF941EC1A0B07F098FD4A
:1033F00008EE900AB0EE680A03F060FD8DED050A54
:10340000C9490968088808F0A4F841EC1E0B9FED33
:10341000C70B53EC102B08F03DFB41EC1D0B07F0E4
:103420007FFD09EE100AC349F2EE040AB0EE490A24
:103430004868804710EE106A304608F015FC41ECF1
:103440001C0B9FEDBD0B53EC102B07F057FE41EC0E
:103450001B0B9FEDBB0B53EC102B08F00FF941EC4D
:103460001A0B07F05DFD08EE900AB0EE680A03F053
:1034700025FD8DED060AA74890F8FF0801280BD11D
:10348000A748406800E00EE0D0ED020AA54890EDA4
:103490003B0A30EEC08A27E09E4890F8FF0818BB30
:1034A0009FEDA98A20E09B4890F8000902281BD1D3
:1034B000984890EDE81BB0EE410AF0EE610A51EC3D
:1034C000100B07F02DFD0590A04890ED041BB0EE09
:1034D000410AF0EE610A51EC100B07F021FD069055
:1034E0008F48406890ED028A9FED990AB4EEC08A39
:1034F000F1EE10FA06DD9FED970A38EE400AB0EEC5
:10350000408A18E09FED940AB4EEC08AF1EE10FAFA
:1035100006D29FED900A38EE000AB0EE408A0AE02B
:1035200000BFB0EEC80ADFED8A0AB4EEE00AF1EEA1
:1035300010FA00D200BF9DED061AF0EE410A9DED93
:10354000051AB0EE410A7B49B0EE481AC8688047B8
:103550008DED050ACDED060A8DED071A9DED050AE4
:10356000DFED7E0A20EE200A10EE101A084608F061
:103570007BFB41EC190B674890ED721BB0EE410AE2
:10358000F0EE610A53EC102B9FED751B51EC110B03
:1035900008F074F841EC1A0B53EC192B07F0F2FC0D
:1035A0005C4A02F5E47203C29DED060ADFED6B0A88
:1035B00020EE200A10EE101A084608F055FB41ECE8
:1035C000190B544890ED981BB0EE410AF0EE610AD9
:1035D00053EC102B9FED621B51EC110B08F04EF8D1
:1035E00041EC1A0B53EC192B07F0CCFC494A02F5BD
:1035F000187203C24A484068D0ED000AB0EE600A73
:1036000003F05CFC10EE106A304608F02DFB424AD5
:10361000C2E9020142484068D0ED010AB0EE600AFA
:1036200003F04CFC10EE106A304608F01DFB3A4ADD
:103630009832C2E902012946374804F061FEB0EE33
:1036400040AAF0EE60AA3B499FED472B9FED481B37
:1036500008688047B0EE409AF0EE609A51EC190B82
:1036600007F05EFC029029462B48983004F048FE93
:10367000B0EE40AAF0EE60AA2E499FED3B2B9FEDE5
:103680003C1B08688047B0EE409AF0EE609A51EC1F
:10369000190B07F045FC03909DED020ADFED2F0AA0
:1036A00020EE200A10EE101A084608F0DDFA41EC70
:1036B000190B184890ED001BB0EE410AF0EE610ABC
:1036C00053EC102B9FED261B51EC110B07F0D6FF8E
:1036D00041EC1A0B53EC192B07F054FC0D4A03C2B2
:1036E0009DED030ADFED1D0A20EE200A10EE101AF0
:1036F000084608F0B9FA41EC190B064890ED261B74
:10370000B0EE410AF0EE610A36E000000000000071
:103710000000000030000020F801002028030020F5
:103720005409002030080020E00A002000000000BA
:1037300000407F40E00900200000000000408F4072
:103740000000000000003440000000005804002089
:10375000000034430000B443000034C3CDCCCC3D62
:10376000000000C0CCCCEC3F00000020FB21E9BFF2
:1037700000000020FB21E93F53EC102B1FED081B3C
:1037800051EC110B07F07AFF41EC1A0B53EC192B9B
:1037900007F0F8FB934A03C293484068D0ED020A51
:1037A000B0EE600A03F08AFB10EE106A304608F0B3
:1037B0005BFA8E4AC2E90201A2F53E7090EDC00BA1
:1037C0008DED080B90EDC02BB0EE420AF0EE620AD0
:1037D00090EDBE2BB0EE421AF0EE621A53EC102BB5
:1037E00051EC110B08F056F941EC190B9FED800BD1
:1037F00053EC102B08F040F813D27A48983890ED2B
:10380000C01BB0EE410AF0EE610A9FED7B1B53EC4A
:10381000112B51EC100B07F0B5FB744AC2E9020101
:103820002FE07048983890EDC02BB0EE420AF0EED1
:10383000620A90EDBE2BB0EE421AF0EE621A53EC23
:10384000102B51EC110B08F025F941EC190B9FEDF1
:103850006C0B53EC102B07F0D5FE12D26148983850
:1038600090EDC01BB0EE410AF0EE610A9FED621BC5
:1038700053EC112B51EC100B08F00CF95B4AC2E928
:1038800002012946594804F03BFDB0EE40AAF0EE93
:1038900060AA5D491FED4C2B1FED4B1B086880474C
:1038A000B0EE409AF0EE609A51EC190B07F038FB3D
:1038B0000490564A1268D088544AD1688847044612
:1038C000022C64D09DED080B4648983880EDBE0B65
:1038D0004E490968C88807F03CFE41EC1F0B1FEDFC
:1038E0006D0B53EC102B07F0FDFF41EC1E0B07F0A6
:1038F00017FB08EE900A4449F2EE040AB0EE680A9B
:103900004868804710EE107A384608F0ADF941EC6F
:103910001D0B1FED770B53EC102B07F0EFFB41EC69
:103920001C0B1FED790B53EC102B07F0A7FE41EC9D
:103930001B0B07F0F5FA01909DED010A03F0BEFAAA
:103940005FED7A0A20EE200A10EE106A304608F089
:103950008BF941EC190B2348983890ED4C1BB0EED5
:10396000410AF0EE610A53EC102B1FED831B51EC62
:10397000110B07F083FE41EC1A0B53EC192B07F0E7
:1039800001FB184A983A02F5987203C227E09DEDB0
:10399000040A5FED8E0A20EE200A10EE101A084687
:1039A00008F062F941EC190B0E48983890ED4C1B69
:1039B000B0EE410AF0EE610A53EC102B1FED981B9C
:1039C00051EC110B07F05AFE41EC1A0B53EC192B7A
:1039D00007F0D8FA034A983A02F5987203C200BF7A
:1039E000C6E40000C800002054090020280300207D
:1039F00000000060FB21094000000060FB2119402D
:103A000000000060FB2109C0E0090020E00A00205E
:103A100010B586B0734805F0B4F83C21714805F044
:103A20002BF9704805F0D8F803216E4805F024F909
:103A30006C4805F0D1F86B4805F0A3F83D216948C2
:103A400005F01AF9674805F0C7F8002409E0654851
:103A500005F0EBF804A90855624805F014F8601C5D
:103A6000C4B2052CF3DB5F4805F0DFF88DF81500D4
:103A70005C4805F06BF85B4805F045F89DF81100CF
:103A80009DF8101040EA012000B2404200EE100AFA
:103A9000B8EEC00A5448406880ED030A9DF8130050
:103AA0009DF8121040EA012000B2404200EE100AD8
:103AB000B8EEC00A4C48406880ED050A9DF8150034
:103AC0009DF8141040EA012000B200EE100AB8EE92
:103AD000C00A4548406880ED040A4348406800F148
:103AE0000C014148406800F10C0291ED021AD1ED41
:103AF000010A91ED000A3D48144603F0F0FE84ED02
:103B0000000AC4ED010A84ED021A01A804F01AFFAC
:103B10003548406890ED030A33484068D0ED090A03
:103B200030EE600A30484068D0ED060A80EE201A78
:103B30008DED011A2C48406890ED040A2A4840682F
:103B4000D0ED0A0A30EE600A27484068D0ED070A37
:103B500080EE201A8DED021A2348406890ED050A88
:103B600021484068D0ED0B0A30EE600A1E484068DC
:103B7000D0ED080A80EE201A8DED031A9DED010AA2
:103B800020EE000ADDED020A9DED021A00EE810A28
:103B9000DDED030A9DED031A00EE810A124840682C
:103BA00080ED0C0A10484068D0ED0C0AB7EE001A00
:103BB00030EEC10AF0EEC00A9FED0D0AF4EEC00A25
:103BC000F1EE10FA08D20020074908700846406854
:103BD00001A90EC90EC002E001200349087006B019
:103BE00010BD0000041100202C0A0020101100203C
:103BF000CDCC4C3E10B501F0D9FB01F0AFFC01F08B
:103C0000EFFE10BD00B589B001210846FCF70CFF9E
:103C10004FF08040FDF74EF94FF4FA4002905348C0
:103C20000068400800EE100AB8EE400A9FED501AF6
:103C3000C0EE010A9FED4F0A80EE801ABCEEC10A69
:103C400010EE100A401E80B2ADF804000020ADF85E
:103C50000C00ADF8060001A94FF08040FDF7FEFB17
:103C60006020ADF810000120ADF812004FF4FA60AA
:103C700006900020ADF81C0004A94FF08040FDF72D
:103C800013FB0821C806FDF75FFB04A94FF0804035
:103C9000FDF764FB0821C806FDF79CFB012188079E
:103CA000FDF7EAF801218807FDF7F8F80121022065
:103CB000FCF7BAFE3048FDF7FDF84FF4FA400290E9
:103CC0002A480068400800EE100AF8EE400A9FED0E
:103CD000281A80EE810ADFED270A80EE201ABCEE5A
:103CE000C10A10EE100A401E80B2ADF80400002098
:103CF000ADF80C00ADF8060001A91F48FDF7AEFBBA
:103D00006020ADF810000120ADF812004FF4FA6009
:103D100006900020ADF81C0004A91748FDF71CFA16
:103D200008211548FDF756FA04A91348FDF75CFA77
:103D300008211148FDF7AAFA04A90F48FDF7B4FAC3
:103D400008210D48FDF700FB04A90B48FDF706FB11
:103D500008210948FDF73EFB01210748FDF78CF8D3
:103D600001210548FDF79AF809B000BD880B002035
:103D700000007A420000FA460004004010B52DED24
:103D8000048B84B0044601A804F0DCFDA14890F83F
:103D9000FC0801280DD1A04804F03EFD9E48983053
:103DA00004F03AFD9D4804F037FD04B0BDEC048BEF
:103DB00010BD984890F8000950B9974804F02CFDC0
:103DC0009548983004F028FD944804F025FDECE770
:103DD000904890F80009012807D18F4804F01CFD95
:103DE0008D48983004F018FDB0E08A4890F800093A
:103DF0000228F9D18A4890ED030A10EE101A0846FD
:103E000007F032FF41EC180B86499FED872B9FEDA1
:103E1000881BB0EE480AF0EE680A086880477E48C2
:103E200080ED020B214604F06BFAB0EE409AF0EE02
:103E3000609A7C499FED7C2B9FED7D1B0868804735
:103E4000B0EE408AF0EE608A51EC180B07F068F88B
:103E500001909DED010ADFED780A20EE200A10EEB8
:103E6000101A084607F000FF41EC180B694890ED66
:103E7000E41BB0EE410AF0EE610A53EC102B9FED0B
:103E80006F1B51EC110B07F0F9FB41EC190B53ECD4
:103E9000182B07F077F85F4A02F5647203C2604896
:103EA00090ED040A10EE101A084607F0DDFE41EC12
:103EB000180B5C499FED5C2B9FED5D1BB0EE480A33
:103EC000F0EE680A086880475348983080ED020B8E
:103ED000214604F015FAB0EE409AF0EE609A51498E
:103EE0009FED512B9FED521B08688047B0EE408A32
:103EF000F0EE608A51EC180B07F012F802909DED7D
:103F0000020ADFED4D0A20EE200A10EE101A0846D4
:103F100007F0AAFE41EC180B4A4890ED0A1BB0EEE0
:103F2000410AF0EE610A53EC102B9FED441B51EC5B
:103F3000110B07F0A3FB41EC190B53EC182B07F006
:103F400021F80A4601463F48C0E90A12314890F874
:103F50000009012804D02F4890F80009022856D102
:103F60002F4890ED050A10EE101A084607F07CFE67
:103F700041EC180B2B499FED342B9FED351BB0EE18
:103F8000480AF0EE680A08688047244880ED020B72
:103F9000214604F0B5F9B0EE409AF0EE609A21495E
:103FA0009FED2D2B9FED2E1B08688047B0EE408AB9
:103FB000F0EE608A51EC180B06F0B2FF03909DED15
:103FC000030ADFED1D0A20EE200A10EE101A084643
:103FD00007F04AFE41EC180B1A4890ED301BB0EE8A
:103FE000410AF0EE610A53EC102B9FED141B51ECCB
:103FF000110B07F043FB41EC190B53EC182B06F0A7
:10400000C1FF0A460146034800F5986006C000BF9C
:10401000CBE600003000002088050020B806002014
:1040200088090020E009002000000000000059C0BD
:104030000000000000005940CDCC4C3F0000008043
:104040009999C93F3004002000000000000044C0DE
:1040500000000000000044400000000000004EC0CE
:104060000000000000004E4001B598B015A804F013
:1040700069FC12A804F066FCFE4890F8FC080128D0
:1040800035D1FD4804F0C8FBFB48983004F0C4FB70
:10409000FA4804F0C1FBF9483030F94B0ECB7030D0
:1040A0000EC0F448D0F8F008109007F0DDFD0A4685
:1040B0000146F04800F5E46006C0EE48D0F8F40888
:1040C000109007F0D1FD0A460146EA4800F5F76076
:1040D00006C0E848D0F8F808109007F0C5FD0A4679
:1040E0000146E6485038C0E9141219B000BDE14855
:1040F00090F8000958BBE2480068109007F0B4FD42
:104100000A460146DB4800F5E46006C0DC4840682A
:10411000109007F0A9FD0A460146D64800F5F76061
:1041200006C0D7488068109007F09EFD0A460146F9
:10413000D2485038C0E91412E03804F06DFBCE4884
:10414000983004F069FBCD4804F066FBCDE7C94820
:1041500090F80009012807D1C74804F05DFBC64864
:10416000983004F059FBEAE2C24890F800090228AE
:10417000F9D1C04890F8FF0830B9C048503890EDE8
:104180003B0A8DED110A05E0BE48406890ED020A39
:104190008DED110ABC48006800880E90BA48C068CE
:1041A0000D90DDE90D1088471090B74800684088F1
:1041B0000E90B548C0680D90DDE90D1088470F904E
:1041C000109802283FD0B04800680088039007F09C
:1041D000C0F99FEDAE0B53EC102BCDE904019DED22
:1041E000040B51EC100B07F055FC9FEDAA0B53ECA0
:1041F000102BCDE906019DED060B51EC100B06F0DE
:104200007DFF9FEDA60B53EC102BCDE908019DED32
:10421000080B51EC100B07F031FA9FEDA20B53EC99
:10422000102BCDE90A019DED0A0B51EC100B07F0A4
:1042300025FACDE90C019DED0C0B51EC100B06F0AD
:104240006FFE159003E09FED990A8DED150A0F980A
:1042500002283FD08C4800684088039007F079F925
:104260009FED8A0B53EC102BCDE904019DED040B5F
:1042700051EC100B07F00EFC9FED860B53EC102B4E
:10428000CDE906019DED060B51EC100B06F036FF53
:104290009FED820B53EC102BCDE908019DED080B2F
:1042A00051EC100B07F0EAF99FED7E0B53EC102B4D
:1042B000CDE90A019DED0A0B51EC100B07F0DEF978
:1042C000CDE90C019DED0C0B51EC100B06F028FE16
:1042D000169003E09FED750A8DED160A9DED160A06
:1042E0008DED0E0A9DED150A8DED0D0A7048C06822
:1042F0000C909DED111ADDED0E0A9DED0D0A804723
:104300008DED150ACDED160A8DED171A5B48503864
:1043100090ED3C0ADFED670A30EE600A8DED090A88
:10432000099807F0A1FCCDE90C015448503890EDF4
:104330003C0ADFED600A30EE200A8DED090A09988B
:1043400007F092FCCDE90A015B4890EDC80B8DEDBA
:10435000080B5748006807909DED0C2B9DED0A1B3C
:104360009DED080B8047544880EDC80B4148D0F8BC
:10437000F008059007F078FC9FED500B53EC102BE4
:10438000CDE906019DED060B51EC100B07F082FB09
:10439000CDE90C013748D0F8F008059007F064FC2F
:1043A0009FED460B53EC102BCDE906019DED060B5E
:1043B00051EC100B06F0E6FDCDE90A01304800682B
:1043C000079007F051FCCDE90801394800680790D3
:1043D0009DED0C2B9DED0A1B9DED080B804726489B
:1043E00080ED020B189903F08BFF8DED0A0B30481E
:1043F00000689FED342B9FED2B1B09909DED0A0B60
:1044000080478DED0C0B9DED0C0B51EC100B06F065
:1044100087FD12909DED150AB5EEC00AF1EE10FA77
:104420006DD0174800680E9007F01EFC0A46014642
:10443000104800F5E46006C09DED150ADFED230A83
:1044400020EE200A8DED090A099807F00DFCCDE950
:104450000C01194890ED560B8DED080B9DED080BE6
:1044600053EC102B9FED1A0B51EC100B07F006F9D3
:1044700032E00000300000205007002080080020BB
:104480008809002054090020E00A002000000000F4
:1044900000407F400000000000408F40000000000E
:1044A0000000004000000000000059400000000033
:1044B000E009002000007A443004002000000000E1
:1044C0000070974000000000000059C0CDCCCC3DEA
:1044D000000000C0CCCCEC3FCDE90A019DED0C0BF7
:1044E00053EC102B9DED0A0B51EC100B06F04AFD1E
:1044F0000A460146FE4800F5AB6006C02DE09DED82
:10450000120A5FED0E0A20EE200A8DED090A0998C5
:1045100007F0AAFBCDE90C01F64890ED560B8DEDA6
:10452000080B9DED080B53EC102B1FED170B51ECF6
:10453000100B07F0A3F8CDE90A019DED0C0B53EC2D
:10454000102B9DED0A0B51EC100B06F01BFD0A46DB
:104550000146E74800F5AB6006C0E74890ED010A68
:104560005FED2C0A30EE600A8DED090A099807F01C
:104570007BFBCDE90C01E04890ED010A5FED330AC9
:1045800030EE200A8DED090A099807F06DFBCDE9A0
:104590000A01D84890EDEE0B8DED080BD748006866
:1045A00007909DED0C2B9DED0A1B9DED080B8047A0
:1045B000D04880EDEE0BCE48D0F8F408059007F017
:1045C00053FB1FED420B53EC102BCDE906019DED83
:1045D000060B51EC100B07F05DFACDE90C01C44855
:1045E000D0F8F408059007F03FFB1FED4C0B53EC9F
:1045F000102BCDE906019DED060B51EC100B06F0DA
:10460000C1FCCDE90A01BE484068079007F02CFBC9
:10461000CDE90801B948006807909DED0C2B9DED90
:104620000A1B9DED080B8047B64880ED020B1899D8
:1046300003F066FE8DED0A0BB04800681FED5F2B9E
:104640001FED681B09909DED0A0B80478DED0C0B4B
:104650009DED0C0B51EC100B06F062FC13909DEDE0
:10466000160AB5EEC00AF1EE10FA39D0A448406837
:104670000E9007F0F9FA0A4601469D4800F5F760EA
:1046800006C09DED160A5FED6F0A20EE200A8DED43
:10469000090A099807F0E8FACDE90C01954890ED70
:1046A0007C0B8DED080B9DED080B53EC102B1FEDD3
:1046B000780B51EC100B06F0E1FFCDE90A019DEDFE
:1046C0000C0B53EC102B9DED0A0B51EC100B06F06C
:1046D00059FC0A460146864800F5BE6006C02DE03A
:1046E0009DED130A5FED870A20EE200A8DED090A81
:1046F000099807F0B9FACDE90C017E4890ED7C0BE2
:104700008DED080B9DED080B53EC102B1FED900B5E
:1047100051EC100B06F0B2FFCDE90A019DED0C0B38
:1047200053EC102B9DED0A0B51EC100B06F02AFCFC
:104730000A4601466E4800F5BE6006C000BF6C48E0
:1047400090F80009012804D0694890F8000902286F
:104750007ED16748D0F8F8080B9007F085FACDE9CC
:104760000E01654890ED020ADFED670A30EE200A7F
:104770008DED0B0A0B9807F077FACDE90C01614833
:10478000483090ED140B8DED0A0B5C4800680990E1
:104790009DED0E2B9DED0C1B9DED0A0B804759489E
:1047A000483080ED140B5248D0F8F808099007F013
:1047B0005BFACDE90E014E48D0F8F808079007F0F3
:1047C00053FA9FED520B53EC102BCDE908019DEDF0
:1047D000080B51EC100B06F0D5FBCDE90C01484855
:1047E0008068099007F040FACDE90A014348006863
:1047F00009909DED0E2B9DED0C1B9DED0A0B804746
:104800004048983080ED020B189903F079FD8DED4A
:104810000C0B3A4800689FED3F2B9FED401B0B901F
:104820009DED0C0B80478DED0E0B9DED0E0B51ECAD
:10483000100B06F075FB14903A48006880880F90C2
:104840003848C0680E90DDE90E108847109000E0EF
:10485000CCE01098022873D0294880680F9007F0A8
:1048600003FA0A46014627484830C0E914122D4889
:1048700000688088019006F06CFE1FEDFC0B53EC85
:10488000102BCDE902019DED020B51EC100B07F04E
:1048900001F99FED250B53EC102BCDE904019DEDA3
:1048A000040B51EC100B06F029FC9FED210B53EC8F
:1048B000102BCDE906019DED060B51EC100B06F017
:1048C000DDFE9FED160B53EC102BCDE908019DED9D
:1048D000080B51EC100B06F0D1FE9FED170B53ECBB
:1048E000102BCDE90A019DED0A0B51EC100B28E0CD
:1048F000300000203004002020090020E0090020C2
:1049000088090020E80700200000FA4300000000AA
:104910000070874000000000000044C0000000005C
:1049200000004440E00A00200000000000408F40EA
:104930000000000000000040000000A09999B93F6D
:1049400025E006F09BFECDE90E012A4890EDA20B72
:104950008DED0A0B9DED0A0B53EC102B9FED260BF2
:1049600051EC100B06F08AFECDE90C019DED0E0B0B
:1049700053EC102B9DED0C0B51EC100B06F002FBD1
:104980000A4601461E4800F5D16006C02DE09DEDA7
:10499000140ADFED1C0A20EE200A8DED0B0A0B989D
:1049A00007F062F9CDE90E01124890EDA20B8DEDF2
:1049B0000A0B9DED0A0B53EC102B9FED0F0B51ECE6
:1049C000100B06F05BFECDE90C019DED0E0B53ECD8
:1049D000102B9DED0C0B51EC100B06F0D3FA0A4690
:1049E0000146074800F5D16006C000BF00BFFFF7D1
:1049F0007CBB000030040020000000C0CCCCEC3FA9
:104A000030000020CDCCCC3D0D4800880D490880F9
:104A10000B48408848800A48808888800A48008877
:104A20000A2803DD00200949087407E006480088C9
:104A3000401C0549088001200449087470470000A3
:104A40005812002064120020DC0A0020E00A002036
:104A500070B504460D4607200F490870AA2048701B
:104A60008870EF20C87002200871084645718C716B
:104A70000026012005E00849095C3144CEB2411C02
:104A8000C8B20728F7DB0448C67104480821426809
:104A90000148904770BD0000300C0020380B00200A
:104AA00070B506460C4600250A48C079A04201DAD6
:104AB000002070BD002509E0701907498A68054982
:104AC000904708B90020F4E7681C85B2A542F3DBE3
:104AD0000120EEE7C4170020480B002031B52DED72
:104AE000040B2DED108B86B005469FED890AB0EEC4
:104AF00040FA9FED870AF0EE408A9FED850A8DED22
:104B0000040A002483480088401C82490880284603
:104B100006F01FFD41EC1A0B9FED7F0B53EC102BA1
:104B200006F0ECFA41EC190B06F0FAF908EE100A5F
:104B30007B48006890ED040A10EE101A084607F052
:104B400093F841EC1A0B9FED770B53EC102B06F00A
:104B500095FD41EC190B06F0E3F904909DED180A60
:104B6000F0EE40FA7148D0ED020A9DED040A30EEF5
:104B7000600AF0EE408A9FED6E0A68EE800A6D488A
:104B800090ED000A00EE880A80ED000A9FED6A0AA7
:104B900068EE800A694890ED000A00EE880A80ED10
:104BA000000A9FED670A68EE800A664890ED000AE9
:104BB00000EE880A80ED000A5C4890ED080A624821
:104BC00080ED000A5B4890ED000A3FEE800A5748EE
:104BD00080ED080A90ED080A5B48D0ED000A30EE3F
:104BE000200A20EE080A10EE101A084607F03CF8DA
:104BF00041EC1A0B9FED550B53EC102B06F07EFA8F
:104C000041EC190B06F08CF90FEE100A18EE100AA1
:104C100007F02AF841EC1C0B1FEE100A07F024F8ED
:104C20009FED4C0B53EC102BCDE900019DED000BDB
:104C300051EC100B06F022FD41EC1D0B3B4890EDB2
:104C4000050A10EE101A084607F00EF841EC1E0B8C
:104C500053EC1D2B06F096F953EC1C2BCDE9020109
:104C60009DED020B51EC100B06F008FD41EC1A0B08
:104C70003A48006806F0F8FF41EC1B0B53EC1A2B86
:104C800006F080F941EC190B06F04AF93349086047
:104C9000084690ED000A2B48D0ED000A30EE200ABD
:104CA000224880ED020A2E4890ED000A30EE0F0AED
:104CB00080ED000A90ED000A2048D0ED000A30EEA9
:104CC000200A1A4880ED050A12480088012819DBDD
:104CD0003C240CE0601E234901EB800090ED000AAB
:104CE000084600EB840080ED000A601E84B2002CB0
:104CF000F0DC0E4890ED020A1A4880ED000A002010
:104D00000449088006B0BDEC108B05B030BD000032
:104D100000000000CC0900200000000000408F408F
:104D2000780A002000000000000059408809002097
:104D30006F12833DB40900208FC2F53EB8090020F0
:104D4000CDCC4C3FBC090020C00900200000000071
:104D500000000040000000000000E03FC809002003
:104D6000C4090020100E00201CB501210846FBF7E5
:104D70004BFE01210220FBF747FEC82000900220D5
:104D80008DF8040003208DF8050000208DF8060042
:104D900001208DF8070069461A48FBF778FD0122CB
:104DA00003211848FBF7BBFD022206211548FBF73B
:104DB000B6FD022207211348FBF7B1FD40F2034084
:104DC000009002208DF8040003208DF805000020DB
:104DD0008DF8060001208DF8070069460A48FBF7A8
:104DE00056FD022200210848FBF799FD022201210D
:104DF0000548FBF794FD01220A210348FBF78FFDCC
:104E00001CBD000000000240000402403EB5044604
:104E100068469FED3E0A80ED000A9FED3C0A80ED5A
:104E2000010A9FED3A0A80ED020A00BF384A526833
:104E300092ED000AF0EE402A354A526892ED010ADE
:104E4000B0EE402A324A526892ED020AF0EE401A61
:104E5000304A526802F118002F4A916890ED021A08
:104E6000D0ED010A90ED000A88478DED000ACDEDE6
:104E7000010A8DED021A9DED000ADFED280A80EE91
:104E8000201A8DED001A9DED000ADFED250A20EEB7
:104E9000200A8DED000A9DED010ADFED200A80EE6B
:104EA000201A8DED011A9DED010ADFED1D0A20EE9D
:104EB000200A8DED010A9DED020ADFED180A30EEA1
:104EC000600A8DED020A9DED020ADFED140A80EE04
:104ED000201A8DED021A9DED020ADFED110A20EE77
:104EE000200A8DED020A9DED021ADDED010A9DED0D
:104EF000000A2046FFF7F2FD9DED021ADDED010AE2
:104F00009DED000A204602F07BFA3EBD0000000045
:104F100054090020100A0020E009002000F07F451D
:104F200000007544FEB50020029001900124002588
:104F3000CF480068007840EA4505CD4800684078D1
:104F400040EA4500C5B2CA480068807840EA45009A
:104F5000C5B2C7480068C07840EA4500C5B2AA2279
:104F60002146641CC34842542146641C4254A12279
:104F70002146641C425400222146641C4254BE480F
:104F800090ED020A8DED000A9DF800202146641C78
:104F9000B84842549DF801202146641C42549DF8B3
:104FA00002202146641C42549DF803202046611CC7
:104FB000CCB2B0490A54B1484068D0ED000AB0EE16
:104FC000600A01F07BFF8DED000A9DF8002020466D
:104FD000611CCCB2A7490A549DF801202046611CEF
:104FE000CCB2A4490A549DF802202046611CCCB2E0
:104FF000A0490A549DF803202046611CCCB29D496B
:105000000A549E484068D0ED010AB0EE600A01F0F3
:1050100055FF8DED000A9DF800202046611CCCB2A2
:1050200094490A549DF801202046611CCCB2914954
:105030000A549DF802202046611CCCB28D490A54C6
:105040009DF803202046611CCCB28A490A548B4843
:105050004068D0ED020AB0EE600A01F02FFF8DED3E
:10506000000A9DF800202046611CCCB281490A54F8
:105070009DF801202046611CCCB27E490A549DF85F
:1050800002202046611CCCB27A490A549DF80320C4
:105090002046611CCCB277490A547948406890EDAB
:1050A000060A8DED000A9DF800202046611CCCB256
:1050B00070490A549DF801202046611CCCB26D490C
:1050C0000A549DF802202046611CCCB269490A545A
:1050D0009DF803202046611CCCB266490A546848FA
:1050E000406890ED070A8DED000A9DF800202046EB
:1050F000611CCCB25F490A549DF801202046611C16
:10510000CCB25C490A549DF802202046611CCCB206
:1051100058490A549DF803202046611CCCB25549D9
:105120000A545748406890ED080A8DED000A9DF832
:1051300000202046611CCCB24E490A549DF8012043
:105140002046611CCCB24B490A549DF802202046EF
:10515000611CCCB247490A549DF803202046611CCB
:10516000CCB244490A544648406890ED090A8DED96
:10517000000A9DF800202146601CC4B23D484254FC
:105180009DF801202046611CCCB23A490A549DF892
:1051900002202046611CCCB236490A549DF80320F7
:1051A0002046611CCCB233490A543548406890ED22
:1051B0000A0A8DED000A9DF800202046611CCCB241
:1051C0002C490A549DF801202046611CCCB2294983
:1051D0000A549DF802202046611CCCB225490A548D
:1051E0009DF803202046611CCCB222490A54244871
:1051F000406890ED0B0A8DED000A9DF800202046D6
:10520000611CCCB21B490A549DF801202046611C48
:10521000CCB218490A549DF802202046611CCCB239
:1052200014490A549DF803202046611CCCB2114950
:105230000A542046611CCCB20E490D54601F0871FF
:105240000026012005E00B49095C3144CEB2411C27
:10525000C8B2A042F7DB2046611CCCB205490E540F
:10526000601E087007482146426802489047FEBD0C
:10527000F4090020300C0020780B00205409002095
:10528000100A0020380B002010B52DED028B0446CB
:105290003C490968888806F05CF941EC180B9FEDE1
:1052A0003A0B53EC102B06F0E7FA09D201203849EB
:1052B000096808703748C1684FF40050884716E005
:1052C00030490968888806F044F941EC180B9FEDD5
:1052D0002E0B53EC102B06F095F908D200202C4928
:1052E000096808702B4881684FF4005088472848A7
:1052F00000684078012827D10020274908802149EB
:105300000968488806F025F941EC180B9FED230B3E
:1053100053EC102B06F0B0FA12D21D4800688078CA
:1053200070B92048008820441E490880084600883B
:10533000B0F5FA6F1DDD002015490968487018E0C6
:1053400000201849088014E01148006800780128FE
:105350000FD10F4800688078012806D00C480068FB
:10536000007811490978884203D00120084909686A
:1053700048700748006800780B490870BDEC028B44
:1053800010BD0000E00A0020000000000038A84026
:10539000F4090020C00A0020D60900200000000007
:1053A00000E8AC40D8090020DC09002000B52DED54
:1053B000048B85B03C22D021634803F004FBC0B2CB
:1053C0008DF80C003B22D0215F4803F0FCFAC0B2FC
:1053D0008DF80D009DF80C009DF80D1040EA01209D
:1053E00000B2ADF804003E22D021574803F0EBFA9A
:1053F000C0B28DF80E003D22D021534803F0E3FAED
:10540000C0B28DF80F009DF80E009DF80F1040EA15
:10541000012000B2ADF806004022D0214A4803F036
:10542000D2FAC0B28DF810003F22D021464803F0D6
:10543000CAFAC0B28DF811009DF810009DF8111045
:1054400040EA012000B2ADF80800BDF9040000EE0A
:10545000100AB8EEC00A3D4880ED000ABDF906000A
:1054600000EE100AB8EEC00A384880ED010ABDF916
:10547000080000EE100AB8EEC00A344880ED020AB7
:1054800090ED000AD0ED0C0A30EE600AB1EE400A51
:1054900010EE101A084606F0E7FB41EC190B9FEDE1
:1054A0002C0B53EC102B06F0E9F841EC180B05F02F
:1054B00037FD26498861084690ED010AD0ED0D0AB6
:1054C00030EE600A10EE101A084606F0CDFB41ECF3
:1054D000190B9FED1F0B53EC102B06F0CFF841EC8E
:1054E000180B05F01DFD1949C861084690ED020A28
:1054F000D0ED0E0A30EE600A10EE101A084606F0E3
:10550000B3FB41EC190B9FED120B53EC102B06F083
:10551000B5F841EC180B05F003FD0C49086208468C
:1055200090ED081AD0ED070A90ED060A0A4801F03E
:10553000F1FF064880ED060AC0ED070A80ED081A63
:1055400005B0BDEC048B00BD20100020A41000208D
:10555000ECF0CD46D39A633F2C1000201FB54422B7
:10556000D021464803F02FFAC0B28DF8080043223C
:10557000D021424803F027FAC0B28DF809009DF807
:1055800008009DF8091040EA012000B2ADF80000C3
:105590004622D021394803F016FAC0B28DF80A002D
:1055A0004522D021354803F00EFAC0B28DF80B0029
:1055B0009DF80A009DF80B1040EA012000B2ADF8FA
:1055C00002004822D0212D4803F0FDF9C0B28DF829
:1055D0000C004722D021294803F0F5F9C0B28DF81C
:1055E0000D009DF80C009DF80D1040EA012000B25E
:1055F000ADF80400BDF9000000EE100AB8EEC00AD4
:105600001F4880ED030ABDF9020000EE100AB8EE53
:10561000C00A1B4880ED040ABDF9040000EE100A20
:10562000B8EEC00A164880ED050A90ED030AD0EDE9
:105630000F0A30EE600A80ED090A90ED040AD0ED01
:10564000100A30EE600A80ED0A0A90ED050AD0EDEE
:10565000110A30EE600A80ED0B0A90ED0B1AD0EDC6
:105660000A0A90ED090A074802F039F9044880ED6A
:10567000090AC0ED0A0A80ED0B1A1FBD2010002098
:10568000A41000207010002070B5002435E01C48E4
:1056900003F077FAEE211A4803F0EEFA184803F007
:1056A0009BFAA02000EB4400C1B2154803F0E4FAD5
:1056B000134803F091FA124803F063FAEF211048FF
:1056C00003F0DAFA0E4803F087FA0D4803F0ADFA5A
:1056D00005460B4803F0D7F9094803F0A6FA064639
:1056E000074803F033FA064803F00DFA46EA0520AE
:1056F000044921F81400601CC4B2062CC7DD70BD3B
:1057000098110020C011002000B587B001210420AD
:10571000FBF78AF92848FBF7CDFB4FF6FF700290A4
:105720002920ADF804000020ADF80C00ADF806000B
:1057300001A92148FBF792FE0020ADF812000120DC
:10574000ADF814000020ADF81600ADF81800ADF863
:10575000100004A91848FBF7B6FC0420ADF81000AF
:1057600004A91548FBF7AFFC0820ADF8100004A908
:105770001148FBF7A8FC0C20ADF8100004A90E4856
:10578000FBF7A1FC01210C48FBF788FB0122022159
:105790000948FBF7D8FC012204210748FBF7D3FC9A
:1057A000012208210448FBF7CEFC01221021024807
:1057B000FBF7C9FC07B000BD000800402DE9F84325
:1057C00006460C469146344847794FF000080025BC
:1057D00060E03248304982680DF10100904720B9FD
:1057E0002D494F710020BDE8F8839DF80000AA28DC
:1057F0004CD19DF80100AF2848D12848264982683D
:105800004846904728B1254823498268204690475A
:1058100018B921494F710020E5E705F1AA00C5B28A
:1058200005F1AF00C5B299F800002844C5B2207850
:105830002844C5B24FF0000812E006EB08001749F3
:105840008A681549904718B913494F710020CAE773
:1058500016F808002844C5B208F1010000F0FF085E
:1058600020784045E9DC217888190C498A680A4982
:10587000904718B908494F710020B4E72078305C90
:10588000A84201D10120AEE70020ACE79DF801005D
:105890008DF800009DE70000C4170020480B002091
:1058A0001CB5002001900090002448486A4601A9D8
:1058B000C3684748984701287ED14648D0E9001080
:1058C000491C40F10000434AC2E9001040489DF8DD
:1058D0000410445C9DF80000302816D006DC012836
:1058E00009D002280BD010286DD109E031281FD033
:1058F000A12868D13CE001203749087064E063E0EA
:1059000010212046FFF7A4F85EE031484078304986
:10591000097840EA012000B2002804DD01202F4967
:105920000968487003E000202C490968487000BFEE
:10593000274840782649097840EA012000B200282B
:1059400004DD002025490968087010E020484078EF
:105950001F49097840EA012000B220B901201F49FF
:105960000968087003E002201C490968087000BF3C
:10597000174840781649097840EA012000B21749D3
:10598000C8601348C0781249897840EA012000B203
:10599000124908610E4840790D49097940EA012011
:1059A00000B20E4948610A48C0790949897940EA3C
:1059B000012000B2074901E007E004E00968401A4D
:1059C0000649886100E000BF00BF1CBD380B002005
:1059D000A00C002028000020100A0020F40900205C
:1059E00010B57748007800F0010048B9744803F01A
:1059F000F2F928B1734802F0A5FF7148AFF30080B7
:105A00007148007800F0010048B96F4803F0E3F9ED
:105A100028B16E4802F096FF6B48AFF300806C48E7
:105A20000078012868D16B480068E0B99FED6A0AE8
:105A30006A4880ED0C0A9FED680A80ED0D0A9FED23
:105A4000660A80ED0E0A9FED640A80ED0F0A9FED55
:105A5000620A80ED100A9FED600A80ED110A0120B4
:105A60005C49086010BD5B48006840F6B831884268
:105A700043DC58480068401C56490860514890ED86
:105A8000000A5648D0ED000A30EE200A4D4880ED5D
:105A9000000A90ED010A5148D0ED010A30EE200ACB
:105AA000484880ED010A90ED020A4C48D0ED020A08
:105AB00030EE200A434880ED020A444890ED000A87
:105AC0004648D0ED030A30EE200A404880ED000A37
:105AD00090ED010A4148D0ED040A30EE200A3B481F
