:020000040800F2
:10000000901E00206D020008750900086D090008A7
:1000100071090008870600081F180008000000008A
:100020000000000000000000000000008D0B000830
:10003000F906000800000000050A0008910B0008FE
:10004000870200088702000887020008870200086C
:10005000870200088702000887020008870200085C
:10006000870200088702000887020008870200084C
:10007000870200088702000887020008870200083C
:10008000870200088702000887020008870200082C
:10009000870200088702000887020008870200081C
:1000A000870200088702000887020008870200080C
:1000B0008702000887020008110C00088702000868
:1000C00087020008870200088702000887020008EC
:1000D000870200081115000885150008870200082E
:1000E00087020008870200088702000887020008CC
:1000F00087020008870200088702000887020008BC
:100100008702000887020008290E000887020008FD
:1001100025140008870200088702000887020008EB
:10012000870200088702000887020008870200088B
:10013000870200088702000887020008870200087B
:10014000870200088702000887020008870200086B
:10015000870200088702000887020008870200085B
:10016000870200088702000887020008870200084B
:10017000870200088702000887020008870200083B
:10018000870200088702000800F002F800F05EF81D
:100190000AA090E8000C82448344AAF10107DA45E2
:1001A00001D100F053F8AFF2090EBAE80F0013F0D6
:1001B000010F18BFFB1A43F00103184764C3000086
:1001C00084C300000A444FF0000C10F8013B13F008
:1001D000070408BF10F8014B1D1108BF10F8015BA0
:1001E000641E05D010F8016B641E01F8016BF9D193
:1001F00013F0080F1EBF10F8014BAD1C0C1B09D1EA
:100200006D1E58BF01F801CBFAD505E014F8016B5B
:1002100001F8016B6D1EF9D59142D6D370470000ED
:100220000023002400250026103A28BF78C1FBD8FF
:10023000520728BF30C148BF0B6070471FB50BF095
:10024000FCFA00F08DF81FBD10B510BD00F024F9C8
:100250001146FFF7F3FF0AF0F7FA00F042F903B492
:10026000FFF7F2FF03BC00F043F9000009488047A4
:1002700009480047FEE7FEE7FEE7FEE7FEE7FEE788
:10028000FEE7FEE7FEE7FEE704480549054A064BA0
:1002900070470000A90B0008890100089018002091
:1002A000901E0020901A0020901A002010B54C10CB
:1002B00084EA530404D54042C1F1000138BF491E0D
:1002C0001B4204D55242C3F1000338BF5B1E00F04D
:1002D00059F814F0804F04D04042C1F1000138BFFA
:1002E000491E14F0004F04D05242C3F1000338BF3E
:1002F0005B1E10BD10B5203AC0F00B80B1E818505D
:10030000203AA0E81850B1E81850A0E81850BFF4FF
:10031000F5AF5FEA027C24BFB1E81850A0E818509E
:1003200044BF18C918C0BDE810405FEA827C24BFF2
:1003300051F8043B40F8043B08BF7047D20728BF80
:1003400031F8023B48BF11F8012B28BF20F8023BCF
:1003500048BF00F8012B7047704770477047000096
:1003600070B5064C7C44064D7D4403E02068204473
:100370008047241DAC42F9D170BD0000D8C10000F7
:10038000FCC1000053EA020C00F069802DE9F04B3B
:100390004FF00006002B1FBFB3FA83F503FA05F4F4
:1003A00024FA05F65E4012BF1643B2FA82F502FA4D
:1003B00005F4C5F120051EBF22FA05FC44EA0C0431
:1003C000203556EA044C4FEA144418BF641C4FF021
:1003D00000084FF00009904271EB030C39D300295B
:1003E00019BFB1FA81F701FA07F6B0FA80F700FAFF
:1003F00007F6C7F120071EBF20FA07FC46EA0C06E5
:100400002037B6FBF4FCA7EB0507103F07F01F0BE6
:10041000CBF120060CFA0BFB2CFA06F644BFB346D0
:100420000026202FA4BF5E464FF0000B5BEA060CAF
:1004300008BF4FF0010B19EB0B09ABFB027C48EB3B
:100440000608C01B06FB02CC0BFB03CC71EB0C01B6
:10045000C1E70B46024641464846BDE8F08B13B55E
:100460004FF000004FF00001AFF30080BDE81C40EA
:10047000704710B500F008F8006810BD10B50446CC
:1004800000F002F8046010BD004870472C180020EE
:10049000004870472C1800207546FFF7F9FFAE465C
:1004A00005006946534620F00700854618B020B580
:1004B000FFF7EAFEBDE820404FF000064FF00007CE
:1004C0004FF000084FF0000B21F00701AC46ACE8FC
:1004D000C009ACE8C009ACE8C009ACE8C0098D4669
:1004E00070470446AFF300802046FFF7B8FE0000D7
:1004F00001491820ABBEFEE726000200704721B17B
:10050000826842F00102826003E0826822F0010208
:10051000826070470021084A1168084A1140D0E9FA
:1005200000231A4383681A43C3681A431143044AD9
:10053000C2F804137047000004230140E030FCFFC0
:100540000020014021B1826842F48072826003E0A1
:10055000826822F480728260704721B1826842F41E
:100560000072826003E0826822F400728260704749
:1005700030B50246002000235068104C20400D7911
:100580000C6844EA05242043506090680C4C2040DD
:10059000D1E903542C438D682C434D7944EA45043A
:1005A00020439060D06A20F470000C7D641EE4B299
:1005B000234340EA0350D06230BD0000FFFEFFFC41
:1005C000FDF7FFC0F0B504460D4600200021092DBF
:1005D00011DDE068A5F10A0606EB4607072606FAD4
:1005E00007F18843A5F10A0606EB460603FA06F171
:1005F0000843E0600CE0206905EB4507072606FA92
:1006000007F1884305EB450603FA06F1084320612C
:10061000072A0FDA606B561E06EB86071F2606FABE
:1006200007F18843561E06EB860605FA06F10843D5
:10063000606322E00D2A0FDA206BD61F06EB8607D7
:100640001F2606FA07F18843D61F06EB860605FA31
:1006500006F10843206310E0E06AA2F10D0606EB04
:1006600086071F2606FA07F18843A2F10D0606EB5E
:10067000860605FA06F10843E062F0BD816841F0A4
:1006800080418160704700BFFEE721B1026842F0FF
:100690000102026003E0026822F00102026070477A
:1006A00010B500220268134B1A40CC680B68234334
:1006B0004C6923438C692343CC6923430C6A23434D
:1006C0004C6A23438C6A23434C6B23438C6B234338
:1006D0001A430260426922F00702D1E90B34234336
:1006E0001A4342610B6943604B6883608B68C36047
:1006F00010BD00003F801CF07047000001490860F9
:10070000704700000C3C024070B504460A460026C3
:10071000092502B909E0012A01D1160205E0022AE1
:1007200001D1160201E04FF4407600F09FF8054633
:10073000092D28D11548006820F44070134908603D
:1007400008460068304308600846006820F0F8005A
:1007500008600846006844F0020108430B4908603D
:100760000846006840F48030086000F07FF80546D5
:100770000648006820F00200044908600846006846
:1007800020F0F8000860284670BD0000103C0240D0
:1007900009201349096801F48031B1F5803F01D186
:1007A00001201CE00E49096801F0100109B1062082
:1007B00015E00B49096801F4807109B102200EE0CF
:1007C0000749096801F0E00109B1072007E0044981
:1007D000096801F0020109B1082000E00920704712
:1007E0000C3C02400348006840F0004001490860AA
:1007F00070470000103C024030B502460C46092507
:1008000000F034F80546092D19D10E48006820F48F
:1008100040700C4908600846006840F400700860A9
:100820000846006840F001000860146000F01EF8FF
:1008300005460448006820F0010002490860284687
:1008400030BD0000103C02400548006800F0004048
:1008500028B1044802490C39086003480860704711
:10086000103C024023016745AB89EFCD08B5092054
:100870000090FFF78DFF009002E0FFF789FF0090E6
:100880009DF800000128F8D09DF8000008BDF0B5E3
:100890000A4600210023002400BF3DE0012505FA9F
:1008A00001F3156805EA03049C4234D105684F0042
:1008B0000326BE40B543056015794E00B540066875
:1008C000354305601579012D02D01579022D16D119
:1008D00085684F000326BE40B543856055794E00BC
:1008E000B540866835438560456801268E40B5432E
:1008F0004560456896798E40B6B235434560C56817
:100900004F000326BE40B543C560D5794E00B540C3
:10091000C6683543C560491C1029BFD3F0BDF0B58A
:10092000002300244D07ED0E02FA05F3CE1000F16E
:10093000200555F826504E07F70E0F26BE40B5434A
:10094000CF1000F1200646F82750CE1000F1200508
:1009500055F8265045EA0304CE1000F1200545F86D
:100960002640F0BD418370470183704700BFFEE71A
:1009700000BFFEE77047000070B5002100230F2282
:10098000C4781CB3174C246804F4E064C4F5E06434
:10099000C4F30721C1F10404E3B20A4144789C4046
:1009A000E1B28478144021430C07210E0E4C0578E7
:1009B0006155047804F01F050124AC4005786D11E1
:1009C000AD0005F1E025C5F8004109E0047804F028
:1009D0001F050124AC40054D0678761145F82640E8
:1009E00070BD00000CED00E000E400E080E100E0FC
:1009F00002490143024A1160704700000000FA05F5
:100A00000CED00E07047000029B1064A126802436D
:100A1000044B1A6004E0034A12688243014B1A60D7
:100A2000704700003038024029B1064A126802437C
:100A3000044B1A6004E0034A12688243014B1A60B7
:100A4000704700004038024029B1064A126802434C
:100A5000044B1A6004E0034A12688243014B1A6097
:100A6000704700002038024029B1064A126802434C
:100A7000044B1A6004E0034A12688243014B1A6077
:100A8000704700004438024029B1064A1268024308
:100A9000044B1A6004E0034A12688243014B1A6057
:100AA0007047000024380240F0B5002100220024E5
:100AB000022500260223324F3F6807F00C0121B1C6
:100AC000042905D0082937D105E02E4F076036E00C
:100AD0002C4F076033E02A4F3F1F3F68C7F3805613
:100AE000274F3F1F3F6807F03F036EB1254FB7FB0D
:100AF000F3F7DFF88CC0ACF1040CDCF800C0CCF3E9
:100B0000881C07FB0CF40CE01E4FB7FBF3F7DFF873
:100B100070C0ACF1040CDCF800C0CCF3881C07FBFF
:100B20000CF4174F3F1F3F68C7F301477F1C7D0040
:100B3000B4FBF5F7076002E0124F076000BF00BF8B
:100B40000F4F3F6807F0F00109090F4F7A5C076803
:100B5000D74047600A4F3F6807F4E051890A0A4FBF
:100B60007A5C4768D7408760054F3F6807F460416B
:100B7000490B054F7A5C4768D740C760F0BD00005D
:100B8000083802400024F400780B00207047000071
:100B90000448036840685A1C40F1000001490A609B
:100BA00048607047700A002010B51548006840F48E
:100BB0007000134908601348006840F001001149B3
:100BC000086000200F49083108600E4800680E498F
:100BD00008400C4908600D48091D0860081F00689E
:100BE00020F48020091F0860002006490C310860AD
:100BF00001F00CF84FF0006001498039086010BD29
:100C000088ED00E000380240FFFFF6FE10300024BF
:100C100010B502217C4800F045FA012839D10221A3
:100C2000794800F038F97948006800F04000402821
:100C300010D1754800F027FA7549088072482030B5
:100C4000008840F00200704920310880002071497E
:100C500008801EE06C4800F016FA84B26C480088E8
:100C6000844205DD6A480088201A6B49088007E045
:100C70004FF6FF70204466490988401A664908808B
:100C800061482030008820F002005F492031088050
:100C900000BF04215C4800F005FA012836D1042188
:100CA000594800F0F8F85948006800F080008028A2
:100CB0000DD1554800F0EAF95849088052482030D3
:100CC000008840F020005049203108801EE04E4846
:100CD00000F0DCF984B251480088844205DD4F48B9
:100CE0000088201A4C49488007E04FF6FF702044E6
:100CF0004A490988401A48494880434820300088BA
:100D000020F0200040492031088000BF08213E48E3
:100D100000F0C8F9012837D108213B4800F0BBF8A2
:100D20003A48006800F48070B0F5807F0DD13648F5
:100D300000F0AFF93A49088033482030008840F489
:100D400000703149203108801EE02F4800F0A1F9E1
:100D500084B233480088844205DD31480088201A77
:100D60002D49888007E04FF6FF7020442C49098800
:100D7000401A2949888024482030008820F40070D7
:100D800021492031088000BF10211F4800F08AF956
:100D9000012837D110211C4800F07DF81B4800685D
:100DA00000F40070B0F5007F0DD1174800F074F921
:100DB0001C49088014482030008840F40050124933
:100DC000203108801EE0104800F066F984B2154812
:100DD0000088844205DD13480088201A0E49C88027
:100DE00007E04FF6FF7020440E490988401A0A496F
:100DF000C88005482030008820F400500249203186
:100E0000088000BF10BD0000000800401004024030
:100E1000D80A0020C00A002010120020DA0A0020A0
:100E2000DC0A0020DE0A002010B50121104800F085
:100E300039F9012816D10F48007810B101280FD1D7
:100E400006E005F0FFFC012801D10A49087008E01E
:100E500005F024FC012802D102200649087000E0B8
:100E600000BF00BF0121024800F015F810BD0000CE
:100E7000000C0040440A002021B1028842F08002A8
:100E8000028004E002884FF67F731A4002807047A8
:100E9000CA4302827047CA430282704721B1028866
:100EA00042F00102028004E002884FF6FE731A400D
:100EB0000280704710B504465548844208D101218C
:100EC0000846FFF7E1FD00210120FFF7DDFD9DE071
:100ED000B4F1804F08D101210846FFF7B5FD00218C
:100EE0000120FFF7B1FD91E04A48844208D1012179
:100EF0000220FFF7A9FD00210220FFF7A5FD85E0F4
:100F00004548844208D101210420FFF79DFD0021BE
:100F10000420FFF799FD79E04048844208D101217F
:100F20000820FFF791FD00210820FFF78DFD6DE0FF
:100F30003B48844208D101211020FFF785FD0021A4
:100F40001020FFF781FD61E03648844208D101217D
:100F50002020FFF779FD00212020FFF775FD55E0E7
:100F60003148844208D101210220FFF78DFD002184
:100F70000220FFF789FD49E02C48844209D1012174
:100F80000804FFF781FD00214FF48030FFF77CFD5E
:100F90003CE02748844209D101214804FFF774FD51
:100FA00000214FF40030FFF76FFD2FE0214884420D
:100FB00009D101218804FFF767FD00214FF480204B
:100FC000FFF762FD22E01C48844208D10121402045
:100FD000FFF73AFD00214020FFF736FD16E01748E5
:100FE000844208D101218020FFF72EFD00218020BE
:100FF000FFF72AFD0AE01248844207D1012180153B
:10100000FFF722FD0021A015FFF71EFD10BD000017
:10101000000001400004004000080040000C0040B7
:101020000010004000140040000401400040014056
:10103000004401400048014000180040001C0040EE
:1010400000200040F0B50C4615461E460021002247
:1010500000230189028B038C4FF6F8773940214336
:101060004FF6FC473A4040F201173A434FF6DD771E
:101070003B404FF6FF7707EA06172F433B430181BA
:1010800002830384F0BD0146486B70470146886BBC
:1010900070470146C86B70470146086C70470146AF
:1010A000486A704730B50246002000230024158AA4
:1010B00005EA0103958905EA010413B10CB1012089
:1010C00000E0002030BD70B505460C46208850B9C0
:1010D0002389A2886188284600F042FCE1882846DE
:1010E00000F031F925E0208804280AD12389A2885C
:1010F0006188284600F051FCE188284600F02CF970
:1011000017E0208808280AD12389A2886188284608
:1011100000F06BFCE188284600F02BF909E02389F8
:10112000A2886188284600F084FCE188284600F007
:1011300029F970BD002101804180012181800021B9
:10114000C180018170471AB183890B43838102E01A
:1011500083898B438381704770B50024002200236C
:10116000058C4FF6FE7635400584028C8388048B0F
:101170004FF68F752C40B51E2C400D882C43751EE4
:101180002A408D892A434D882A43104DA84202D017
:101190000F4DA84213D14FF6F7752A40CD892A4347
:1011A0004FF6FB752A408D882A434FF6FF652B408A
:1011B0004FF6FF552B400D8A2B434D8A2B438380DE
:1011C00004838D684563028470BD00000000014007
:1011D000000401400A460021018B4FF6F7731940C5
:1011E000114301837047000070B5002400220023E2
:1011F000058C4FF6EF7635400584028C8388048B8E
:1012000048F6FF752C404FF6FF452C400D884FF6F1
:10121000FF7606EA05252C434FF6DF752A408D89B7
:1012200006EA05152A434D8806EA05152A43154D99
:10123000A84202D0144DA8421DD14FF67F752A4016
:10124000CD894FF6FF7606EA05152A434FF6BF759E
:101250002A408D8806EA05152A434FF6FF352B40B4
:101260004FF2FF752B400D8A06EA85052B434D8A08
:1012700006EA85052B43838004838D688563028499
:1012800070BD000000000140000401400A4600213A
:10129000018B4FF2FF7319404FF6FF7303EA0223ED
:1012A000194301837047000070B500220023002419
:1012B000058C4EF6FF7635400584038C8488828B3E
:1012C00048F6FF752A404FF6FF452A400D884FF635
:1012D000FF7606EA05252A434DF6FF752B408D89DA
:1012E00006EA05352B434D8806EA05352B430A4DA2
:1012F000A84202D0094DA84208D14BF6FF752C40F8
:101300000D8A4FF6FF7606EA85152C43848082838A
:101310008D680564038470BD000001400004014035
:101320000A460021818B4FF2FF7319404FF6FF737D
:1013300003EA0223194381837047C1637047016444
:10134000704741627047028B4FF6F3731A40028375
:10135000028B0A4302837047028B4FF2FF331A401D
:101360000283028B4FF6FF7303EA01231A430283C1
:101370007047828B4FF6F3731A408283828B0A4345
:1013800082837047828B4FF2FF331A408283828BB5
:101390004FF6FF7303EA01231A438283704700006C
:1013A00000220288184B98420ED0184B98420BD05E
:1013B000B0F1804F08D0164B984205D0154B98429B
:1013C00002D0154B984204D14FF68F731A404B88C8
:1013D0001A43124B984207D0114B984204D04FF653
:1013E000FF431A400B891A4302804B68C3620B8883
:1013F0000385054B984202D0044B984201D18B7A69
:1014000003860123838270470000014000040140ED
:101410000004004000080040000C004000100040A4
:101420000014004038B540F22771324800F034F91A
:1014300090B131483149826868469047012805D10A
:101440009DF800102B4800F0E6F905E0002240F27C
:101450002771284800F04AF940F22551254800F04C
:101460001BF9002844D0234800F0D0F9C0B2009006
:101470002348D0F800012249C1F8040121494868F5
:1014800080471F49C1F800010846D0F80001D1F893
:101490000411401A322817D9194890F8FF0098B95A
:1014A000002405E01848005D15490855601CC4B2C9
:1014B000164800788442F5DB14480078104981F81A
:1014C000FF000020114908709DF800000E490F4AE6
:1014D000127888540D480078FE2804DA0B4800780A
:1014E000401C0A49087040F22551024800F0ACF84F
:1014F00038BD0000004C0040280B00205C14002088
:1015000068140020780A00205B130020F80A0020ED
:1015100008B540F22771174800F0BEF890B11648A0
:101520001649826868469047012805D19DF8001049
:10153000104800F070F905E0002240F227710D48D4
:1015400000F0D4F840F225510A4800F0A5F878B12F
:10155000084800F05BF9C0B2009040F22551054800
:1015600000F072F80448064942689DF80000904770
:1015700008BD000000100140280B0020701700205B
:101580007C17002010B50821274800F078F810B12A
:10159000254800F03BF92021234800F070F801288D
:1015A00040D1214800F032F9C4B220494868804750
:1015B0001F490968401A022810D900201D490870E7
:1015C0001D480078012803D100201B49087002E063
:1015D0000120194908700120184908701648007840
:1015E000012808D1134801780078401C114A107076
:1015F0001348445407E00F4801780078401C0D4A16
:1016000010701048445409494868804708490860E8
:1016100008480078192804D106480078401E05497A
:10162000087000BF10BD000000440040780A002090
:10163000500B0020540B0020350B0020340B0020F1
:1016400088170020A117002010B50022002340F6C3
:101650006A14A14200D100BF0A1201249440A3B22F
:10166000DC43048010BD21B1828942F400528281A2
:1016700004E082894DF6FF731A408281704702466A
:101680000020B1F5007F00D100BF13880B400BB1E3
:10169000012000E00020704770B5024600240023BE
:1016A0000025002040F66A16B14200D100BFC1F308
:1016B000421501F01F03012606FA03F3012D02D1A2
:1016C0009689334006E0022D02D1168A334001E0AC
:1016D000968A33400C12012606FA04F41688344028
:1016E00013B10CB1012000E0002070BDF0B503463D
:1016F000002400260025002040F66A17B94200D1D8
:1017000000BF1846C1F3421401F01F06012707FA73
:1017100006F5012C01D10C3004E0022C01D110306F
:1017200000E014301AB107682F43076002E0076831
:10173000AF430760F0BD00002DE9FF4705460E46A8
:101740000024A14600BFA046B08900B100BF2C8A8A
:1017500024F44054F08804432C82AC8941F20C609C
:101760008443B08831890843718908430443AC81BC
:10177000AC8A24F44074B0890443AC826846FFF715
:1017800093F92048854202D01F48854202D1DDF8F6
:101790000C9001E0DDF80890A88900F4004040B109
:1017A00009EBC90000EB091031684900B0FBF1F703
:1017B00007E009EBC90000EB091031688900B0FBB4
:1017C000F1F76420B7FBF0F004012009642101FB6C
:1017D0001078A88900F4004040B1322000EBC80026
:1017E000B0FBF1F000F00700044308E0322000EB0A
:1017F00008106421B0FBF1F000F00F0004432C81CD
:10180000BDE8FF87001001400014014001468888B0
:10181000C0F308007047C1F308028280704700BF20
:10182000FEE700000A48008800EE100AB8EE400A01
:101830009FED081AC0EE010A9FED070A20EE800A0C
:10184000F1EE000A20EE200A044880ED000A7047FD
:10185000E00A002000F07F4533335340E40A0020C3
:1018600010B54FF480510248FFF77CF810BD00001E
:101870000008024010B504460349886880470348C1
:1018800041682046884710BD480A0020580B0020B8
:1018900010B504460348816A204688470249C86853
:1018A000804710BD78090020140A002010B50446B6
:1018B0000349C86880470349C868804710BD0000D5
:1018C000F80900204409002010B540F666014FF0E9
:1018D0008040FFF732FD40F666010448FFF72FFD18
:1018E00040F666010148FFF728FD10BD00040040E6
:1018F00010B503F0A1F802F005F800F001F810BDF2
:1019000010B540F6B8300B49086048608860C86080
:101910000861486101464FF08040FFF70EFD40F638
:10192000B8310548FFF70BFD40F6B8310248FFF724
:1019300004FD10BDF811002000040040002100EE5D
:10194000901A0549415800EE901AB8EEE01ADFED02
:10195000031A81EE210A704700000E080000C842F9
:10196000F0B50C46154600210022068C4FF6FE7796
:101970003E400684018B028C4FF60C7631407E1C73
:1019800006EA03162E4331434FF6F576324044F013
:101990000106324301830284F0BDF0B50C461546C2
:1019A000002100220026078C4FF6EF7C07EA0C0787
:1019B0000784018B028C4FF6FF7707EA041640F686
:1019C000FF4739404FF6FF7707EA033739434FF6B1
:1019D000FF7707EA052739434FF65F773A4046F02D
:1019E00010073A4301830284F0BDF0B50C4615465A
:1019F000002100220026078C4FF6FF6C07EA0C0737
:101A00000784818B028C4FF6FF7707EA04264FF696
:101A10000C7739404FF6FF7707EA03172F43394316
:101A20004FF2FF573A4046F480773A43818302846D
:101A3000F0BDF0B50C461546002100220026078CAB
:101A40004EF6FF7C07EA0C070784818B028C4FF669
:101A5000FF7707EA043640F6FF4739404FF6FF7735
:101A600007EA052739434FF6FF7707EA033739437B
:101A700045F6FF773A4046F480573A438183028423
:101A8000F0BD00000149086849687047700A0020ED
:101A90002DE9F0472448046845684FF0E020866946
:101AA000002721480168426884EA010085EA0201B2
:101AB00008431CD11D480023026830463946FEF712
:101AC000F5FB4FF47A734FF0000CA4FB032805FBE1
:101AD000038304FB0C3C1346181A6CEB01014FF412
:101AE0007A7C10EB0C0041F10001BDE8F0874FF06B
:101AF000E02080690D490968B0FBF1F000220A4B33
:101B000019685B684FF47A78A1FB089A03FB08A375
:101B100001FB02311346B9EB000261EB030112EB4A
:101B2000080041F10001E0E7700A0020600A00208F
:101B30001CB501210420FEF767FF01208DF8040089
:101B400000208DF806008DF805008DF807004FF491
:101B50008050009069460448FEF799FE4FF480518A
:101B60000148FEF7FFFE1CBD0008024010B501F061
:101B700063F903F013FC012010BD000030B50346EB
:101B80000A4600210D4C94F8FF40944203DA0B4CB6
:101B900094F8FF0000E0D0B2002107E0074C645C3D
:101BA0005C540024054D6C544C1CE1B28142F5DBC1
:101BB0000024024D85F8FF4030BD0000681400206D
:101BC00070B504460D460B4948688047064604F444
:101BD0000050B0F5005F0CD107480068864208D974
:101BE0000648006880F400500449086070190249F2
:101BF000086070BD780A0020A40A00201408024082
:101C0000704700B500F094FC00BD00000CB500204A
:101C1000019000903448006840F4803032490860F8
:101C200000BF3148006800F4003000900198401C6B
:101C30000190009818B90198B0F5A04FF1D12A4849
:101C4000006800F4003010B10120009001E0002095
:101C500000900098012846D123484030006840F0A9
:101C600080502149403108602048006840F44040DD
:101C70001E4908601C48083000681B49083108608C
:101C80000846006840F4004008600846006840F4D8
:101C9000A05008601648091F0860081F006840F03F
:101CA0008070091F086000BF0F48006800F00070D6
:101CB0000028F9D040F205700E4908600A48083043
:101CC000006820F0030008490831086008460068F1
:101CD00040F00200086000BF03480830006800F0D0
:101CE0000C000828F8D10CBD0038024000700040FC
:101CF00010544007003C024000B50246FFF7C2FE08
:101D0000034600BFFFF7BEFE99188842FAD300BD14
:101D100070B50446FFF7BCFE054600BFFFF7B8FEEE
:101D20002A19801A71F10001F8DB70BD10B5012489
:101D3000FEF78AFDF320FEF7E1FC02215820FEF7B2
:101D4000E3FC3B4890ED0C0ADFED3A0A20EE200A56
:101D5000BDEEC00A10EE101A3748FEF74DFD0928F7
:101D600000D00024324890ED0D0ADFED320A20EE5B
:101D7000200ABDEEC00A10EE101A2F48001DFEF713
:101D80003BFD092800D00024294890ED0E0ADFED24
:101D9000290A20EE200ABDEEC00A10EE101A2648CD
:101DA0000830FEF729FD092800D00024204890EDD6
:101DB0000F0ADFED200A20EE200ABDEEC00A10EE69
:101DC000101A1D480C30FEF717FD092800D000241A
:101DD000174890ED100ADFED170A20EE200ABDEE3D
:101DE000C00A10EE101A14481030FEF705FD09283D
:101DF00000D000240E4890ED110ADFED0E0A20EE0F
:101E0000200ABDEEC00A10EE101A0B481430FEF77F
:101E1000F3FC092800D00024642107481830FEF79D
:101E2000EBFC092800D00024FEF7DCFC204610BDA6
:101E30005C1000200000C84200000E0810B58AB0F7
:101E4000044601210846FEF7DFFD01211020FEF7C0
:101E50000BFE072209212F48FEF761FD07220A2108
:101E60002C48FEF75CFD02208DF824008DF825003B
:101E700000208DF8260001208DF8270040020890F0
:101E800008A92448FEF703FD4FF48060089008A9D4
:101E90002048FEF7FCFC25208DF80C0000208DF872
:101EA0000D0001208DF80E008DF80F0003A8FEF73D
:101EB00063FD04940020ADF81400ADF81600ADF8F1
:101EC0001800ADF81C000C20ADF81A0004A9124847
:101ED000FFF732FC1148124AFF2103686846984711
:101EE00010489DE80E000EC00C480F4AFF21036801
:101EF000684698470D489DE80E000EC0012240F24A
:101F000025510548FFF7F2FB01210348FFF7ABFB22
:101F10000AB010BD0000024000100140280B002054
:101F200070150020701700206F1600207C1700200D
:101F300070B506460C4600250F4800790E49C97950
:101F4000401AA04201DA002070BD002509E0705D52
:101F50000A494A680849904708B90020F4E7681C14
:101F600085B2A542F3DB012240F227710448FFF756
:101F7000BDFB0120E8E7000070170020280B0020BF
:101F80000010014000B58FB001218805FEF73CFD2F
:101F9000012004900020009003900B9010480290C4
:101FA00000200D904FF400500890C0100690801053
:101FB00009900C48019000200E904FF400600790AB
:101FC000002005904FF400300A9069460648FEF75D
:101FD00067FB01210448FEF758FB0FB000BD00006D
:101FE000E00A00204C2001401064024010B50D486A
:101FF00006F0ACFA7C2300223C210A4806F060FA85
:10200000202301223C21074806F05AFA80230222AD
:102010003C21044806F054FA0348C1680A20884766
:1020200010BD0000BC100020780A002010B51C482C
:1020300006F08CFA1B48C1683220884780236B2247
:10204000D021174806F03CFA1648C1680520884799
:1020500000231922D021124806F032FA00236B2205
:10206000D0210F4806F02CFA00233722D0210C484B
:1020700006F026FA06231A22D021094806F020FA93
:1020800018231B22D021064806F01AFA10231C221E
:10209000D021034806F014FA03F04AFB10BD0000FB
:1020A000D80F0020780A002010B50C4806F0B1FACD
:1020B00008B9002010BDEE21084806F025FB0748AE
:1020C00006F0D2FA1E21054806F01EFB034806F072
:1020D000CBFA024806F05FFA0120EBE73811002046
:1020E00010B52DED048B86B00446012C54D15A490D
:1020F000096801F5FA6008F00CFF41EC190B57492B
:102100009FED572B9FED581BB0EE490AF0EE690A80
:1021100008688047B0EE408AF0EE608A51EC180BF8
:1021200008F0C8FE00904C49496801F5FA6008F0D3
:10213000F0FE41EC190B49499FED492B9FED4A1BDD
:10214000B0EE490AF0EE690A08688047B0EE408AAE
:10215000F0EE608A51EC180B08F0ACFE01903E499D
:10216000896801F5FA6008F0D4FE41EC190B3B498F
:102170009FED3B2B9FED3C1BB0EE490AF0EE690A48
:1021800008688047B0EE408AF0EE608A51EC180B88
:1021900008F090FE02904DE02F49086808F0B9FE63
:1021A00041EC190B2D499FED322B9FED2F1BB0EE0B
:1021B000490AF0EE690A08688047B0EE408AF0EEFE
:1021C000608A51EC180B08F075FE009022494868AF
:1021D00008F09FFE41EC190B20499FED252B9FED48
:1021E000221BB0EE490AF0EE690A08688047B0EE9B
:1021F000408AF0EE608A51EC180B08F05BFE01900B
:102200001549886808F085FE41EC190B13499FEDCC
:10221000182B9FED151BB0EE490AF0EE690A08680D
:102220008047B0EE408AF0EE608A51EC180B08F05F
:1022300041FE02904FF080400099FFF77EF80E4873
:102240000199FFF77CF80C480299FFF776F806B081
:10225000BDEC048B10BD0000F8110020D009002057
:102260000000000000CCA040000000000040AF4093
:102270000000000000409F400004004010B52DED1C
:102280000A8B04468A4890F8FC0801280CD189483A
:1022900006F00AF88748983006F006F8864806F0F7
:1022A00003F8BDEC0A8B10BD814890F800090028A6
:1022B0005AD1804805F0F8FF7E48983005F0F4FFC9
:1022C0007D4805F0F1FF7D490968888808F089FE9E
:1022D00041EC1C0B9FED7A0B53EC102B09F022F90B
:1022E00041EC1B0B9FED780B53EC102B08F00EFF0D
:1022F00041EC190B6E48D0F8E80800EE100AB8EE71
:10230000C00ADFED730A20EE200A10EE101A08460C
:1023100009F0F2F941EC1A0B53EC192B08F07AFB97
:1023200041EC180B08F0C6FD6149C1F8E808D1F886
:10233000E80808F0EEFD41EC190B66499FED662BAD
:102340009FED671BB0EE490AF0EE690A0868804706
:10235000B0EE408AF0EE608A51EC180B08F0AAFD4E
:102360005349C1F8E8089CE7514890F80009012852
:1023700007D1504805F098FF4E48983005F094FF7B
:1023800059E04B4890F80009022854D1564890ED86
:10239000060A10EE101A084609F0AEF941EC180BC7
:1023A0004C499FED522B9FED531BB0EE480AF0EEC7
:1023B000680A086880473E4880EDE60B21463D48A4
:1023C00005F022FEB0EE408AF0EE608A41499FEDB2
:1023D0004B2B9FED4C1B08688047354880EDE80B80
:1023E000414890ED070A10EE101A084609F084F9EA
:1023F00041EC180B37499FED3D2B9FED3E1BB0EE96
:10240000480AF0EE680A086880472A48983080ED4C
:10241000020B214605F0F8FDB0EE408AF0EE608A2E
:102420002C499FED362B9FED371B086880472148CC
:10243000983080ED040B1E4890F80009012804D064
:102440001B4890F80009022830D1274890ED080A6F
:1024500010EE101A084609F04FF941EC180B1D490F
:102460009FED222B9FED231BB0EE480AF0EE680A89
:1024700008688047104880ED020B214605F0C4FD36
:10248000B0EE409AF0EE609A12499FED132B9FED4B
:10249000141B08688047B0EE408AF0EE608A51EC69
:1024A000180B08F007FD0249C1F8E80800BFF8E67C
:1024B00020000020B0030020E0040020C40A002017
:1024C0000000000000407F40000000A09999F93F03
:1024D000CCCC4C3ED00900200000000000000000E1
:1024E0000000800C00C0824078090020000000003D
:1024F000000059C00000000000005940000000002A
:10250000000008C0000000000000084070B504464C
:102510000D4603F091F903F0E1F902F0E5FEB6EEA5
:10252000000A024880ED000A70BD0000BC0A0020CD
:1025300070B587B034480078012862D133480078FC
:1025400001280AD1002005E03149095C0DF800108E
:10255000411CC8B21928F7DB09E0002005E02D492D
:10256000095C0DF80010411CC8B21928F7DB0020E7
:102570002549087000BF39E00024002316E000EB75
:102580004002254D05EB820202EB83018A785AB1A5
:102590000D786D1C1DF805204D78EA408D782A4095
:1025A000CD78AA40144300BF591CCBB2032BE6DB05
:1025B000B4F5AF7F14D9A4F5AF7100EE101AF8EEA0
:1025C000400A9FED161A9FED160A00EE810ABCEE36
:1025D000C00A10EE101A8AB2124921F8102003E046
:1025E0000022104921F81020411CC8B20C28C3DB7E
:1025F0009DF818009DF8171040EA01200A4908804C
:1026000000BF07B070BD0000340B0020350B002068
:10261000A1170020881700208ABA00082FA1BD3F0B
:102620000000FA44D2170020380B0020014640F287
:102630001450814201DA02207047B1F5E16F01DDEB
:102640000020F9E70120F7E710B50446204604F022
:102650003BFA204602F032FC204604F00BFB10BD92
:1026600070B52DED048B00BF1C4988688047044677
:102670000D461B4903C9221A65EB0101104608F0FB
:10268000C3FC9FED180B53EC102B08F03FFD41EC01
:10269000180B134A30C2154B5868154B5B6803F191
:1026A0001801134B5B68B0EE485AF0EE685A90ED93
:1026B000024AD0ED013A90ED003AD1ED022A91EDB7
:1026C000012AD1ED001A93ED0B1AD3ED0A0A93ED0E
:1026D000090A03F023F9BDEC048B70BD780A0020D1
:1026E000700900208DEDB5A0F7C6B03E140A002099
:1026F000F80900200146B5EEC00AF1EE10FA05DB3C
:10270000F1EEC00AC1ED000A00207047DFED030AB8
:10271000C1ED000A4FF0FF30F7E7000000000000B5
:102720001CB501210846FEF76FF903208DF804005F
:102730000420009000208DF8070003208DF805008C
:1027400069460248FEF7A3F81CBD000000000240E5
:1027500010B503498868804702498868804710BDE2
:10276000F8090020140A002000B52DED060B2DED10
:102770000A8B83B0B0EE61BAF0EE42BAB0EE62CA34
:10278000684605F027FE9FED4A0A2BEE000AB0EEE0
:1027900040BA9FED470A2BEE800AF0EE40BA9FED5B
:1027A000440A2CEE000AB0EE40CAB0EE4B0A07F025
:1027B000B1FFB0EE408AB0EE6B0A07F0ABFFF0EE6F
:1027C00040AAB0EE4C0A07F0A5FFF0EE408AB0EE4A
:1027D0004B0A07F0E7FFB0EE409AB0EE6B0A07F045
:1027E000E1FFF0EE409AB0EE4C0A07F0DBFFB0EEEE
:1027F00040AA28EE2A0ADDED0D0A20EE200AF1EEAD
:10280000680A60EE890A2AEE291A41EE080A9DED4F
:102810000E1A00EE810A69EE0A0A28EEA91A41EEA4
:10282000080A9DED0F1A00EE810A8DED000A2AEECE
:10283000890ADDED0D0A60EE200A28EE880A6AEEAC
:10284000291AB0EE401A01EE891ADDED0E1AB0EE2B
:10285000600A01EE210AF1EE480A60EE8A0A28EECB
:10286000A91A41EE090A9DED0F1A00EE810A8DEDBD
:10287000010A2AEE8A0ADDED0E0A20EE200ADDEDBD
:102880000D0AB1EE691A01EE200A6AEEA80A9DED62
:102890000F1A00EE810A8DED020A9DED000ADDEDB2
:1028A000010A9DED021A03B0BDEC0A8B06B000BD13
:1028B00034FA8E3C10B58AB0044601210846FEF772
:1028C000A3F80121C804FEF7AFF8082200212A4826
:1028D000FEF725F8082201212748FEF720F80220FC
:1028E0008DF824008DF8250000208DF826000120A9
:1028F0008DF82700089008A91F48FDF7C8FF02209F
:10290000089008A91C48FDF7C2FF34208DF80C0080
:1029100000208DF80D0002208DF80E0001208DF8AA
:102920000F0003A8FEF728F804940020ADF8140067
:10293000ADF81600ADF81800ADF81C000C20ADF88D
:102940001A0004A90D48FEF7F7FE0D480D4AFF21B5
:102950000368684698470C489DE80E000EC00122A7
:1029600040F225510548FEF7C1FE01210348FEF75C
:102970007AFE0AB010BD000000000240004C00408A
:10298000280B00205C1200205C14002010B50948C0
:1029900005F0DCFDFFF788FB0748C1683220884757
:1029A00002F062FC0448C168C820884700F006F8BD
:1029B00010BD000038110020780A00202DE9F04FEA
:1029C0002DED088B85B000208046814600210C4605
:1029D0000D460E460F46D448007810B101280FD19D
:1029E00006E003F02FFF012801D1CF49087008E06D
:1029F00003F054FE012802D10220CB49087000E008
:102A000000BF00BFC8480078022804D005B0BDEC64
:102A1000088BBDE8F08FC54840890102C448D0E961
:102A20000020511A60F10000C14AC2E90010BF48FD
:102A300080890021D2E90032A0FB03CA01FB03A177
:102A400000FB0210410241EADC5000F5FA60C117B8
:102A5000B84A03C2B548808801040022B3480089FF
:102A6000B34BD3E900C3A0FB0CBE02FB0CEC00FB94
:102A700003C34FEADB1040EA4360081842EBE3125D
:102A8000AD4905C1A94840884FEAC0314FF0000266
:102A9000A648C088DFF898C2DCE9003CA0FB03BE72
:102AA00002FB03E300FB0C334FEA1B2040EA036008
:102AB000081842EB2322A14905C19E48D0E9003005
:102AC0004FF4FA629A1A70F100007DDA9848D0E962
:102AD0000010A1FB012300FB013301FB0030D10FEB
:102AE00041EA40084FEAE0799248D0E900A04FF46B
:102AF000FA61BAEB010260F10001104608F020FA19
:102B000041EC1B0B9FED8E1BB0EE4B0AF0EE6B0AF7
:102B100007F09CF9B0EE40AAF0EE60AA9FED8A0B98
:102B200053EC102B51EC1A0B08F0F0FA08F090FE61
:102B3000CDE90201DDE9021045104FEA3104DDE97B
:102B400002014FEA900040EA81764FEAA1077948F6
:102B5000D0E900107E4BC91A70F1FF303DDA75489C
:102B6000D0E900105B42C91840F100020846CDE9E7
:102B70000012114608F0E4F941EC1A0B9FED701BAE
:102B8000B0EE4A0AF0EE6A0A07F060F9B0EE409A39
:102B9000F0EE609A51EC190B08F05AFE82468B4613
:102BA00007210022AAFB01030BFB01310AFB0211E2
:102BB000024614194D410B214FF0000C5246A2FB66
:102BC000010E0BFB01E100E008E00AFB0C114910CB
:102BD0004FEA300296194F4100BF00BF5548D0E977
:102BE0000010B1EB080160EB0900524AC2E9001085
:102BF0005148D0E90010091B60EB05004E4AC2E9BC
:102C000000104E48D0E90010891B60EB07004B4ACA
:102C1000C2E900104F4800680023D2E9001CA0FB65
:102C2000012A03FB01A100FB0C11500D40EAC12C4D
:102C30004815414A06CABCEB010360EB0201D80B00
:102C400040EA4140C9133B4AC2E902011046D0E9BB
:102C500002200023D21A984100DAD7E63549D1E99B
:102C60000221104608F076FD00EE100ADFED3A0A68
:102C700080EE201AB0EE419ADFED380AB0EE490A34
:102C800006F0DEFDF7EE000A30EEC00ADFED340A92
:102C900020EE200AB0EE408AB0EE480A314804F037
:102CA00007FAB0EE408A30494868804700EE100AC3
:102CB000F8EE408A2D4903C908F04CFD00EE100AD9
:102CC00038EEC00A1B48D0ED040A78EE600A80EEA8
:102CD000801A11EE10AA504608F00EFD9FED240B4D
:102CE00053EC102B08F012FA07F062FE114948610C
:102CF0000846D0ED050AB0EE600A1F4804F0D8F986
:102D00000C4880ED050A9FED1D0A38EE400A80ED63
:102D1000040A18EE900A08F0FDFD144A03C20020D0
:102D20000149087000BF71E6440A002060110020CC
:102D3000280A002048110020380A0020300A00200C
:102D400000000000000000400000000000001440EF
:102D500024FAFFFF400A002080E6C547AEDC423E71
:102D6000002A2D4770110020780A0020580A002000
:102D70000000000000408F40B4110020000082C21B
:102D800010B52DED028B0446204608F02AF941ECDF
:102D9000180B9FED1A0B53EC102B08F07BF903D2A4
:102DA0000120BDEC028B10BD204608F01AF941EC61
:102DB000180B9FED140B53EC102B08F0A5FA01D261
:102DC0000320EEE7204608F00CF941EC180B9FEDCC
:102DD0000F0B53EC102B08F05DF90DD2204608F0D4
:102DE00000F941EC180B9FED0B0B53EC102B08F086
:102DF0008BFA01D20220D4E70020D2E700000000C5
:102E000000406F400000000000708740000000009C
:102E100000C08240000000000000794010B5044965
:102E200048688047034801684FF4E130884710BD87
:102E3000480A0020FC0A002010B501F0B7FE10BDC2
:102E400010B52DED028B86B0044603A805F0C2FA3A
:102E5000684605F0BFFA684890F8FC08012810D1D0
:102E6000654805F021FA6448983005F01DFA63487A
:102E700005F01AFA6249C868804706B0BDEC028BBB
:102E800010BD6048006890ED000A10EE101A084668
:102E900008F032FC584AC2E902015A48006890ED35
:102EA000010A10EE101A084608F026FC524A983221
:102EB000C2E902015348006890ED020A10EE101AB0
:102EC000084608F019FC4D4AC2E9020121464A4869
:102ED00004F05EFFB0EE408AF0EE608A51EC180B11
:102EE00007F066FD009021464348983004F050FFFB
:102EF000B0EE408AF0EE608A51EC180B07F058FDF6
:102F0000019021463D4804F043FFB0EE408AF0EEC8
:102F1000608A51EC180B07F04BFD02909DED000A02
:102F2000B1EE400ADDED010A30EE600ADDED020A85
:102F300070EE200A3048D0F8E80800EE100AB8EE2B
:102F4000C00A30EE800ABDEEC00A2D48006880ED50
:102F5000000A9DED000AB1EE400ADDED010A30EEF7
:102F6000200ADDED020A70EE600A2348D0F8E80876
:102F700000EE100AB8EEC00A30EE800ABDEEC00ABC
:102F80001F48006880ED010A9DED000ADDED010A91
:102F900030EE200ADDED020A70EE200A1648D0F865
:102FA000E80800EE100AB8EEC00A30EE800ABDEE66
:102FB000C00A1348006880ED020A9DED000ADDEDAD
:102FC000010A30EE600ADDED020A70EE600A0A487E
:102FD000D0F8E80800EE100AB8EEC00A30EE800A19
:102FE000BDEEC00A0648006880ED030A0448816807
:102FF0000120884700BF40E720000020500100204A
:10300000A80A002044090020F0B52DED108B8BB0EC
:1030100005469FEDFE0B8DED080B05A805F0DAF9CE
:1030200002A805F0D7F9FB4890F8FC08012823D145
:10303000F94805F039F9F848983005F035F9F748BE
:1030400005F032F9F648406890ED020AF54880ED47
:103050003B0AD0ED3B0AB0EE600A03F0A3FC10EE91
:10306000106A304608F048FBEA4A02F53E7203C295
:103070000BB0BDEC108BF0BDE64890F8000920B114
:10308000E44890F8000901287DD1E749096848889B
:1030900007F0A7FF41EC1E0B9FEDE40B53EC102B48
:1030A00008F040FA41EC1D0B07F082FC09EE100A13
:1030B000E049F2EE040AB0EE490A4868804710EE93
:1030C000106A304608F018FB41EC1C0B9FEDDA0B40
:1030D00053EC102B07F05AFD41EC1B0B9FEDD80B66
:1030E00053EC102B08F012F841EC1A0B07F060FCBF
:1030F00008EE900AB0EE680A03F054FC8DED050A64
:10310000C9490968088807F06CFF41EC1E0B9FED68
:10311000C70B53EC102B08F005FA41EC1D0B07F020
:1031200047FC09EE100AC349F2EE040AB0EE490A60
:103130004868804710EE106A304608F0DDFA41EC2E
:103140001C0B9FEDBD0B53EC102B07F01FFD41EC4A
:103150001B0B9FEDBB0B53EC102B07F0D7FF41EC83
:103160001A0B07F025FC08EE900AB0EE680A03F08F
:1031700019FC8DED060AA74890F8FF0801280BD12D
:10318000A748406800E00EE0D0ED020AA54890EDA7
:103190003B0A30EEC08A27E09E4890F8FF0818BB33
:1031A0009FEDA98A20E09B4890F8000902281BD1D6
:1031B000984890EDE81BB0EE410AF0EE610A51EC40
:1031C000100B07F0F5FB0590A04890ED041BB0EE46
:1031D000410AF0EE610A51EC100B07F0E9FB069092
:1031E0008F48406890ED028A9FED990AB4EEC08A3C
:1031F000F1EE10FA06DD9FED970A38EE400AB0EEC8
:10320000408A18E09FED940AB4EEC08AF1EE10FAFD
:1032100006D29FED900A38EE000AB0EE408A0AE02E
:1032200000BFB0EEC80ADFED8A0AB4EEE00AF1EEA4
:1032300010FA00D200BF9DED061AF0EE410A9DED96
:10324000051AB0EE410A7B49B0EE481AC8688047BB
:103250008DED050ACDED060A8DED071A9DED050AE7
:10326000DFED7E0A20EE200A10EE101A084608F064
:1032700043FA41EC190B674890ED721BB0EE410A1E
:10328000F0EE610A53EC102B9FED751B51EC110B06
:1032900007F03CFF41EC1A0B53EC192B07F0BAFB7B
:1032A0005C4A02F5E47203C29DED060ADFED6B0A8B
:1032B00020EE200A10EE101A084608F01DFA41EC24
:1032C000190B544890ED981BB0EE410AF0EE610ADC
:1032D00053EC102B9FED621B51EC110B07F016FF06
:1032E00041EC1A0B53EC192B07F094FB494A02F5F9
:1032F000187203C24A484068D0ED000AB0EE600A76
:1033000003F050FB10EE106A304608F0F5F9424A1F
:10331000C2E9020142484068D0ED010AB0EE600AFD
:1033200003F040FB10EE106A304608F0E5F93A4A27
:103330009832C2E902012946374804F029FDB0EE6F
:1033400040AAF0EE60AA3B499FED472B9FED481B3A
:1033500008688047B0EE409AF0EE609A51EC190B85
:1033600007F026FB029029462B48983004F010FD08
:10337000B0EE40AAF0EE60AA2E499FED3B2B9FEDE8
:103380003C1B08688047B0EE409AF0EE609A51EC22
:10339000190B07F00DFB03909DED020ADFED2F0ADC
:1033A00020EE200A10EE101A084608F0A5F941ECAC
:1033B000190B184890ED001BB0EE410AF0EE610ABF
:1033C00053EC102B9FED261B51EC110B07F09EFECA
:1033D00041EC1A0B53EC192B07F01CFB0D4A03C2EE
:1033E0009DED030ADFED1D0A20EE200A10EE101AF3
:1033F000084608F081F941EC190B064890ED261BB0
:10340000B0EE410AF0EE610A36E000000000000074
:103410000000000020000020E80100201803002028
:103420004409002020080020C40A002000000000F9
:1034300000407F40D00900200000000000408F4085
:10344000000000000000344000000000480400209C
:10345000000034430000B443000034C3CDCCCC3D65
:10346000000000C0CCCCEC3F00000020FB21E9BFF5
:1034700000000020FB21E93F53EC102B1FED081B3F
:1034800051EC110B07F042FE41EC1A0B53EC192BD7
:1034900007F0C0FA934A03C293484068D0ED020A8D
:1034A000B0EE600A03F07EFA10EE106A304608F0C3
:1034B00023F98E4AC2E90201A2F53E7090EDC00BDD
:1034C0008DED080B90EDC02BB0EE420AF0EE620AD3
:1034D00090EDBE2BB0EE421AF0EE621A53EC102BB8
:1034E00051EC110B08F01EF841EC190B9FED800B0D
:1034F00053EC102B07F008FF13D27A48983890ED60
:10350000C01BB0EE410AF0EE610A9FED7B1B53EC4D
:10351000112B51EC100B07F07DFA744AC2E902013D
:103520002FE07048983890EDC02BB0EE420AF0EED4
:10353000620A90EDBE2BB0EE421AF0EE621A53EC26
:10354000102B51EC110B07F0EDFF41EC190B9FED27
:103550006C0B53EC102B07F09DFD12D2614898388C
:1035600090EDC01BB0EE410AF0EE610A9FED621BC8
:1035700053EC112B51EC100B07F0D4FF5B4AC2E95E
:1035800002012946594804F003FCB0EE40AAF0EECF
:1035900060AA5D491FED4C2B1FED4B1B086880474F
:1035A000B0EE409AF0EE609A51EC190B07F000FA79
:1035B0000490564A1268D088544AD1688847044615
:1035C000022C64D09DED080B4648983880EDBE0B68
:1035D0004E490968C88807F004FD41EC1F0B1FED38
:1035E0006D0B53EC102B07F0C5FE41EC1E0B07F0E2
:1035F000DFF908EE900A4449F2EE040AB0EE680AD8
:103600004868804710EE107A384608F075F841ECAB
:103610001D0B1FED770B53EC102B07F0B7FA41ECA5
:103620001C0B1FED790B53EC102B07F06FFD41ECD9
:103630001B0B07F0BDF901909DED010A03F0B2F9F3
:103640005FED7A0A20EE200A10EE106A304608F08C
:1036500053F841EC190B2348983890ED4C1BB0EE11
:10366000410AF0EE610A53EC102B1FED831B51EC65
:10367000110B07F04BFD41EC1A0B53EC192B07F023
:10368000C9F9184A983A02F5987203C227E09DEDED
:10369000040A5FED8E0A20EE200A10EE101A08468A
:1036A00008F02AF841EC190B0E48983890ED4C1BA5
:1036B000B0EE410AF0EE610A53EC102B1FED981B9F
:1036C00051EC110B07F022FD41EC1A0B53EC192BB6
:1036D00007F0A0F9034A983A02F5987203C200BFB6
:1036E000C6E40000B80000204409002018030020B0
:1036F00000000060FB21094000000060FB21194030
:1037000000000060FB2109C0D0090020C40A00208D
:1037100010B586B0734804F07CFF3C21714804F07A
:10372000F3FF704804F0A0FF03216E4804F0ECFFA3
:103730006C4804F099FF6B4804F06BFF3D21694829
:1037400004F0E2FF674804F08FFF002409E06548B9
:1037500004F0B3FF04A90855624804F0DCFE601CC5
:10376000C4B2052CF3DB5F4804F0A7FF8DF8150009
:103770005C4804F033FF5B4804F00DFF9DF8110036
:103780009DF8101040EA012000B2404200EE100AFD
:10379000B8EEC00A5448406880ED030A9DF8130053
:1037A0009DF8121040EA012000B2404200EE100ADB
:1037B000B8EEC00A4C48406880ED050A9DF8150037
:1037C0009DF8141040EA012000B200EE100AB8EE95
:1037D000C00A4548406880ED040A4348406800F14B
:1037E0000C014148406800F10C0291ED021AD1ED44
:1037F000010A91ED000A3D48144603F0B8FD84ED3E
:10380000000AC4ED010A84ED021A01A804F0E2FDE9
:103810003548406890ED030A33484068D0ED090A06
:1038200030EE600A30484068D0ED060A80EE201A7B
:103830008DED011A2C48406890ED040A2A48406832
:10384000D0ED0A0A30EE600A27484068D0ED070A3A
:1038500080EE201A8DED021A2348406890ED050A8B
:1038600021484068D0ED0B0A30EE600A1E484068DF
:10387000D0ED080A80EE201A8DED031A9DED010AA5
:1038800020EE000ADDED020A9DED021A00EE810A2B
:10389000DDED030A9DED031A00EE810A124840682F
:1038A00080ED0C0A10484068D0ED0C0AB7EE001A03
:1038B00030EEC10AF0EEC00A9FED0D0AF4EEC00A28
:1038C000F1EE10FA08D20020074908700846406857
:1038D00001A90EC90EC002E001200349087006B01C
:1038E00010BD0000BC100020140A0020C8100020E9
:1038F000CDCC4C3E10B501F08BFB01F01FFC01F06C
:1039000013FE10BD00B589B001210846FDF78CF803
:103910004FF08040FDF7CEFA4FF4FA40029047484E
:103920000068400800EE100AB8EE400A9FED441A05
:10393000C0EE010A9FED430A80EE801ABCEEC10A78
:1039400010EE100A401E80B2ADF804000020ADF861
:103950000C00ADF8060001A94FF08040FDF720FDF6
:103960006020ADF810000120ADF812004FF4FA60AD
:1039700006900020ADF81C0004A94FF08040FDF730
:1039800093FC0821C806FDF7CBFC01218807FDF751
:1039900073FA01218807FDF781FA01210220FDF762
:1039A00043F82948FDF786FA4FF4FA40029023487D
:1039B0000068400800EE100AF8EE400A9FED201A59
:1039C00080EE810ADFED1F0A80EE201ABCEEC10AEC
:1039D00010EE100A401E80B2ADF804000020ADF8D1
:1039E0000C00ADF8060001A91748FDF7D9FC6020CE
:1039F000ADF810000120ADF812004FF4FA60069007
:103A00000020ADF81C0004A90F48FDF7A5FB082114
:103A10000D48FDF7DFFB04A90B48FDF7E5FB082186
:103A20000948FDF733FC01210748FDF725FA01217C
:103A30000548FDF733FA09B000BD0000640B002013
:103A400000007A420000FA460004004010B52DED57
:103A5000048B84B0044601A804F0BCFCA14890F893
:103A6000FC0801280DD1A04804F01EFC9E489830A7
:103A700004F01AFC9D4804F017FC04B0BDEC048B64
:103A800010BD984890F8000950B9974804F00CFC14
:103A90009548983004F008FC944804F005FCECE7E5
:103AA000904890F80009012807D18F4804F0FCFBEA
:103AB0008D48983004F0F8FBB0E08A4890F800098F
:103AC0000228F9D18A4890ED030A10EE101A084630
:103AD00007F012FE41EC180B86499FED872B9FEDF6
:103AE000881BB0EE480AF0EE680A086880477E48F6
:103AF00080ED020B214604F04BF9B0EE409AF0EE57
:103B0000609A7C499FED7C2B9FED7D1B0868804768
:103B1000B0EE408AF0EE608A51EC180B06F048FFD8
:103B200001909DED010ADFED780A20EE200A10EEEB
:103B3000101A084607F0E0FD41EC180B694890EDBB
:103B4000E41BB0EE410AF0EE610A53EC102B9FED3E
:103B50006F1B51EC110B07F0D9FA41EC190B53EC28
:103B6000182B06F057FF5F4A02F5647203C26048E3
:103B700090ED040A10EE101A084607F0BDFD41EC66
:103B8000180B5C499FED5C2B9FED5D1BB0EE480A66
:103B9000F0EE680A086880475348983080ED020BC1
:103BA000214604F0F5F8B0EE409AF0EE609A5149E3
:103BB0009FED512B9FED521B08688047B0EE408A65
:103BC000F0EE608A51EC180B06F0F2FE02909DEDCB
:103BD000020ADFED4D0A20EE200A10EE101A084608
:103BE00007F08AFD41EC180B4A4890ED0A1BB0EE35
:103BF000410AF0EE610A53EC102B9FED441B51EC8F
:103C0000110B07F083FA41EC190B53EC182B06F05B
:103C100001FF0A4601463F48C0E90A12314890F8C0
:103C20000009012804D02F4890F80009022856D135
:103C30002F4890ED050A10EE101A084607F05CFDBB
:103C400041EC180B2B499FED342B9FED351BB0EE4B
:103C5000480AF0EE680A08688047244880ED020BA5
:103C6000214604F095F8B0EE409AF0EE609A2149B2
:103C70009FED2D2B9FED2E1B08688047B0EE408AEC
:103C8000F0EE608A51EC180B06F092FE03909DED69
:103C9000030ADFED1D0A20EE200A10EE101A084676
:103CA00007F02AFD41EC180B1A4890ED301BB0EEDE
:103CB000410AF0EE610A53EC102B9FED141B51ECFE
:103CC000110B07F023FA41EC190B53EC182B06F0FB
:103CD000A1FE0A460146034800F5986006C000BFF1
:103CE000CBE600002000002078050020A806002078
:103CF00078090020D009002000000000000059C011
:103D00000000000000005940CDCC4C3F0000008076
:103D10009999C93F2004002000000000000044C021
:103D200000000000000044400000000000004EC001
:103D30000000000000004E4001B598B015A804F046
:103D400049FB12A804F046FBFE4890F8FC08012845
:103D500035D1FD4804F0A8FAFB48983004F0A4FAE5
:103D6000FA4804F0A1FAF9483030F94B0ECB703024
:103D70000EC0F448D0F8F008109007F0BDFC0A46D9
:103D80000146F04800F5E46006C0EE48D0F8F408BB
:103D9000109007F0B1FC0A460146EA4800F5F760CA
:103DA00006C0E848D0F8F808109007F0A5FC0A46CD
:103DB0000146E6485038C0E9141219B000BDE14888
:103DC00090F8000958BBE2480068109007F094FC96
:103DD0000A460146DB4800F5E46006C0DC4840685E
:103DE000109007F089FC0A460146D64800F5F760B6
:103DF00006C0D7488068109007F07EFC0A4601464E
:103E0000D2485038C0E91412E03804F04DFACE48D8
:103E1000983004F049FACD4804F046FACDE7C94895
:103E200090F80009012807D1C74804F03DFAC648B8
:103E3000983004F039FAEAE2C24890F80009022802
:103E4000F9D1C04890F8FF0830B9C048503890ED1B
:103E50003B0A8DED110A05E0BE48406890ED020A6C
:103E60008DED110ABC48006800880E90BA48C06801
:103E70000D90DDE90D1088471090B7480068408824
:103E80000E90B548C0680D90DDE90D1088470F9081
:103E9000109802283FD0B04800680088039007F0CF
:103EA000A0F89FEDAE0B53EC102BCDE904019DED76
:103EB000040B51EC100B07F035FB9FEDAA0B53ECF4
:103EC000102BCDE906019DED060B51EC100B06F011
:103ED0005DFE9FEDA60B53EC102BCDE908019DED87
:103EE000080B51EC100B07F011F99FEDA20B53ECEE
:103EF000102BCDE90A019DED0A0B51EC100B07F0D8
:103F000005F9CDE90C019DED0C0B51EC100B06F001
:103F10004FFD159003E09FED990A8DED150A0F985E
:103F200002283FD08C4800684088039007F059F879
:103F30009FED8A0B53EC102BCDE904019DED040B92
:103F400051EC100B07F0EEFA9FED860B53EC102BA3
:103F5000CDE906019DED060B51EC100B06F016FEA7
:103F60009FED820B53EC102BCDE908019DED080B62
:103F700051EC100B07F0CAF89FED7E0B53EC102BA1
:103F8000CDE90A019DED0A0B51EC100B07F0BEF8CC
:103F9000CDE90C019DED0C0B51EC100B06F008FD6A
:103FA000169003E09FED750A8DED160A9DED160A39
:103FB0008DED0E0A9DED150A8DED0D0A7048C06855
:103FC0000C909DED111ADDED0E0A9DED0D0A804756
:103FD0008DED150ACDED160A8DED171A5B48503898
:103FE00090ED3C0ADFED670A30EE600A8DED090ABC
:103FF000099807F081FBCDE90C015448503890ED49
:104000003C0ADFED600A30EE200A8DED090A0998BE
:1040100007F072FBCDE90A015B4890EDC80B8DED0E
:10402000080B5748006807909DED0C2B9DED0A1B6F
:104030009DED080B8047544880EDC80B4148D0F8EF
:10404000F008059007F058FB9FED500B53EC102B38
:10405000CDE906019DED060B51EC100B07F062FA5D
:10406000CDE90C013748D0F8F008059007F044FB83
:104070009FED460B53EC102BCDE906019DED060B91
:1040800051EC100B06F0C6FCCDE90A01304800687F
:10409000079007F031FBCDE9080139480068079027
:1040A0009DED0C2B9DED0A1B9DED080B80472648CE
:1040B00080ED020B189903F06BFE8DED0A0B304872
:1040C00000689FED342B9FED2B1B09909DED0A0B93
:1040D00080478DED0C0B9DED0C0B51EC100B06F099
:1040E00067FC12909DED150AB5EEC00AF1EE10FACC
:1040F0006DD0174800680E9007F0FEFA0A46014698
:10410000104800F5E46006C09DED150ADFED230AB6
:1041100020EE200A8DED090A099807F0EDFACDE9A5
:104120000C01194890ED560B8DED080B9DED080B19
:1041300053EC102B9FED1A0B51EC100B06F0E6FF21
:1041400032E000002000002040070020700800201E
:104150007809002044090020C40A00200000000063
:1041600000407F400000000000408F400000000041
:104170000000004000000000000059400000000066
:10418000D009002000007A44200400200000000034
:104190000070974000000000000059C0CDCCCC3D1D
:1041A000000000C0CCCCEC3FCDE90A019DED0C0B2A
:1041B00053EC102B9DED0A0B51EC100B06F02AFC72
:1041C0000A460146FE4800F5AB6006C02DE09DEDB5
:1041D000120A5FED0E0A20EE200A8DED090A0998F9
:1041E00007F08AFACDE90C01F64890ED560B8DEDFB
:1041F000080B9DED080B53EC102B1FED170B51EC2A
:10420000100B06F083FFCDE90A019DED0C0B53EC7A
:10421000102B9DED0A0B51EC100B06F0FBFB0A4630
:104220000146E74800F5AB6006C0E74890ED010A9B
:104230005FED2C0A30EE600A8DED090A099807F04F
:104240005BFACDE90C01E04890ED010A5FED330A1D
:1042500030EE200A8DED090A099807F04DFACDE9F4
:104260000A01D84890EDEE0B8DED080BD748006899
:1042700007909DED0C2B9DED0A1B9DED080B8047D3
:10428000D04880EDEE0BCE48D0F8F408059007F04A
:1042900033FA1FED420B53EC102BCDE906019DEDD7
:1042A000060B51EC100B07F03DF9CDE90C01C448A9
:1042B000D0F8F408059007F01FFA1FED4C0B53ECF3
:1042C000102BCDE906019DED060B51EC100B06F00D
:1042D000A1FBCDE90A01BE484068079007F00CFA3F
:1042E000CDE90801B948006807909DED0C2B9DEDC4
:1042F0000A1B9DED080B8047B64880ED020B18990C
:1043000003F046FD8DED0A0BB04800681FED5F2BF2
:104310001FED681B09909DED0A0B80478DED0C0B7E
:104320009DED0C0B51EC100B06F042FB13909DED34
:10433000160AB5EEC00AF1EE10FA39D0A44840686A
:104340000E9007F0D9F90A4601469D4800F5F7603E
:1043500006C09DED160A5FED6F0A20EE200A8DED76
:10436000090A099807F0C8F9CDE90C01954890EDC4
:104370007C0B8DED080B9DED080B53EC102B1FED06
:10438000780B51EC100B06F0C1FECDE90A019DED52
:104390000C0B53EC102B9DED0A0B51EC100B06F09F
:1043A00039FB0A460146864800F5BE6006C02DE08E
:1043B0009DED130A5FED870A20EE200A8DED090AB4
:1043C000099807F099F9CDE90C017E4890ED7C0B36
:1043D0008DED080B9DED080B53EC102B1FED900B92
:1043E00051EC100B06F092FECDE90A019DED0C0B8D
:1043F00053EC102B9DED0A0B51EC100B06F00AFB51
:104400000A4601466E4800F5BE6006C000BF6C4813
:1044100090F80009012804D0694890F800090228A2
:104420007ED16748D0F8F8080B9007F065F9CDE920
:104430000E01654890ED020ADFED670A30EE200AB2
:104440008DED0B0A0B9807F057F9CDE90C01614887
:10445000483090ED140B8DED0A0B5C480068099014
:104460009DED0E2B9DED0C1B9DED0A0B80475948D1
:10447000483080ED140B5248D0F8F808099007F046
:104480003BF9CDE90E014E48D0F8F808079007F047
:1044900033F99FED520B53EC102BCDE908019DED44
:1044A000080B51EC100B06F0B5FACDE90C014848A9
:1044B0008068099007F020F9CDE90A0143480068B7
:1044C00009909DED0E2B9DED0C1B9DED0A0B804779
:1044D0004048983080ED020B189903F059FC8DED9F
:1044E0000C0B3A4800689FED3F2B9FED401B0B9053
:1044F0009DED0C0B80478DED0E0B9DED0E0B51ECE1
:10450000100B06F055FA14903A48006880880F9016
:104510003848C0680E90DDE90E108847109000E022
:10452000CCE01098022873D0294880680F9007F0DB
:10453000E3F80A46014627484830C0E914122D48DE
:1045400000688088019006F04CFD1FEDFC0B53ECD9
:10455000102BCDE902019DED020B51EC100B06F082
:10456000E1FF9FED250B53EC102BCDE904019DEDF0
:10457000040B51EC100B06F009FB9FED210B53ECE3
:10458000102BCDE906019DED060B51EC100B06F04A
:10459000BDFD9FED160B53EC102BCDE908019DEDF1
:1045A000080B51EC100B06F0B1FD9FED170B53EC0F
:1045B000102BCDE90A019DED0A0B51EC100B28E000
:1045C000200000202004002010090020D009002035
:1045D00078090020D80700200000FA4300000000FE
:1045E0000070874000000000000044C00000000090
:1045F00000004440C40A00200000000000408F403A
:104600000000000000000040000000A09999B93FA0
:1046100025E006F07BFDCDE90E012A4890EDA20BC6
:104620008DED0A0B9DED0A0B53EC102B9FED260B25
:1046300051EC100B06F06AFDCDE90C019DED0E0B5F
:1046400053EC102B9DED0C0B51EC100B06F0E2F926
:104650000A4601461E4800F5D16006C02DE09DEDDA
:10466000140ADFED1C0A20EE200A8DED0B0A0B98D0
:1046700007F042F8CDE90E01124890EDA20B8DED46
:104680000A0B9DED0A0B53EC102B9FED0F0B51EC19
:10469000100B06F03BFDCDE90C019DED0E0B53EC2C
:1046A000102B9DED0C0B51EC100B06F0B3F90A46E4
:1046B0000146074800F5D16006C000BF00BFFFF704
:1046C0007CBB000020040020000000C0CCCCEC3FEC
:1046D00020000020CDCCCC3D0D4800880D4908803D
:1046E0000B48408848800A48808888800A480088AB
:1046F0000A2803DD00200949087407E006480088FD
:10470000401C0549088001200449087470470000D6
:10471000101200201C120020C00A0020C40A002031
:1047200070B504460D4607200F490870AA2048704E
:104730008870EF20C87002200871084645718C719E
:104740000026012005E00849095C3144CEB2411C35
:10475000C8B20728F7DB0448C6710448082142683C
:104760000148904770BD0000080C00201C0B002081
:1047700070B506460C4600250A48C079A04201DA09
:10478000002070BD002509E0701907498A680549B5
:10479000904708B90020F4E7681C85B2A542F3DB16
:1047A0000120EEE77C170020280B002031B52DED0D
:1047B000040B2DED108B86B005469FED890AB0EEF7
:1047C00040FA9FED870AF0EE408A9FED850A8DED55
:1047D000040A002483480088401C82490880284637
:1047E00006F0FFFB41EC1A0B9FED7F0B53EC102BF7
:1047F00006F0CCF941EC190B06F0DAF808EE100AD5
:104800007B48006890ED040A10EE101A084606F086
:1048100073FF41EC1A0B9FED770B53EC102B06F056
:1048200075FC41EC190B06F0C3F804909DED180AD5
:10483000F0EE40FA7148D0ED020A9DED040A30EE28
:10484000600AF0EE408A9FED6E0A68EE800A6D48BD
:1048500090ED000A00EE880A80ED000A9FED6A0ADA
:1048600068EE800A694890ED000A00EE880A80ED43
:10487000000A9FED670A68EE800A664890ED000A1C
:1048800000EE880A80ED000A5C4890ED080A624854
:1048900080ED000A5B4890ED000A3FEE800A574821
:1048A00080ED080A90ED080A5B48D0ED000A30EE72
:1048B000200A20EE080A10EE101A084606F01CFF27
:1048C00041EC1A0B9FED550B53EC102B06F05EF9E3
:1048D00041EC190B06F06CF80FEE100A18EE100AF6
:1048E00006F00AFF41EC1C0B1FEE100A06F004FF55
:1048F0009FED4C0B53EC102BCDE900019DED000B0F
:1049000051EC100B06F002FC41EC1D0B3B4890ED06
:10491000050A10EE101A084606F0EEFE41EC1E0BDA
:1049200053EC1D2B06F076F853EC1C2BCDE902015D
:104930009DED020B51EC100B06F0E8FB41EC1A0B5D
:104940003A48006806F0D8FE41EC1B0B53EC1A2BDA
:1049500006F060F841EC190B06F02AF833490860BC
:10496000084690ED000A2B48D0ED000A30EE200AF0
:10497000224880ED020A2E4890ED000A30EE0F0A20
:1049800080ED000A90ED000A2048D0ED000A30EEDC
:10499000200A1A4880ED050A12480088012819DB10
:1049A0003C240CE0601E234901EB800090ED000ADE
:1049B000084600EB840080ED000A601E84B2002CE3
:1049C000F0DC0E4890ED020A1A4880ED000A002043
:1049D0000449088006B0BDEC108B05B030BD000066
:1049E00000000000BC0900200000000000408F40D3
:1049F000480A00200000000000005940780900200B
:104A00006F12833DA40900208FC2F53EA809002043
:104A1000CDCC4C3FAC090020B009002000000000C4
:104A200000000040000000000000E03FB809002046
:104A3000B4090020C80D00201CB501210846FBF771
:104A4000E3FF01210220FBF7DFFFC82000900220D6
:104A50008DF8040003208DF8050000208DF8060075
:104A600001208DF8070069460948FBF710FF012275
:104A700003210748FBF753FF022206210448FBF7F6
:104A80004EFF022207210248FBF749FF1CBD000030
:104A9000000002403EB5044668469FED3E0A80EDA8
:104AA000000A9FED3C0A80ED010A9FED3A0A80ED75
:104AB000020A00BF384A526892ED000AF0EE402A1E
:104AC000354A526892ED010AB0EE402A324A5268E5
:104AD00092ED020AF0EE401A304A526802F11800D4
:104AE0002F4A916890ED021AD0ED010A90ED000A6C
:104AF00088478DED000ACDED010A8DED021A9DED7E
:104B0000000ADFED280A80EE201A8DED001A9DEDD7
:104B1000000ADFED250A20EE200A8DED000A9DED4A
:104B2000010ADFED200A80EE201A8DED011A9DEDBD
:104B3000010ADFED1D0A20EE200A8DED010A9DED30
:104B4000020ADFED180A30EE600A8DED020A9DEDD3
:104B5000020ADFED140A80EE201A8DED021A9DED97
:104B6000020ADFED110A20EE200A8DED020A9DED0A
:104B7000021ADDED010A9DED000A2046FFF716FE40
:104B80009DED021ADDED010A9DED000A204602F0BE
:104B90007FF93EBD0000000044090020F809002014
:104BA000D009002000F07F45000075443EB500208C
:104BB000029001900124AA222146641CBA48425462
:104BC0002146641C4254A1222146641C4254002206
:104BD0002146641C4254B54890ED020A8DED000A4E
:104BE0009DF800202146641CAF4842549DF80120E6
:104BF0002146641C42549DF802202146641C425404
:104C00009DF803202046611CCCB2A7490A54A8484D
:104C1000406890ED000A8DED000A9DF800202046C6
:104C2000611CCCB2A0490A549DF801202046611CA9
:104C3000CCB29D490A549DF802202046611CCCB29A
:104C400099490A549DF803202046611CCCB296492C
:104C50000A549748406890ED010A8DED000A9DF8CE
:104C600000202046611CCCB28F490A549DF80120D7
:104C70002046611CCCB28C490A549DF80220204683
:104C8000611CCCB288490A549DF803202046611C5F
:104C9000CCB285490A548648406890ED020A8DEDF1
:104CA000000A9DF800202046611CCCB27E490A54BF
:104CB0009DF801202046611CCCB27B490A549DF826
:104CC00002202046611CCCB277490A549DF803208B
:104CD0002046611CCCB274490A547648406890ED75
:104CE000060A8DED000A9DF800202046611CCCB21A
:104CF0006D490A549DF801202046611CCCB26A49D6
:104D00000A549DF802202046611CCCB266490A5420
:104D10009DF803202046611CCCB263490A546548C3
:104D2000406890ED070A8DED000A9DF800202046AE
:104D3000611CCCB25C490A549DF801202046611CDC
:104D4000CCB259490A549DF802202046611CCCB2CD
:104D500055490A549DF803202046611CCCB25249A3
:104D60000A545448406890ED080A8DED000A9DF8F9
:104D700000202046611CCCB24B490A549DF801200A
:104D80002046611CCCB248490A549DF802202046B6
:104D9000611CCCB244490A549DF803202046611C92
:104DA000CCB241490A544348406890ED090A8DED60
:104DB000000A9DF800202046611CCCB23A490A54F2
:104DC0009DF801202046611CCCB237490A549DF859
:104DD00002202046611CCCB233490A549DF80320BE
:104DE0002046611CCCB230490A543248406890EDEC
:104DF0000A0A8DED000A9DF800202046611CCCB205
:104E000029490A549DF801202046611CCCB226494C
:104E10000A549DF802202046611CCCB222490A5453
:104E20009DF803202046611CCCB21F490A5421483A
:104E3000406890ED0B0A8DED000A9DF80020204699
:104E4000611CCCB218490A549DF801202046611C0F
:104E5000CCB215490A549DF802202046611CCCB200
:104E600011490A549DF803202046611CCCB20E491A
:104E70000A54601F08710025012005E00A49095CF9
:104E80002944CDB2411CC8B2A042F7DB2046611CC8
:104E9000CCB205490D54601E08700748214642688F
:104EA000014890473EBD0000080C0020580B002030
:104EB00044090020F80900201C0B002070B52DEDDE
:104EC000028B044646490968888806F08AF841EC56
:104ED000180B9FED440B53EC102B06F015FA09D27A
:104EE00001204249096808704148C1684FF40050E8
:104EF000884716E03A490968888806F072F841EC5C
:104F0000180B9FED380B53EC102B06F0C3F808D2AA
:104F10000020364909680870354881684FF4005010
:104F20008847324800684078012841D10020314943
:104F300008802B490968488806F053F841EC180BA3
:104F40009FED2D0B53EC102B06F0DEF901D201255D
:104F500000E0002522490968088806F042F841EC83
:104F6000180B9FED270B53EC102B06F0CDF901D257
:104F7000012000E0002028401C490968897809B90F
:104F8000012100E00021084070B11F480088204442
:104F90001D49088008460088B0F5FA6F18DD00202A
:104FA00012490968487013E00020174908800FE093
:104FB0000E4800688078012806D00C480068007808
:104FC00012490978884203D00120084909684870CD
:104FD0000648006800780D490870BDEC028B70BD72
:104FE000C40A0020000000000038A840E4090020A6
:104FF000900A0020C6090020000000000014AE4006
:105000000000000000908A40C8090020CC09002060
:105010001FB53C22D021464803F01DFAC0B28DF8DE
:1050200008003B22D021424803F015FAC0B28DF8A7
:1050300009009DF808009DF8091040EA012000B21F
:10504000ADF800003E22D021394803F004FAC0B286
:105050008DF80A003D22D021354803F0FCF9C0B29A
:105060008DF80B009DF80A009DF80B1040EA012016
:1050700000B2ADF802004022D0212D4803F0EBF938
:10508000C0B28DF80C003F22D021294803F0E3F98B
:10509000C0B28DF80D009DF80C009DF80D1040EA8F
:1050A000012000B2ADF80400BDF9000000EE100AC6
:1050B000B8EEC00A1F4880ED000ABDF9020000EEFC
:1050C000100AB8EEC00A1B4880ED010ABDF90400C1
:1050D00000EE100AB8EEC00A164880ED020A90ED04
:1050E000000AD0ED0C0A30EE600A80ED060A90ED61
:1050F000010AD0ED0D0A30EE600A80ED070A90ED4E
:10510000020AD0ED0E0A30EE600A80ED080A90ED3A
:10511000081AD0ED070A90ED060A074801F042FF91
:10512000044880ED060AC0ED070A80ED081A1FBD8D
:10513000D80F00205C100020E40F00201FB544228F
:10514000D021464803F087F9C0B28DF80800432209
:10515000D021424803F07FF9C0B28DF809009DF8D4
:1051600008009DF8091040EA012000B2ADF80000E7
:105170004622D021394803F06EF9C0B28DF80A00FA
:105180004522D021354803F066F9C0B28DF80B00F6
:105190009DF80A009DF80B1040EA012000B2ADF81E
:1051A00002004822D0212D4803F055F9C0B28DF8F5
:1051B0000C004722D021294803F04DF9C0B28DF8E8
:1051C0000D009DF80C009DF80D1040EA012000B282
:1051D000ADF80400BDF9000000EE100AB8EEC00AF8
:1051E0001F4880ED030ABDF9020000EE100AB8EE78
:1051F000C00A1B4880ED040ABDF9040000EE100A45
:10520000B8EEC00A164880ED050A90ED030AD0ED0D
:105210000F0A30EE600A80ED090A90ED040AD0ED25
:10522000100A30EE600A80ED0A0A90ED050AD0ED12
:10523000110A30EE600A80ED0B0A90ED0B1AD0EDEA
:105240000A0A90ED090A074802F091F8044880ED37
:10525000090AC0ED0A0A80ED0B1A1FBDD80F002005
:105260005C1000202810002070B5002435E01C4898
:1052700003F0CFF9EE211A4803F046FA184803F07C
:10528000F3F9A02000EB4400C1B2154803F03CFA4A
:10529000134803F0E9F9124803F0BBF9EF21104875
:1052A00003F032FA0E4803F0DFF90D4803F005FA77
:1052B00005460B4803F02FF9094803F0FEF90646AE
:1052C000074803F08BF9064803F065F946EA052024
:1052D000044921F81400601CC4B2062CC7DD70BD5F
:1052E000381100206011002000B587B00121042092
:1052F000FBF79AFB2848FBF7DDFD4FF6FF700290A5
:105300002920ADF804000020ADF80C00ADF806002F
:1053100001A92148FCF744F80020ADF81200012053
:10532000ADF814000020ADF81600ADF81800ADF887
:10533000100004A91848FBF7C6FE0420ADF81000C1
:1053400004A91548FBF7BFFE0820ADF8100004A91A
:105350001148FBF7B8FE0C20ADF8100004A90E4868
:10536000FBF7B1FE01210C48FBF798FD0122022159
:105370000948FBF7E8FE012204210748FBF7E3FE9A
:10538000012208210448FBF7DEFE01221021024819
:10539000FBF7D9FE07B000BD000800402DE9F04141
:1053A00088B00025002400270026A0465B48202165
:1053B000826868469047012878D100BF18E01F2D09
:1053C00002D108B0BDE8F0811DF80500AA2801D17E
:1053D000012000E00020691C1DF80110AF2901D157
:1053E000012100E00021084000B103E0681CC5B2C3
:1053F000202DE4DB00BFE81C1DF80000001DC7B233
:105400002C46A81C1DF80080002506E060191DF838
:1054100000003044C6B2681CC5B2BD42F6DBE019DC
:105420001DF80000B04277D1B8F1300F1BD009DC75
:10543000B8F1010F0DD0B8F1020F0ED0B8F1100F76
:1054400068D10BE0B8F1310F21D0B8F1A10F61D1D3
:1054500040E00120324908705DE05CE010213046F8
:10546000FFF75EF957E0601D1DF80010201D1DF8C4
:10547000000041EA0020002804DD012029490968D4
:10548000487003E0002027490968487000BF601D8C
:105490001DF80010201D1DF8000041EA0020002822
:1054A00005DD00201F490968087012E034E0601D26
:1054B0001DF80010201D1DF8000041EA002020B951
:1054C000012018490968087003E00220154909689D
:1054D000087000BF601D1DF80010201D1DF80000A1
:1054E00041EA00200F498860E01D1DF80010A01D52
:1054F0001DF8000041EA00200A49C86004F10900D3
:105500001DF80010401E1DF8000041EA002005496A
:10551000086100E000BF00BF00BF52E71C0B002085
:10552000F8090020E409002010B57748007800F061
:10553000010048B9744803F096F928B1734802F0A5
:1055400049FF7148AFF300807148007800F0010016
:1055500048B96F4803F087F928B16E4802F03AFF66
:105560006B48AFF300806C480078012868D16B4825
:105570000068E0B99FED6A0A6A4880ED0C0A9FED69
:10558000680A80ED0D0A9FED660A80ED0E0A9FED18
:10559000640A80ED0F0A9FED620A80ED100A9FED0C
:1055A000600A80ED110A01205C49086010BD5B486B
:1055B000006840F6B831884243DC58480068401C17
:1055C00056490860514890ED000A5648D0ED000A4F
:1055D00030EE200A4D4880ED000A90ED010A514856
:1055E000D0ED010A30EE200A484880ED010A90ED26
:1055F000020A4C48D0ED020A30EE200A434880ED02
:10560000020A444890ED000A4648D0ED030A30EE05
:10561000200A404880ED000A90ED010A4148D0ED93
:10562000040A30EE200A3B4880ED010A90ED020AA0
:105630003C48D0ED050A30EE200A364880ED020ADB
:1056400060E0002035490860334908702F4890ED2C
:10565000000ADFED350A80EE201A324880ED0C1A80
:105660002A4890ED010ADFED300A80EE201A2D481D
:1056700080ED0D1A254890ED020ADFED2B0A80EE31
:10568000201A9FED2A0A31EE400A264880ED0E0AC4
:10569000204890ED000ADFED240A80EE201A214810
:1056A00080ED0F1A1B4890ED010ADFED1F0A80EE16
:1056B000201A1C4880ED101A164890ED020ADFED02
:1056C0001A0A80EE201A174880ED111A9FED140A6D
:1056D0000E4880ED000A9FED120A80ED010A9FED51
:1056E000100A80ED020A9FED0E0A0A4880ED000ABA
:1056F0009FED0B0A80ED010A9FED090A80ED020A79
:1057000000F052F800BF51E70C0A0020A41000205E
:10571000080A0020B0100020F8090020100A00201C
:10572000000000005C10002000803B4500F07F4539
:1057300000B51820FCF702F9BCEEC00A10EE100A02
:105740001749487008464078012824D10020FCF70A
:10575000F5F8144880ED0C0A0420FCF7EFF8114826
:1057600080ED0D0A0820FCF7E9F80E4880ED0E0ADE
:105770000C20FCF7E3F80B4880ED0F0A1020FCF733
:10578000DDF8084880ED100A1420FCF7D7F805482A
:1057900080ED110A02E001200149087000BD0000FF
:1057A000F80900205C10002010B5FCF7BFFA10B912
:1057B00002200149887010BDF809002070B51D480D
:1057C00002F027FFEE211B4802F09EFF194802F06D
:1057D0004BFF0021174802F097FF164802F044FFE4
:1057E000144802F0D8FE134802F013FFEF211148CD
:1057F00002F08AFF0F4802F037FF0E4802F05DFF0B
:1058000004460C4802F087FE0A4802F056FF05469F
:10581000084802F080FE074802F04FFF06460548A0
:1058200002F0DCFE034802F0B6FE200400EB052087
:10583000304470BD381100201CB501210220FBF757
:10584000E3F801210420FBF7DFF84FF470700090BB
:1058500002208DF8040003208DF8050000208DF84B
:1058600006008DF8070069461A48FBF710F8022277
:1058700006211848FBF753F8022207211548FBF7C9
:105880004EF8022208211348FBF749F802220921A9
:105890001048FBF744F84FF44070009002208DF858
:1058A000040000208DF8060003208DF8050002207A
:1058B0008DF8070069460848FAF7E9FF0322082136
:1058C0000548FBF72CF8032209210348FBF727F8CA
:1058D0001CBD0000000402400008024008B51E2064
:1058E0008DF8000000208DF8010001208DF80200E5
:1058F0008DF803006846FBF73FF82E208DF8000076
:1059000000208DF8010002208DF8020001208DF8A2
:1059100003006846FBF730F808BD000010B52DED18
:105920000C0BB8B09FEDFE0B53EC102B9DED420B12
:1059300051EC100B05F02AF9CDE9340119A802F059
:1059400049FD16A802F046FD3B98139005F0D4FEE1
:10595000CDE920013C98139005F0CEFECDE91E0163
:105960003D98139005F0C8FECDE91C019DED380A65
:10597000DFEDED0A20EE200A8DED120A9DED120AF0
:1059800001F010F88DED130A139805F0B5FECDE97E
:1059900026019DED390ADFEDE40A20EE200A8DEDA7
:1059A000120A9DED120A00F0FDFF8DED130A139807
:1059B00005F0A2FECDE924019DED3A0ADFEDDA0AF9
:1059C00020EE200A8DED120A9DED120A00F0EAFF8A
:1059D0008DED130A139805F08FFECDE922019DEDA0
:1059E000260B51EC100B04F0E3FFD0490968086066
:1059F0009DED240B51EC100B04F0DAFFCB49096844
:105A000048609DED220B51EC100B04F0D1FFC7490B
:105A1000096888609DED1C0B53EC102B9DED1C0B51
:105A200051EC100B05F072FBCDE90E019DED1E0B44
:105A300053EC102B9DED1E0B51EC100B05F066FB8B
:105A4000CDE90A019DED200B53EC102B9DED200BB1
:105A500051EC100B05F05AFBCDE908019DED0A0B46
:105A600053EC102B9DED080B51EC100B04F0D2FF02
:105A7000CDE90C019DED0E0B53EC102B9DED0C0BA5
:105A800051EC100B04F0C6FFCDE910019DED100B99
:105A900051EC100B04F08CFF139037A89DED130A06
:105AA000FCF728FE9DED370AB5EEC00AF1EE10FABC
:105AB00001D144B010BD379805F01EFECDE91201AA
:105AC0009DED120B53EC102B9DED200B51EC100BA8
:105AD00005F05CF8CDE92001379805F00DFECDE921
